{
  "address": "0xb01C9DE0e9dE0a6cAb6df586484707b7078De684",
  "abi": [
    {
      "constant": false,
      "inputs": [
        {
          "internalType": "address",
          "name": "_address",
          "type": "address"
        },
        {
          "internalType": "address payable",
          "name": "_contributor",
          "type": "address"
        },
        {
          "internalType": "bytes32",
          "name": "_itemID",
          "type": "bytes32"
        },
        {
          "internalType": "uint256",
          "name": "_cursor",
          "type": "uint256"
        },
        {
          "internalType": "uint256",
          "name": "_count",
          "type": "uint256"
        },
        {
          "internalType": "uint256",
          "name": "_roundCursor",
          "type": "uint256"
        },
        {
          "internalType": "uint256",
          "name": "_roundCount",
          "type": "uint256"
        }
      ],
      "name": "batchRequestWithdraw",
      "outputs": [],
      "payable": false,
      "stateMutability": "nonpayable",
      "type": "function"
    },
    {
      "constant": false,
      "inputs": [
        {
          "internalType": "address",
          "name": "_address",
          "type": "address"
        },
        {
          "internalType": "address payable",
          "name": "_contributor",
          "type": "address"
        },
        {
          "internalType": "bytes32",
          "name": "_itemID",
          "type": "bytes32"
        },
        {
          "internalType": "uint256",
          "name": "_request",
          "type": "uint256"
        },
        {
          "internalType": "uint256",
          "name": "_cursor",
          "type": "uint256"
        },
        {
          "internalType": "uint256",
          "name": "_count",
          "type": "uint256"
        }
      ],
      "name": "batchRoundWithdraw",
      "outputs": [],
      "payable": false,
      "stateMutability": "nonpayable",
      "type": "function"
    }
  ],
  "transactionHash": "0x4ebc57e6506f9434cbead633f94f20be2000526c65eda102adbc49adbf63179e",
  "args": [],
  "numDeployments": 1,
  "solcInputHash": "8e68fa05bce2d1098c0738035c7962ed",
  "bytecode": "0x608060405234801561001057600080fd5b506104b9806100206000396000f3fe608060405234801561001057600080fd5b50600436106100365760003560e01c80630c7c04881461003b5780634746851c14610085575b600080fd5b610083600480360360c081101561005157600080fd5b506001600160a01b03813581169160208101359091169060408101359060608101359060808101359060a001356100d3565b005b610083600480360360e081101561009b57600080fd5b506001600160a01b03813581169160208101359091169060408101359060608101359060808101359060a08101359060c00135610306565b60008690506000816001600160a01b031663bfbcff1a87876040518363ffffffff1660e01b8152600401808381526020018281526020019250505060006040518083038186803b15801561012657600080fd5b505afa15801561013a573d6000803e3d6000fd5b505050506040513d6000823e601f3d908101601f1916820160405261018081101561016457600080fd5b81516020830151604080850151606086015160e08701516101008801516101208901516101408a0180519651989a97999598949760808101979496939592949293810192909190846401000000008211156101be57600080fd5b9083019060208201858111156101d357600080fd5b82516401000000008111828201881017156101ed57600080fd5b82525081516020918201929091019080838360005b8381101561021a578181015183820152602001610202565b50505050905090810190601f1680156102475780820380516001836020036101000a031916815260200191505b5060405250949a508d99505050505050505050505b8181108015610272575083158061027257508381105b156102fb576040805163a1c2bf4d60e01b81526001600160a01b038a81166004830152602482018a9052604482018990526064820184905291519185169163a1c2bf4d9160848082019260009290919082900301818387803b1580156102d757600080fd5b505af11580156102eb573d6000803e3d6000fd5b50506001909201915061025c9050565b505050505050505050565b60008790506000816001600160a01b0316634aac84e5886040518263ffffffff1660e01b81526004018082815260200191505060006040518083038186803b15801561035157600080fd5b505afa158015610365573d6000803e3d6000fd5b505050506040513d6000823e601f3d908101601f19168201604052606081101561038e57600080fd5b81019080805160405193929190846401000000008211156103ae57600080fd5b9083019060208201858111156103c357600080fd5b82516401000000008111828201881017156103dd57600080fd5b82525081516020918201929091019080838360005b8381101561040a5781810151838201526020016103f2565b50505050905090810190601f1680156104375780820380516001836020036101000a031916815260200191505b5060409081520151935088925050505b818110801561045d575085158061045d57508581105b15610478576104708a8a8a8489896100d3565b600101610447565b5050505050505050505056fea265627a7a723158204bb1570419a4a3f559a5c2f3b7c0099d07508a9f4fc4f4ad963c1c2daad2cc0e64736f6c63430005110032",
  "devdoc": {
    "methods": {
      "batchRequestWithdraw(address,address,bytes32,uint256,uint256,uint256,uint256)": {
        "details": "Withdraws rewards and reimbursements of multiple requests at once. This function is O(n*m) where n is the number of requests and m is the number of rounds to withdraw per request. This could exceed gas limits, therefore this function should be used only as a utility and not be relied upon by other contracts.",
        "params": {
          "_address": "The address of the GTCR.",
          "_contributor": "The address that made contributions to the request.",
          "_count": "The number of requests to iterate. If set to 0 or a value larger than the number of request, iterates until the last request.",
          "_cursor": "The request from which to start withdrawing.",
          "_itemID": "The ID of the item with funds to be withdrawn.",
          "_roundCount": "The number of rounds to iterate on each request. If set to 0 or a value larger than the number of rounds a request has, iteration for that request will stop at the last round.",
          "_roundCursor": "The round of each request from where to start withdrawing."
        }
      },
      "batchRoundWithdraw(address,address,bytes32,uint256,uint256,uint256)": {
        "details": "Withdraws rewards and reimbursements of multiple rounds at once. This function is O(n) where n is the number of rounds. This could exceed gas limits, therefore this function should be used only as a utility and not be relied upon by other contracts.",
        "params": {
          "_address": "The address of the GTCR.",
          "_contributor": "The address that made contributions to the request.",
          "_count": "The number of rounds to iterate. If set to 0 or a value larger than the number of rounds, iterates until the last round.",
          "_cursor": "The round from where to start withdrawing.",
          "_itemID": "The ID of the item with funds to be withdrawn.",
          "_request": "The request from which to withdraw contributions."
        }
      }
    },
    "title": "BatchWithdraw Withdraw fees and rewards from contributions to disputes rounds in batches."
  },
  "userdoc": {
    "methods": {}
  },
  "storageLayout": {
    "storage": [],
    "types": null
  }
}