{
  "address": "0x20E1D44c64Ec03ECe12133743bEc7019f3aAe373",
  "abi": [
    {
      "constant": true,
      "inputs": [
        {
          "internalType": "address",
          "name": "_address",
          "type": "address"
        },
        {
          "internalType": "bytes32",
          "name": "_itemID",
          "type": "bytes32"
        },
        {
          "internalType": "address",
          "name": "_contributor",
          "type": "address"
        }
      ],
      "name": "availableRewards",
      "outputs": [
        {
          "internalType": "uint256",
          "name": "rewards",
          "type": "uint256"
        }
      ],
      "payable": false,
      "stateMutability": "view",
      "type": "function"
    },
    {
      "constant": true,
      "inputs": [
        {
          "internalType": "address",
          "name": "_address",
          "type": "address"
        },
        {
          "internalType": "uint256",
          "name": "_cursorIndex",
          "type": "uint256"
        },
        {
          "internalType": "uint256",
          "name": "_count",
          "type": "uint256"
        },
        {
          "internalType": "bool[8]",
          "name": "_filter",
          "type": "bool[8]"
        },
        {
          "internalType": "address",
          "name": "_party",
          "type": "address"
        }
      ],
      "name": "countWithFilter",
      "outputs": [
        {
          "internalType": "uint256",
          "name": "count",
          "type": "uint256"
        },
        {
          "internalType": "bool",
          "name": "hasMore",
          "type": "bool"
        },
        {
          "internalType": "uint256",
          "name": "",
          "type": "uint256"
        }
      ],
      "payable": false,
      "stateMutability": "view",
      "type": "function"
    },
    {
      "constant": true,
      "inputs": [
        {
          "internalType": "address",
          "name": "_address",
          "type": "address"
        }
      ],
      "name": "fetchArbitrable",
      "outputs": [
        {
          "components": [
            {
              "internalType": "address",
              "name": "governor",
              "type": "address"
            },
            {
              "internalType": "address",
              "name": "arbitrator",
              "type": "address"
            },
            {
              "internalType": "bytes",
              "name": "arbitratorExtraData",
              "type": "bytes"
            },
            {
              "internalType": "uint256",
              "name": "submissionBaseDeposit",
              "type": "uint256"
            },
            {
              "internalType": "uint256",
              "name": "removalBaseDeposit",
              "type": "uint256"
            },
            {
              "internalType": "uint256",
              "name": "submissionChallengeBaseDeposit",
              "type": "uint256"
            },
            {
              "internalType": "uint256",
              "name": "removalChallengeBaseDeposit",
              "type": "uint256"
            },
            {
              "internalType": "uint256",
              "name": "challengePeriodDuration",
              "type": "uint256"
            },
            {
              "internalType": "uint256",
              "name": "metaEvidenceUpdates",
              "type": "uint256"
            },
            {
              "internalType": "uint256",
              "name": "winnerStakeMultiplier",
              "type": "uint256"
            },
            {
              "internalType": "uint256",
              "name": "loserStakeMultiplier",
              "type": "uint256"
            },
            {
              "internalType": "uint256",
              "name": "sharedStakeMultiplier",
              "type": "uint256"
            },
            {
              "internalType": "uint256",
              "name": "MULTIPLIER_DIVISOR",
              "type": "uint256"
            },
            {
              "internalType": "uint256",
              "name": "arbitrationCost",
              "type": "uint256"
            }
          ],
          "internalType": "struct GeneralizedTCRView.ArbitrableData",
          "name": "result",
          "type": "tuple"
        }
      ],
      "payable": false,
      "stateMutability": "view",
      "type": "function"
    },
    {
      "constant": true,
      "inputs": [
        {
          "internalType": "address",
          "name": "_address",
          "type": "address"
        },
        {
          "internalType": "uint256[4]",
          "name": "_targets",
          "type": "uint256[4]"
        },
        {
          "internalType": "bool[9]",
          "name": "_filter",
          "type": "bool[9]"
        },
        {
          "internalType": "address",
          "name": "_party",
          "type": "address"
        }
      ],
      "name": "findIndexForPage",
      "outputs": [
        {
          "internalType": "uint256",
          "name": "index",
          "type": "uint256"
        },
        {
          "internalType": "bool",
          "name": "hasMore",
          "type": "bool"
        },
        {
          "internalType": "bool",
          "name": "indexFound",
          "type": "bool"
        }
      ],
      "payable": false,
      "stateMutability": "view",
      "type": "function"
    },
    {
      "constant": true,
      "inputs": [
        {
          "internalType": "address",
          "name": "_address",
          "type": "address"
        },
        {
          "internalType": "bytes",
          "name": "_rlpEncodedMatch",
          "type": "bytes"
        },
        {
          "internalType": "uint256",
          "name": "_cursor",
          "type": "uint256"
        },
        {
          "internalType": "uint256",
          "name": "_count",
          "type": "uint256"
        },
        {
          "internalType": "bool[4]",
          "name": "_skipState",
          "type": "bool[4]"
        },
        {
          "internalType": "bool[]",
          "name": "_ignoreColumns",
          "type": "bool[]"
        }
      ],
      "name": "findItem",
      "outputs": [
        {
          "components": [
            {
              "internalType": "bytes32",
              "name": "ID",
              "type": "bytes32"
            },
            {
              "internalType": "bytes",
              "name": "data",
              "type": "bytes"
            },
            {
              "internalType": "enum GeneralizedTCR.Status",
              "name": "status",
              "type": "uint8"
            },
            {
              "internalType": "bool",
              "name": "disputed",
              "type": "bool"
            },
            {
              "internalType": "bool",
              "name": "resolved",
              "type": "bool"
            },
            {
              "internalType": "uint256",
              "name": "disputeID",
              "type": "uint256"
            },
            {
              "internalType": "uint256",
              "name": "appealCost",
              "type": "uint256"
            },
            {
              "internalType": "bool",
              "name": "appealed",
              "type": "bool"
            },
            {
              "internalType": "uint256",
              "name": "appealStart",
              "type": "uint256"
            },
            {
              "internalType": "uint256",
              "name": "appealEnd",
              "type": "uint256"
            },
            {
              "internalType": "enum GeneralizedTCR.Party",
              "name": "ruling",
              "type": "uint8"
            },
            {
              "internalType": "address",
              "name": "requester",
              "type": "address"
            },
            {
              "internalType": "address",
              "name": "challenger",
              "type": "address"
            },
            {
              "internalType": "address",
              "name": "arbitrator",
              "type": "address"
            },
            {
              "internalType": "bytes",
              "name": "arbitratorExtraData",
              "type": "bytes"
            },
            {
              "internalType": "enum GeneralizedTCR.Party",
              "name": "currentRuling",
              "type": "uint8"
            },
            {
              "internalType": "bool[3]",
              "name": "hasPaid",
              "type": "bool[3]"
            },
            {
              "internalType": "uint256",
              "name": "feeRewards",
              "type": "uint256"
            },
            {
              "internalType": "uint256",
              "name": "submissionTime",
              "type": "uint256"
            },
            {
              "internalType": "uint256[3]",
              "name": "amountPaid",
              "type": "uint256[3]"
            },
            {
              "internalType": "enum IArbitrator.DisputeStatus",
              "name": "disputeStatus",
              "type": "uint8"
            },
            {
              "internalType": "uint256",
              "name": "numberOfRequests",
              "type": "uint256"
            }
          ],
          "internalType": "struct GeneralizedTCRView.QueryResult[]",
          "name": "results",
          "type": "tuple[]"
        }
      ],
      "payable": false,
      "stateMutability": "view",
      "type": "function"
    },
    {
      "constant": true,
      "inputs": [
        {
          "internalType": "address",
          "name": "_address",
          "type": "address"
        },
        {
          "internalType": "bytes32",
          "name": "_itemID",
          "type": "bytes32"
        }
      ],
      "name": "getItem",
      "outputs": [
        {
          "components": [
            {
              "internalType": "bytes32",
              "name": "ID",
              "type": "bytes32"
            },
            {
              "internalType": "bytes",
              "name": "data",
              "type": "bytes"
            },
            {
              "internalType": "enum GeneralizedTCR.Status",
              "name": "status",
              "type": "uint8"
            },
            {
              "internalType": "bool",
              "name": "disputed",
              "type": "bool"
            },
            {
              "internalType": "bool",
              "name": "resolved",
              "type": "bool"
            },
            {
              "internalType": "uint256",
              "name": "disputeID",
              "type": "uint256"
            },
            {
              "internalType": "uint256",
              "name": "appealCost",
              "type": "uint256"
            },
            {
              "internalType": "bool",
              "name": "appealed",
              "type": "bool"
            },
            {
              "internalType": "uint256",
              "name": "appealStart",
              "type": "uint256"
            },
            {
              "internalType": "uint256",
              "name": "appealEnd",
              "type": "uint256"
            },
            {
              "internalType": "enum GeneralizedTCR.Party",
              "name": "ruling",
              "type": "uint8"
            },
            {
              "internalType": "address",
              "name": "requester",
              "type": "address"
            },
            {
              "internalType": "address",
              "name": "challenger",
              "type": "address"
            },
            {
              "internalType": "address",
              "name": "arbitrator",
              "type": "address"
            },
            {
              "internalType": "bytes",
              "name": "arbitratorExtraData",
              "type": "bytes"
            },
            {
              "internalType": "enum GeneralizedTCR.Party",
              "name": "currentRuling",
              "type": "uint8"
            },
            {
              "internalType": "bool[3]",
              "name": "hasPaid",
              "type": "bool[3]"
            },
            {
              "internalType": "uint256",
              "name": "feeRewards",
              "type": "uint256"
            },
            {
              "internalType": "uint256",
              "name": "submissionTime",
              "type": "uint256"
            },
            {
              "internalType": "uint256[3]",
              "name": "amountPaid",
              "type": "uint256[3]"
            },
            {
              "internalType": "enum IArbitrator.DisputeStatus",
              "name": "disputeStatus",
              "type": "uint8"
            },
            {
              "internalType": "uint256",
              "name": "numberOfRequests",
              "type": "uint256"
            }
          ],
          "internalType": "struct GeneralizedTCRView.QueryResult",
          "name": "result",
          "type": "tuple"
        }
      ],
      "payable": false,
      "stateMutability": "view",
      "type": "function"
    },
    {
      "constant": true,
      "inputs": [
        {
          "internalType": "address",
          "name": "_address",
          "type": "address"
        },
        {
          "internalType": "bytes32",
          "name": "_itemID",
          "type": "bytes32"
        }
      ],
      "name": "getItemData",
      "outputs": [
        {
          "components": [
            {
              "internalType": "bytes",
              "name": "data",
              "type": "bytes"
            },
            {
              "internalType": "enum GeneralizedTCR.Status",
              "name": "status",
              "type": "uint8"
            },
            {
              "internalType": "uint256",
              "name": "numberOfRequests",
              "type": "uint256"
            }
          ],
          "internalType": "struct GeneralizedTCRView.ItemData",
          "name": "item",
          "type": "tuple"
        }
      ],
      "payable": false,
      "stateMutability": "view",
      "type": "function"
    },
    {
      "constant": true,
      "inputs": [
        {
          "internalType": "address",
          "name": "_address",
          "type": "address"
        },
        {
          "internalType": "bytes32",
          "name": "_itemID",
          "type": "bytes32"
        }
      ],
      "name": "getItemRequests",
      "outputs": [
        {
          "components": [
            {
              "internalType": "bool",
              "name": "disputed",
              "type": "bool"
            },
            {
              "internalType": "uint256",
              "name": "disputeID",
              "type": "uint256"
            },
            {
              "internalType": "uint256",
              "name": "submissionTime",
              "type": "uint256"
            },
            {
              "internalType": "bool",
              "name": "resolved",
              "type": "bool"
            },
            {
              "internalType": "address",
              "name": "requester",
              "type": "address"
            },
            {
              "internalType": "address",
              "name": "challenger",
              "type": "address"
            },
            {
              "internalType": "address",
              "name": "arbitrator",
              "type": "address"
            },
            {
              "internalType": "bytes",
              "name": "arbitratorExtraData",
              "type": "bytes"
            },
            {
              "internalType": "uint256",
              "name": "metaEvidenceID",
              "type": "uint256"
            }
          ],
          "internalType": "struct GeneralizedTCRView.ItemRequest[]",
          "name": "requests",
          "type": "tuple[]"
        }
      ],
      "payable": false,
      "stateMutability": "view",
      "type": "function"
    },
    {
      "constant": true,
      "inputs": [
        {
          "internalType": "address",
          "name": "_address",
          "type": "address"
        },
        {
          "internalType": "bytes32",
          "name": "_itemID",
          "type": "bytes32"
        }
      ],
      "name": "getLatestRequestData",
      "outputs": [
        {
          "components": [
            {
              "components": [
                {
                  "internalType": "bytes",
                  "name": "data",
                  "type": "bytes"
                },
                {
                  "internalType": "enum GeneralizedTCR.Status",
                  "name": "status",
                  "type": "uint8"
                },
                {
                  "internalType": "uint256",
                  "name": "numberOfRequests",
                  "type": "uint256"
                }
              ],
              "internalType": "struct GeneralizedTCRView.ItemData",
              "name": "item",
              "type": "tuple"
            },
            {
              "internalType": "bool",
              "name": "disputed",
              "type": "bool"
            },
            {
              "internalType": "uint256",
              "name": "disputeID",
              "type": "uint256"
            },
            {
              "internalType": "uint256",
              "name": "submissionTime",
              "type": "uint256"
            },
            {
              "internalType": "bool",
              "name": "resolved",
              "type": "bool"
            },
            {
              "internalType": "address payable[3]",
              "name": "parties",
              "type": "address[3]"
            },
            {
              "internalType": "uint256",
              "name": "numberOfRounds",
              "type": "uint256"
            },
            {
              "internalType": "enum GeneralizedTCR.Party",
              "name": "ruling",
              "type": "uint8"
            },
            {
              "internalType": "contract IArbitrator",
              "name": "arbitrator",
              "type": "address"
            },
            {
              "internalType": "bytes",
              "name": "arbitratorExtraData",
              "type": "bytes"
            }
          ],
          "internalType": "struct GeneralizedTCRView.RequestData",
          "name": "request",
          "type": "tuple"
        }
      ],
      "payable": false,
      "stateMutability": "view",
      "type": "function"
    },
    {
      "constant": true,
      "inputs": [
        {
          "internalType": "address",
          "name": "_address",
          "type": "address"
        },
        {
          "internalType": "bytes32",
          "name": "_itemID",
          "type": "bytes32"
        }
      ],
      "name": "getLatestRoundRequestData",
      "outputs": [
        {
          "components": [
            {
              "components": [
                {
                  "components": [
                    {
                      "internalType": "bytes",
                      "name": "data",
                      "type": "bytes"
                    },
                    {
                      "internalType": "enum GeneralizedTCR.Status",
                      "name": "status",
                      "type": "uint8"
                    },
                    {
                      "internalType": "uint256",
                      "name": "numberOfRequests",
                      "type": "uint256"
                    }
                  ],
                  "internalType": "struct GeneralizedTCRView.ItemData",
                  "name": "item",
                  "type": "tuple"
                },
                {
                  "internalType": "bool",
                  "name": "disputed",
                  "type": "bool"
                },
                {
                  "internalType": "uint256",
                  "name": "disputeID",
                  "type": "uint256"
                },
                {
                  "internalType": "uint256",
                  "name": "submissionTime",
                  "type": "uint256"
                },
                {
                  "internalType": "bool",
                  "name": "resolved",
                  "type": "bool"
                },
                {
                  "internalType": "address payable[3]",
                  "name": "parties",
                  "type": "address[3]"
                },
                {
                  "internalType": "uint256",
                  "name": "numberOfRounds",
                  "type": "uint256"
                },
                {
                  "internalType": "enum GeneralizedTCR.Party",
                  "name": "ruling",
                  "type": "uint8"
                },
                {
                  "internalType": "contract IArbitrator",
                  "name": "arbitrator",
                  "type": "address"
                },
                {
                  "internalType": "bytes",
                  "name": "arbitratorExtraData",
                  "type": "bytes"
                }
              ],
              "internalType": "struct GeneralizedTCRView.RequestData",
              "name": "request",
              "type": "tuple"
            },
            {
              "internalType": "bool",
              "name": "appealed",
              "type": "bool"
            },
            {
              "internalType": "uint256[3]",
              "name": "amountPaid",
              "type": "uint256[3]"
            },
            {
              "internalType": "bool[3]",
              "name": "hasPaid",
              "type": "bool[3]"
            },
            {
              "internalType": "uint256",
              "name": "feeRewards",
              "type": "uint256"
            }
          ],
          "internalType": "struct GeneralizedTCRView.RoundData",
          "name": "round",
          "type": "tuple"
        }
      ],
      "payable": false,
      "stateMutability": "view",
      "type": "function"
    },
    {
      "constant": true,
      "inputs": [
        {
          "internalType": "address",
          "name": "_address",
          "type": "address"
        },
        {
          "internalType": "uint256",
          "name": "_cursorIndex",
          "type": "uint256"
        },
        {
          "internalType": "uint256",
          "name": "_count",
          "type": "uint256"
        },
        {
          "internalType": "bool[8]",
          "name": "_filter",
          "type": "bool[8]"
        },
        {
          "internalType": "bool",
          "name": "_oldestFirst",
          "type": "bool"
        },
        {
          "internalType": "address",
          "name": "_party",
          "type": "address"
        },
        {
          "internalType": "uint256",
          "name": "_limit",
          "type": "uint256"
        }
      ],
      "name": "queryItems",
      "outputs": [
        {
          "components": [
            {
              "internalType": "bytes32",
              "name": "ID",
              "type": "bytes32"
            },
            {
              "internalType": "bytes",
              "name": "data",
              "type": "bytes"
            },
            {
              "internalType": "enum GeneralizedTCR.Status",
              "name": "status",
              "type": "uint8"
            },
            {
              "internalType": "bool",
              "name": "disputed",
              "type": "bool"
            },
            {
              "internalType": "bool",
              "name": "resolved",
              "type": "bool"
            },
            {
              "internalType": "uint256",
              "name": "disputeID",
              "type": "uint256"
            },
            {
              "internalType": "uint256",
              "name": "appealCost",
              "type": "uint256"
            },
            {
              "internalType": "bool",
              "name": "appealed",
              "type": "bool"
            },
            {
              "internalType": "uint256",
              "name": "appealStart",
              "type": "uint256"
            },
            {
              "internalType": "uint256",
              "name": "appealEnd",
              "type": "uint256"
            },
            {
              "internalType": "enum GeneralizedTCR.Party",
              "name": "ruling",
              "type": "uint8"
            },
            {
              "internalType": "address",
              "name": "requester",
              "type": "address"
            },
            {
              "internalType": "address",
              "name": "challenger",
              "type": "address"
            },
            {
              "internalType": "address",
              "name": "arbitrator",
              "type": "address"
            },
            {
              "internalType": "bytes",
              "name": "arbitratorExtraData",
              "type": "bytes"
            },
            {
              "internalType": "enum GeneralizedTCR.Party",
              "name": "currentRuling",
              "type": "uint8"
            },
            {
              "internalType": "bool[3]",
              "name": "hasPaid",
              "type": "bool[3]"
            },
            {
              "internalType": "uint256",
              "name": "feeRewards",
              "type": "uint256"
            },
            {
              "internalType": "uint256",
              "name": "submissionTime",
              "type": "uint256"
            },
            {
              "internalType": "uint256[3]",
              "name": "amountPaid",
              "type": "uint256[3]"
            },
            {
              "internalType": "enum IArbitrator.DisputeStatus",
              "name": "disputeStatus",
              "type": "uint8"
            },
            {
              "internalType": "uint256",
              "name": "numberOfRequests",
              "type": "uint256"
            }
          ],
          "internalType": "struct GeneralizedTCRView.QueryResult[]",
          "name": "results",
          "type": "tuple[]"
        },
        {
          "internalType": "bool",
          "name": "hasMore",
          "type": "bool"
        }
      ],
      "payable": false,
      "stateMutability": "view",
      "type": "function"
    }
  ],
  "transactionHash": "0xc407e8e1a287f3e19026a0019136ff6fcb2a81ea35a267d9d2bc392302757386",
  "args": [],
  "numDeployments": 1,
  "solcInputHash": "8e68fa05bce2d1098c0738035c7962ed",
  "bytecode": "0x608060405234801561001057600080fd5b506144c7806100206000396000f3fe608060405234801561001057600080fd5b50600436106100a95760003560e01c80635aca806a116100715780635aca806a1461015b5780637d1d8cc21461017b57806387ef093a1461019b5780639532dece146101bb578063cefded2e146101dc578063f2af2989146101fc576100a9565b80630f4d1e73146100ae57806311b750c3146100d75780631d77211b146100f75780632137f6b5146101195780633f8694791461013b575b600080fd5b6100c16100bc36600461340f565b61021c565b6040516100ce919061422b565b60405180910390f35b6100ea6100e53660046134b6565b610908565b6040516100ce919061426f565b61010a6101053660046135f6565b6109ff565b6040516100ce939291906142a8565b61012c610127366004613453565b610dad565b6040516100ce93929190614280565b61014e6101493660046134b6565b61150a565b6040516100ce919061424d565b61016e61016936600461353d565b61199c565b6040516100ce9190614163565b61018e6101893660046134b6565b611c79565b6040516100ce919061425e565b6101ae6101a93660046134b6565b611db5565b6040516100ce9190614152565b6101ce6101c936600461366d565b611f98565b6040516100ce929190614174565b6101ef6101ea3660046134b6565b61258b565b6040516100ce919061423c565b61020f61020a3660046134f0565b612653565b6040516100ce9190614194565b610224612e46565b6000829050806001600160a01b0316630c340a246040518163ffffffff1660e01b815260040160206040518083038186803b15801561026257600080fd5b505afa158015610276573d6000803e3d6000fd5b505050506040513d601f19601f8201168201806040525061029a9190810190613435565b6001600160a01b03908116835260408051636cc6cde160e01b8152905191831691636cc6cde191600480820192602092909190829003018186803b1580156102e157600080fd5b505afa1580156102f5573d6000803e3d6000fd5b505050506040513d601f19601f82011682018060405250610319919081019061393f565b82602001906001600160a01b031690816001600160a01b031681525050806001600160a01b0316630c7ac7b66040518163ffffffff1660e01b815260040160006040518083038186803b15801561036f57600080fd5b505afa158015610383573d6000803e3d6000fd5b505050506040513d6000823e601f3d908101601f191682016040526103ab91908101906138b0565b8260400181905250806001600160a01b031663bb0b86ff6040518163ffffffff1660e01b815260040160206040518083038186803b1580156103ec57600080fd5b505afa158015610400573d6000803e3d6000fd5b505050506040513d601f19601f820116820180604052506104249190810190613892565b826060018181525050806001600160a01b031663c2f2beea6040518163ffffffff1660e01b815260040160206040518083038186803b15801561046657600080fd5b505afa15801561047a573d6000803e3d6000fd5b505050506040513d601f19601f8201168201806040525061049e9190810190613892565b826080018181525050806001600160a01b031663a37b6ad46040518163ffffffff1660e01b815260040160206040518083038186803b1580156104e057600080fd5b505afa1580156104f4573d6000803e3d6000fd5b505050506040513d601f19601f820116820180604052506105189190810190613892565b8260a0018181525050806001600160a01b031663787471a96040518163ffffffff1660e01b815260040160206040518083038186803b15801561055a57600080fd5b505afa15801561056e573d6000803e3d6000fd5b505050506040513d601f19601f820116820180604052506105929190810190613892565b8260c0018181525050806001600160a01b03166282a36d6040518163ffffffff1660e01b815260040160206040518083038186803b1580156105d357600080fd5b505afa1580156105e7573d6000803e3d6000fd5b505050506040513d601f19601f8201168201806040525061060b9190810190613892565b8260e0018181525050806001600160a01b0316636cdc090f6040518163ffffffff1660e01b815260040160206040518083038186803b15801561064d57600080fd5b505afa158015610661573d6000803e3d6000fd5b505050506040513d601f19601f820116820180604052506106859190810190613892565b82610100018181525050806001600160a01b0316637b9433836040518163ffffffff1660e01b815260040160206040518083038186803b1580156106c857600080fd5b505afa1580156106dc573d6000803e3d6000fd5b505050506040513d601f19601f820116820180604052506107009190810190613892565b82610120018181525050806001600160a01b0316631d5120856040518163ffffffff1660e01b815260040160206040518083038186803b15801561074357600080fd5b505afa158015610757573d6000803e3d6000fd5b505050506040513d601f19601f8201168201806040525061077b9190810190613892565b82610140018181525050806001600160a01b031663416583416040518163ffffffff1660e01b815260040160206040518083038186803b1580156107be57600080fd5b505afa1580156107d2573d6000803e3d6000fd5b505050506040513d601f19601f820116820180604052506107f69190810190613892565b82610160018181525050806001600160a01b031663d661dd316040518163ffffffff1660e01b815260040160206040518083038186803b15801561083957600080fd5b505afa15801561084d573d6000803e3d6000fd5b505050506040513d601f19601f820116820180604052506108719190810190613892565b6101808301526020820151604080840151905163f7434ea960e01b81526001600160a01b039092169163f7434ea9916108ac9160040161421a565b60206040518083038186803b1580156108c457600080fd5b505afa1580156108d8573d6000803e3d6000fd5b505050506040513d601f19601f820116820180604052506108fc9190810190613892565b6101a083015250919050565b610910612ec7565b82610919612f08565b6109238585611c79565b9050600061092f612f72565b610937612f72565b6000856001600160a01b031663974121b28960018860000151604001510360018960c00151036040518463ffffffff1660e01b815260040161097b939291906141bd565b6101006040518083038186803b15801561099457600080fd5b505afa1580156109a8573d6000803e3d6000fd5b505050506040513d601f19601f820116820180604052506109cc9190810190613749565b6040805160a081018252998a5293151560208a015292880191909152606087015260808601525092979650505050505050565b600080600080889050806001600160a01b0316636bfb0d016040518163ffffffff1660e01b815260040160206040518083038186803b158015610a4157600080fd5b505afa158015610a55573d6000803e3d6000fd5b505050506040513d601f19601f82011682018060405250610a799190810190613892565b610a8d575060009250829150819050610da2565b6000885b888211158015610b105750826001600160a01b0316636bfb0d016040518163ffffffff1660e01b815260040160206040518083038186803b158015610ad557600080fd5b505afa158015610ae9573d6000803e3d6000fd5b505050506040513d601f19601f82011682018060405250610b0d9190810190613892565b81105b15610d9e57604051621ea69b60e91b81526000906001600160a01b03851690633d4d360090610b43908590600401614194565b60206040518083038186803b158015610b5b57600080fd5b505afa158015610b6f573d6000803e3d6000fd5b505050506040513d601f19601f82011682018060405250610b939190810190613892565b9050610b9d612f90565b610ba78d8361150a565b9050610bb660208b018b61372b565b8015610bd15750600081604001516003811115610bcf57fe5b145b80610c025750610be760408b0160208c0161372b565b8015610c025750600181604001516003811115610c0057fe5b145b80610c415750610c1860608b0160408c0161372b565b8015610c335750600281604001516003811115610c3157fe5b145b8015610c4157508060600151155b80610c805750610c5760808b0160608c0161372b565b8015610c725750600381604001516003811115610c7057fe5b145b8015610c8057508060600151155b80610cbe5750610c9660a08b0160808c0161372b565b8015610cb15750600281604001516003811115610caf57fe5b145b8015610cbe575080606001515b80610cfc5750610cd460c08b0160a08c0161372b565b8015610cef5750600381604001516003811115610ced57fe5b145b8015610cfc575080606001515b80610d345750610d1260e08b0160c08c0161372b565b8015610d345750886001600160a01b03168161016001516001600160a01b0316145b80610d6d5750610d4b6101008b0160e08c0161372b565b8015610d6d5750886001600160a01b03168161018001516001600160a01b0316145b15610d90576001909701968a8410610d90575060019550909350610da292505050565b505060019182019101610a91565b5050505b955095509592505050565b600080808681876002602002013590506000600190506000809050836001600160a01b0316636bfb0d016040518163ffffffff1660e01b815260040160206040518083038186803b158015610e0157600080fd5b505afa158015610e15573d6000803e3d6000fd5b505050506040513d601f19601f82011682018060405250610e399190810190613892565b610e525750600095508594506001935061150092505050565b6000610e666101208b016101008c0161372b565b610ef85760608b013515610e7e5760608b0135610ef3565b6001856001600160a01b0316636bfb0d016040518163ffffffff1660e01b815260040160206040518083038186803b158015610eb957600080fd5b505afa158015610ecd573d6000803e3d6000fd5b505050506040513d601f19601f82011682018060405250610ef19190810190613892565b035b610efe565b60608b01355b90505b610f136101208b016101008c0161372b565b610f205760008411610f9f565b846001600160a01b0316636bfb0d016040518163ffffffff1660e01b815260040160206040518083038186803b158015610f5957600080fd5b505afa158015610f6d573d6000803e3d6000fd5b505050506040513d601f19601f82011682018060405250610f919190810190613892565b81108015610f9f5750600084115b156114be57604051621ea69b60e91b81526000906001600160a01b03871690633d4d360090610fd2908590600401614194565b60206040518083038186803b158015610fea57600080fd5b505afa158015610ffe573d6000803e3d6000fd5b505050506040513d601f19601f820116820180604052506110229190810190613892565b905061102c612f90565b6110368e8361150a565b60019950905061104960208d018d61372b565b8015611064575060008160400151600381111561106257fe5b145b80611095575061107a60408d0160208e0161372b565b8015611095575060018160400151600381111561109357fe5b145b806110d457506110ab60608d0160408e0161372b565b80156110c657506002816040015160038111156110c457fe5b145b80156110d457508060600151155b8061111357506110ea60808d0160608e0161372b565b8015611105575060038160400151600381111561110357fe5b145b801561111357508060600151155b80611151575061112960a08d0160808e0161372b565b8015611144575060028160400151600381111561114257fe5b145b8015611151575080606001515b8061118f575061116760c08d0160a08e0161372b565b8015611182575060038160400151600381111561118057fe5b145b801561118f575080606001515b806111c757506111a560e08d0160c08e0161372b565b80156111c757508a6001600160a01b03168161016001516001600160a01b0316145b8061120057506111de6101008d0160e08e0161372b565b801561120057508a6001600160a01b03168161018001516001600160a01b0316145b15611321576001939093019260208d0135848161121957fe5b0661132157600194909401938c35851415611321578215801561124b57506112496101208d016101008e0161372b565b155b806112e057506001876001600160a01b0316636bfb0d016040518163ffffffff1660e01b815260040160206040518083038186803b15801561128c57600080fd5b505afa1580156112a0573d6000803e3d6000fd5b505050506040513d601f19601f820116820180604052506112c49190810190613892565b03831480156112e057506112e06101208d016101008e0161372b565b156112ea57600098505b6112fc6101208d016101008e0161372b565b611309576001830361130e565b826001015b9950600197506115009650505050505050565b6000199095019485158061134d57508215801561134d575061134b6101208d016101008e0161372b565b155b806113e257506001876001600160a01b0316636bfb0d016040518163ffffffff1660e01b815260040160206040518083038186803b15801561138e57600080fd5b505afa1580156113a2573d6000803e3d6000fd5b505050506040513d601f19601f820116820180604052506113c69190810190613892565b03831480156113e257506113e26101208d016101008e0161372b565b15611483576113f96101208d016101008e0161372b565b611406576000831161147a565b866001600160a01b0316636bfb0d016040518163ffffffff1660e01b815260040160206040518083038186803b15801561143f57600080fd5b505afa158015611453573d6000803e3d6000fd5b505050506040513d601f19601f820116820180604052506114779190810190613892565b83105b985050506114be565b6114956101208d016101008e0161372b565b6114b05782156114a857600183036114ab565b60005b6114b5565b826001015b92505050610f01565b6114d06101208b016101008c0161372b565b80156114e9575060608b013580820160208d0135909101115b156114f5575060608a01355b965060009450505050505b9450945094915050565b611512612f90565b61151a612ec7565b6115248484610908565b604080516102c0810182528581528251515160208083019190915283515101519293509190820190600381111561155757fe5b815260200182600001516020015115158152602001826000015160800151151581526020018260000151604001518152602001600081526020018260200151151581526020016000815260200160008152602001826000015160e0015160028111156115bf57fe5b8152825160a0908101516020908101516001600160a01b031690830152835101516040909101906002602090810291909101516001600160a01b0390811683528451610100015116908201528251610120015160408201526060016000815260200182606001518152602001826080015181526020018260000151606001518152602001826040015181526020016000600281111561165a57fe5b81528251516040015160209182015282510151909250801561170d575060018151610100015160a084015160405163021e2d3d60e31b81526001600160a01b03909216916310f169e8916116b091600401614194565b60206040518083038186803b1580156116c857600080fd5b505afa1580156116dc573d6000803e3d6000fd5b505050506040513d601f19601f82011682018060405250611700919081019061395d565b600281111561170b57fe5b145b15611995578051610100015160a0830151604051631c3db16d60e01b81526001600160a01b0390921691631c3db16d9161174991600401614194565b60206040518083038186803b15801561176157600080fd5b505afa158015611775573d6000803e3d6000fd5b505050506040513d601f19601f820116820180604052506117999190810190613892565b60028111156117a457fe5b826101e0019060028111156117b557fe5b908160028111156117c257fe5b9052508051610100015160a083015160405163021e2d3d60e31b81526001600160a01b03909216916310f169e8916117fc91600401614194565b60206040518083038186803b15801561181457600080fd5b505afa158015611828573d6000803e3d6000fd5b505050506040513d601f19601f8201168201806040525061184c919081019061395d565b826102800190600281111561185d57fe5b9081600281111561186a57fe5b9052508051610100015160a083015160405163afe15cfb60e01b81526001600160a01b039092169163afe15cfb916118a491600401614194565b604080518083038186803b1580156118bb57600080fd5b505afa1580156118cf573d6000803e3d6000fd5b505050506040513d601f19601f820116820180604052506118f3919081019061397b565b610120840152610100808401919091528151015160a08301516101c084015160405163791f8b7360e11b81526001600160a01b039093169263f23f16e69261193f9290916004016142c3565b60206040518083038186803b15801561195757600080fd5b505afa15801561196b573d6000803e3d6000fd5b505050506040513d601f19601f8201168201806040525061198f9190810190613892565b60c08301525b5092915050565b606086816119b16119ac89612a7f565b612aa5565b905085156119bf5785611a30565b816001600160a01b0316636bfb0d016040518163ffffffff1660e01b815260040160206040518083038186803b1580156119f857600080fd5b505afa158015611a0c573d6000803e3d6000fd5b505050506040513d601f19601f82011682018060405250611a309190810190613892565b604051908082528060200260200182016040528015611a6957816020015b611a56612f90565b815260200190600190039081611a4e5790505b5092506000875b8715611a7c5787611aed565b836001600160a01b0316636bfb0d016040518163ffffffff1660e01b815260040160206040518083038186803b158015611ab557600080fd5b505afa158015611ac9573d6000803e3d6000fd5b505050506040513d601f19601f82011682018060405250611aed9190810190613892565b811015611c6b57611afc612f90565b611b7c8c866001600160a01b0316633d4d3600856040518263ffffffff1660e01b8152600401611b2c9190614194565b60206040518083038186803b158015611b4457600080fd5b505afa158015611b58573d6000803e3d6000fd5b505050506040513d601f19601f820116820180604052506101499190810190613892565b90508781604001516003811115611b8f57fe5b60048110611b9957fe5b602002015115611ba95750611c63565b6060611bbb6119ac8360200151612a7f565b9050600160005b8651811015611c3957898181518110611bd757fe5b6020026020010151158015611c235750611c21611c06888381518110611bf957fe5b6020026020010151612b76565b611c15858481518110611bf957fe5b9063ffffffff612bdc16565b155b15611c315760009150611c39565b600101611bc2565b508015611c5f5782888681518110611c4d57fe5b60209081029190910101526001909401935b5050505b600101611a70565b505050509695505050505050565b611c81612f08565b82611c8a61304b565b611c94858561258b565b9050600080600080611ca4612f72565b600080600060608a6001600160a01b031663bfbcff1a8e60018d60400151036040518363ffffffff1660e01b8152600401611ce09291906141a2565b60006040518083038186803b158015611cf857600080fd5b505afa158015611d0c573d6000803e3d6000fd5b505050506040513d6000823e601f3d908101601f19168201604052611d34919081019061379f565b509850985098509850985098509850985098506040518061014001604052808b81526020018a151581526020018981526020018881526020018715158152602001868152602001858152602001846002811115611d8d57fe5b81526001600160a01b0390931660208401526040909201529c9b505050505050505050505050565b606082611dc061304b565b611dca858561258b565b90508060400151604051908082528060200260200182016040528015611e0a57816020015b611df7613065565b815260200190600190039081611def5790505b50925060005b8160400151811015611f8f57600080600080611e2a612f72565b6000606060008a6001600160a01b031663bfbcff1a8e8b6040518363ffffffff1660e01b8152600401611e5e9291906141a2565b60006040518083038186803b158015611e7657600080fd5b505afa158015611e8a573d6000803e3d6000fd5b505050506040513d6000823e601f3d908101601f19168201604052611eb2919081019061379f565b995099509950505097509750975097509750604051806101200160405280891515815260200188815260200187815260200186151581526020018560016002811115611efa57fe5b60038110611f0457fe5b60200201516001600160a01b0316815260200185600280811115611f2457fe5b60038110611f2e57fe5b60200201516001600160a01b03168152602001846001600160a01b03168152602001838152602001828152508c60018b8d60400151030381518110611f6f57fe5b602002602001018190525050505050505050508080600101915050611e10565b50505092915050565b606060008089905087604051908082528060200260200182016040528015611fda57816020015b611fc7612f90565b815260200190600190039081611fbf5790505b50925060008885611fe9578095505b826001600160a01b0316636bfb0d016040518163ffffffff1660e01b815260040160206040518083038186803b15801561202257600080fd5b505afa158015612036573d6000803e3d6000fd5b505050506040513d601f19601f8201168201806040525061205a9190810190613892565b61206b57506000925061257f915050565b6000886120f8578b1561207e578b6120f3565b6001846001600160a01b0316636bfb0d016040518163ffffffff1660e01b815260040160206040518083038186803b1580156120b957600080fd5b505afa1580156120cd573d6000803e3d6000fd5b505050506040513d601f19601f820116820180604052506120f19190810190613892565b035b6120fa565b8b5b90505b8861210b576000821161218a565b836001600160a01b0316636bfb0d016040518163ffffffff1660e01b815260040160206040518083038186803b15801561214457600080fd5b505afa158015612158573d6000803e3d6000fd5b505050506040513d601f19601f8201168201806040525061217c9190810190613892565b8110801561218a5750600082115b1561257a57604051621ea69b60e91b81526000906001600160a01b03861690633d4d3600906121bd908590600401614194565b60206040518083038186803b1580156121d557600080fd5b505afa1580156121e9573d6000803e3d6000fd5b505050506040513d601f19601f8201168201806040525061220d9190810190613892565b9050612217612f90565b6122218f8361150a565b60019750905061223460208d018d61372b565b801561224f575060008160400151600381111561224d57fe5b145b80612280575061226560408d0160208e0161372b565b8015612280575060018160400151600381111561227e57fe5b145b806122bf575061229660608d0160408e0161372b565b80156122b157506002816040015160038111156122af57fe5b145b80156122bf57508060600151155b806122fe57506122d560808d0160608e0161372b565b80156122f057506003816040015160038111156122ee57fe5b145b80156122fe57508060600151155b8061233c575061231460a08d0160808e0161372b565b801561232f575060028160400151600381111561232d57fe5b145b801561233c575080606001515b8061237a575061235260c08d0160a08e0161372b565b801561236d575060038160400151600381111561236b57fe5b145b801561237a575080606001515b806123b2575061239060e08d0160c08e0161372b565b80156123b25750896001600160a01b03168161016001516001600160a01b0316145b806123eb57506123c96101008d0160e08e0161372b565b80156123eb5750896001600160a01b03168161018001516001600160a01b0316145b1561241d57808886815181106123fd57fe5b60209081029190910101526001909401938885141561241d57505061257a565b6000199093019283158061243857508215801561243857508a155b806124bd57506001866001600160a01b0316636bfb0d016040518163ffffffff1660e01b815260040160206040518083038186803b15801561247957600080fd5b505afa15801561248d573d6000803e3d6000fd5b505050506040513d601f19601f820116820180604052506124b19190810190613892565b03831480156124bd57508a5b15612550578a6124d05760008311612547565b6001866001600160a01b0316636bfb0d016040518163ffffffff1660e01b815260040160206040518083038186803b15801561250b57600080fd5b505afa15801561251f573d6000803e3d6000fd5b505050506040513d601f19601f820116820180604052506125439190810190613892565b0383105b9650505061257a565b8a61256c5782156125645760018303612567565b60005b612571565b826001015b925050506120fd565b505050505b97509795505050505050565b61259361304b565b604051634aac84e560e01b8152839060609060009081906001600160a01b03851690634aac84e5906125c9908990600401614194565b60006040518083038186803b1580156125e157600080fd5b505afa1580156125f5573d6000803e3d6000fd5b505050506040513d6000823e601f3d908101601f1916820160405261261d91908101906138e5565b925092509250604051806060016040528084815260200183600381111561264057fe5b8152602001919091529695505050505050565b60008361265e6130b0565b50604080518082019091526000808252602082015261267b6130b0565b50604080518082018252600080825260208201529051634aac84e560e01b81526001600160a01b03841690634aac84e5906126ba908990600401614194565b60006040518083038186803b1580156126d257600080fd5b505afa1580156126e6573d6000803e3d6000fd5b505050506040513d6000823e601f3d908101601f1916820160405261270e91908101906138e5565b845250505b815181511015612a75578051604051635fde7f8d60e11b815260009182916001600160a01b0387169163bfbcff1a91612750918c916004016141a2565b60006040518083038186803b15801561276857600080fd5b505afa15801561277c573d6000803e3d6000fd5b505050506040513d6000823e601f3d908101601f191682016040526127a4919081019061379f565b509497509195509350899250600191506127bb9050565b602002019190915292509050806127d3575050612a69565b602080850151908401511015612a5f576127eb612f72565b6127f3612f72565b60006001600160a01b03881663974121b28c8884602002015189600160200201516040518463ffffffff1660e01b8152600401612832939291906141bd565b6101006040518083038186803b15801561284b57600080fd5b505afa15801561285f573d6000803e3d6000fd5b505050506040513d601f19601f820116820180604052506128839190810190613749565b93509350935050612892612f72565b6001600160a01b0389166352bc0e608d89600060200201518a600160200201518f6040518563ffffffff1660e01b81526004016128d294939291906141e5565b60606040518083038186803b1580156128ea57600080fd5b505afa1580156128fe573d6000803e3d6000fd5b505050506040513d601f19601f82011682018060405250612922919081019061370d565b6020840151909150158061293857506040830151155b156129525760408101516020820151019990990198612a3e565b600086600281111561296057fe5b14156129cc576020840151612976576000612993565b60208085015160408601519183015191019083028161299157fe5b045b60408501519a01996129a65760006129c3565b6020840151604080860151908301519101908302816129c157fe5b045b8a019950612a3e565b6000848760028111156129db57fe5b600381106129e557fe5b6020020151116129f6576000612a39565b83866002811115612a0357fe5b60038110612a0d57fe5b60200201518282886002811115612a2057fe5b60038110612a2a57fe5b60200201510281612a3757fe5b045b8a0199505b5050505082600160028110612a4f57fe5b60200201805160010190526127d3565b5050600060208201525b80516001018152612713565b5050509392505050565b612a876130ce565b5060408051808201909152815181526020828101908201525b919050565b6060612ab082612c42565b612ab957600080fd5b6000612ac483612c7c565b9050606081604051908082528060200260200182016040528015612b0257816020015b612aef6130ce565b815260200190600190039081612ae75790505b5090506000612b148560200151612cd8565b60208601510190506000805b84811015612b6b57612b3183612d3b565b9150604051806040016040528083815260200184815250848281518110612b5457fe5b602090810291909101015291810191600101612b20565b509195945050505050565b8051606090612b8457600080fd5b600080612b9084612dcf565b915091506060816040519080825280601f01601f191660200182016040528015612bc1576020820181803883390190505b50905060208101612bd3848285612df5565b50949350505050565b815181516000916001918114808314612bf85760009250612c36565b600160208701838101602088015b600284838510011415612c31578051835114612c255760009650600093505b60209283019201612c06565b505050505b50909150505b92915050565b8051600090612c5357506000612aa0565b6020820151805160001a9060c0821015612c7257600092505050612aa0565b5060019392505050565b8051600090612c8d57506000612aa0565b60008090506000612ca18460200151612cd8565b602085015185519181019250015b80821015612ccf57612cc082612d3b565b60019093019290910190612caf565b50909392505050565b8051600090811a6080811015612cf2576000915050612aa0565b60b8811080612d0d575060c08110801590612d0d575060f881105b15612d1c576001915050612aa0565b60c0811015612d305760b519019050612aa0565b60f519019050612aa0565b80516000908190811a6080811015612d565760019150611995565b60b8811015612d6b57607e1981019150611995565b60c0811015612d985760b78103600185019450806020036101000a85510460018201810193505050611995565b60f8811015612dad5760be1981019150611995565b60019390930151602084900360f7016101000a900490920160f5190192915050565b6000806000612de18460200151612cd8565b602085015194519481019594039392505050565b80612dff57612e41565b5b60208110612e1f578251825260209283019290910190601f1901612e00565b8015612e41578251825160208390036101000a60001901801990921691161782525b505050565b604051806101c0016040528060006001600160a01b0316815260200160006001600160a01b031681526020016060815260200160008152602001600081526020016000815260200160008152602001600081526020016000815260200160008152602001600081526020016000815260200160008152602001600081525090565b6040518060a00160405280612eda612f08565b815260006020820152604001612eee612f72565b8152602001612efb612f72565b8152602001600081525090565b604051806101400160405280612f1c61304b565b81526000602082018190526040820181905260608201819052608082015260a001612f45612f72565b81526020016000815260200160006002811115612f5e57fe5b815260006020820152606060409091015290565b60405180606001604052806003906020820280388339509192915050565b604080516102c081018252600080825260606020830152909182019081526020016000151581526020016000151581526020016000815260200160008152602001600015158152602001600081526020016000815260200160006002811115612ff557fe5b8152600060208201819052604082018190526060808301829052608083015260a082015260c001613024612f72565b8152602001600081526020016000815260200161303f612f72565b81526020016000612efb565b604080516060808201909252908152602081016000612efb565b604080516101208101825260008082526020820181905291810182905260608082018390526080820183905260a0820183905260c0820183905260e082015261010081019190915290565b60405180604001604052806002906020820280388339509192915050565b604051806040016040528060008152602001600081525090565b8035612c3c8161443b565b8051612c3c8161443b565b600082601f83011261310f57600080fd5b600361312261311d8261430a565b6142e3565b9150818385602084028201111561313857600080fd5b60005b83811015613164578161314e88826130f3565b845250602092830192919091019060010161313b565b5050505092915050565b600082601f83011261317f57600080fd5b600361318d61311d8261430a565b915081838560208402820111156131a357600080fd5b60005b8381101561316457816131b98882613341565b84525060209283019291909101906001016131a6565b600082601f8301126131e057600080fd5b60046131ee61311d8261430a565b9150818385602084028201111561320457600080fd5b60005b83811015613164578161321a8882613336565b8452506020928301929190910190600101613207565b806101008101831015612c3c57600080fd5b806101208101831015612c3c57600080fd5b600082601f83011261326557600080fd5b813561327361311d82614328565b9150818183526020840193506020810190508385602084028201111561329857600080fd5b60005b8381101561316457816132ae8882613336565b845250602092830192919091019060010161329b565b600082601f8301126132d557600080fd5b60036132e361311d8261430a565b915081838560208402820111156132f957600080fd5b60005b83811015613164578161330f8882613357565b84525060209283019291909101906001016132fc565b8060808101831015612c3c57600080fd5b8035612c3c8161444f565b8051612c3c8161444f565b8035612c3c81614458565b8051612c3c81614458565b600082601f83011261337357600080fd5b815161338161311d82614349565b9150808252602083016020830185838301111561339d57600080fd5b611f8f8382846143ea565b600082601f8301126133b957600080fd5b81356133c761311d82614349565b915080825260208301602083018583830111156133e357600080fd5b611f8f8382846143de565b8051612c3c81614461565b8051612c3c8161446a565b8051612c3c81614477565b60006020828403121561342157600080fd5b600061342d84846130e8565b949350505050565b60006020828403121561344757600080fd5b600061342d84846130f3565b6000806000806101e0858703121561346a57600080fd5b600061347687876130e8565b945050602061348787828801613325565b93505060a061349887828801613242565b9250506101c06134aa878288016130e8565b91505092959194509250565b600080604083850312156134c957600080fd5b60006134d585856130e8565b92505060206134e68582860161334c565b9150509250929050565b60008060006060848603121561350557600080fd5b600061351186866130e8565b93505060206135228682870161334c565b9250506040613533868287016130e8565b9150509250925092565b600080600080600080610120878903121561355757600080fd5b600061356389896130e8565b965050602087013567ffffffffffffffff81111561358057600080fd5b61358c89828a016133a8565b955050604061359d89828a0161334c565b94505060606135ae89828a0161334c565b93505060806135bf89828a016131cf565b92505061010087013567ffffffffffffffff8111156135dd57600080fd5b6135e989828a01613254565b9150509295509295509295565b6000806000806000610180868803121561360f57600080fd5b600061361b88886130e8565b955050602061362c8882890161334c565b945050604061363d8882890161334c565b935050606061364e88828901613230565b925050610160613660888289016130e8565b9150509295509295909350565b60008060008060008060006101c0888a03121561368957600080fd5b60006136958a8a6130e8565b97505060206136a68a828b0161334c565b96505060406136b78a828b0161334c565b95505060606136c88a828b01613230565b9450506101606136da8a828b01613336565b9350506101806136ec8a828b016130e8565b9250506101a06136fe8a828b0161334c565b91505092959891949750929550565b60006060828403121561371f57600080fd5b600061342d84846132c4565b60006020828403121561373d57600080fd5b600061342d8484613336565b600080600080610100858703121561376057600080fd5b600061376c8787613341565b945050602061377d878288016132c4565b935050608061378e8782880161316e565b92505060e06134aa87828801613357565b6000806000806000806000806000806101808b8d0312156137bf57600080fd5b60006137cb8d8d613341565b9a505060206137dc8d828e01613357565b99505060406137ed8d828e01613357565b98505060606137fe8d828e01613341565b975050608061380f8d828e016130fe565b96505060e06138208d828e01613357565b9550506101006138328d828e016133f9565b9450506101206138448d828e016133ee565b9350506101408b015167ffffffffffffffff81111561386257600080fd5b61386e8d828e01613362565b9250506101606138808d828e01613357565b9150509295989b9194979a5092959850565b6000602082840312156138a457600080fd5b600061342d8484613357565b6000602082840312156138c257600080fd5b815167ffffffffffffffff8111156138d957600080fd5b61342d84828501613362565b6000806000606084860312156138fa57600080fd5b835167ffffffffffffffff81111561391157600080fd5b61391d86828701613362565b935050602061392e86828701613404565b925050604061353386828701613357565b60006020828403121561395157600080fd5b600061342d84846133ee565b60006020828403121561396f57600080fd5b600061342d84846133f9565b6000806040838503121561398e57600080fd5b600061399a8585613357565b92505060206134e685828601613357565b60006139b783836139f6565b505060200190565b60006139b78383613bc0565b60006139d78383613d8c565b9392505050565b60006139d78383613e42565b60006139b78383613bc9565b6139ff8161438d565b82525050565b613a0e8161437a565b613a188184612aa0565b9250613a2382614371565b8060005b83811015613a51578151613a3b87826139ab565b9650613a4683614374565b925050600101613a27565b505050505050565b613a628161437a565b613a6c8184612aa0565b9250613a7782614371565b8060005b83811015613a51578151613a8f87826139bf565b9650613a9a83614374565b925050600101613a7b565b6000613ab082614380565b613aba8185614384565b935083602082028501613acc85614374565b8060005b85811015613b065784840389528151613ae985826139cb565b9450613af483614374565b60209a909a0199925050600101613ad0565b5091979650505050505050565b6000613b1e82614380565b613b288185614384565b935083602082028501613b3a85614374565b8060005b85811015613b065784840389528151613b5785826139de565b9450613b6283614374565b60209a909a0199925050600101613b3e565b613b7d8161437a565b613b878184612aa0565b9250613b9282614371565b8060005b83811015613a51578151613baa87826139ea565b9650613bb583614374565b925050600101613b96565b6139ff81614398565b6139ff81614371565b6000613bdd82614380565b613be78185614384565b9350613bf78185602086016143ea565b613c008161441a565b9093019392505050565b6139ff8161439d565b6139ff816143c8565b6139ff816143d3565b80516000906101c0840190613c3a85826139f6565b506020830151613c4d60208601826139f6565b5060408301518482036040860152613c658282613bd2565b9150506060830151613c7a6060860182613bc9565b506080830151613c8d6080860182613bc9565b5060a0830151613ca060a0860182613bc9565b5060c0830151613cb360c0860182613bc9565b5060e0830151613cc660e0860182613bc9565b50610100830151613cdb610100860182613bc9565b50610120830151613cf0610120860182613bc9565b50610140830151613d05610140860182613bc9565b50610160830151613d1a610160860182613bc9565b50610180830151613d2f610180860182613bc9565b506101a0830151613d446101a0860182613bc9565b509392505050565b8051606080845260009190840190613d648282613bd2565b9150506020830151613d796020860182613c1c565b506040830151613d446040860182613bc9565b8051600090610120840190613da18582613bc0565b506020830151613db46020860182613bc9565b506040830151613dc76040860182613bc9565b506060830151613dda6060860182613bc0565b506080830151613ded60808601826139f6565b5060a0830151613e0060a08601826139f6565b5060c0830151613e1360c08601826139f6565b5060e083015184820360e0860152613e2b8282613bd2565b915050610100830151613d44610100860182613bc9565b8051600090610340840190613e578582613bc9565b5060208301518482036020860152613e6f8282613bd2565b9150506040830151613e846040860182613c1c565b506060830151613e976060860182613bc0565b506080830151613eaa6080860182613bc0565b5060a0830151613ebd60a0860182613bc9565b5060c0830151613ed060c0860182613bc9565b5060e0830151613ee360e0860182613bc0565b50610100830151613ef8610100860182613bc9565b50610120830151613f0d610120860182613bc9565b50610140830151613f22610140860182613c13565b50610160830151613f376101608601826139f6565b50610180830151613f4c6101808601826139f6565b506101a0830151613f616101a08601826139f6565b506101c08301518482036101c0860152613f7b8282613bd2565b9150506101e0830151613f926101e0860182613c13565b50610200830151613fa7610200860182613a59565b50610220830151613fbc610260860182613bc9565b50610240830151613fd1610280860182613bc9565b50610260830151613fe66102a0860182613b74565b50610280830151613ffb610300860182613c13565b506102a0830151613d44610320860182613bc9565b8051610180808452600091908401906140298282613d4c565b915050602083015161403e6020860182613bc0565b5060408301516140516040860182613bc9565b5060608301516140646060860182613bc9565b5060808301516140776080860182613bc0565b5060a083015161408a60a0860182613a05565b5060c083015161409e610100860182613bc9565b5060e08301516140b2610120860182613c13565b506101008301516140c7610140860182613c0a565b506101208301518482036101608601526140e18282613bd2565b95945050505050565b8051610120808452600091908401906141038282614010565b91505060208301516141186020860182613bc0565b50604083015161412b6040860182613b74565b50606083015161413e60a0860182613a59565b506080830151613d44610100860182613bc9565b602080825281016139d78184613aa5565b602080825281016139d78184613b13565b604080825281016141858185613b13565b90506139d76020830184613bc0565b60208101612c3c8284613bc9565b604081016141b08285613bc9565b6139d76020830184613bc9565b606081016141cb8286613bc9565b6141d86020830185613bc9565b61342d6040830184613bc9565b608081016141f38287613bc9565b6142006020830186613bc9565b61420d6040830185613bc9565b6140e160608301846139f6565b602080825281016139d78184613bd2565b602080825281016139d78184613c25565b602080825281016139d78184613d4c565b602080825281016139d78184613e42565b602080825281016139d78184614010565b602080825281016139d781846140ea565b6060810161428e8286613bc9565b61429b6020830185613bc0565b61342d6040830184613bc0565b606081016142b68286613bc9565b6141d86020830185613bc0565b604081016142d18285613bc9565b818103602083015261342d8184613bd2565b60405181810167ffffffffffffffff8111828210171561430257600080fd5b604052919050565b600067ffffffffffffffff82111561432157600080fd5b5060200290565b600067ffffffffffffffff82111561433f57600080fd5b5060209081020190565b600067ffffffffffffffff82111561436057600080fd5b506020601f91909101601f19160190565b90565b60200190565b50600390565b5190565b90815260200190565b6000612c3c826143bc565b151590565b6000612c3c8261438d565b80612aa081614424565b80612aa081614431565b6001600160a01b031690565b6000612c3c826143a8565b6000612c3c826143b2565b82818337506000910152565b60005b838110156144055781810151838201526020016143ed565b83811115614414576000848401525b50505050565b601f01601f191690565b6003811061442e57fe5b50565b6004811061442e57fe5b6144448161438d565b811461442e57600080fd5b61444481614398565b61444481614371565b6144448161439d565b6003811061442e57600080fd5b6004811061442e57600080fdfea365627a7a7231582062af74091a1e65fafb3810ee810c07f3aea3bde1761e32a18881d6f30cb402966c6578706572696d656e74616cf564736f6c63430005110040",
  "devdoc": {
    "methods": {
      "availableRewards(address,bytes32,address)": {
        "details": "Return the withdrawable rewards for a contributor.",
        "params": {
          "_address": "The address of the Generalized TCR to query.",
          "_contributor": "The address of the contributor.",
          "_itemID": "The ID of the item to query."
        },
        "return": "The amount withdrawable per round per request."
      },
      "countWithFilter(address,uint256,uint256,bool[8],address)": {
        "details": "Count the number of items for a given filter.",
        "params": {
          "_address": "The address of the Generalized TCR to query.",
          "_count": "The number of items to return.",
          "_cursorIndex": "The index of the items from which to start iterating. To start from either the oldest or newest item.",
          "_filter": "The filter to use. Each element of the array in sequence means: - Include absent items in result; - Include registered items in result; - Include items with registration requests that are not disputed in result; - Include items with clearing requests that are not disputed in result; - Include disputed items with registration requests in result; - Include disputed items with clearing requests in result; - Include items with a request by _party; - Include items challenged by _party.",
          "_party": "The address to use if checking for items with a request or challenged by a specific party."
        },
        "return": "The query result: - The number of items found for the filter; - Whether there are more items to iterate; - The index of the last item of the query. Useful as a starting point for the next query if counting in multiple steps."
      },
      "fetchArbitrable(address)": {
        "details": "Fetch arbitrable TCR data in a single call.",
        "params": {
          "_address": "The address of the Generalized TCR to query."
        },
        "return": "The latest data on an arbitrable TCR contract."
      },
      "findIndexForPage(address,uint256[4],bool[9],address)": {
        "details": "Find the index of the first item of a page of items for a given filter.",
        "params": {
          "_address": "The address of the Generalized TCR to query.",
          "_filter": "The filter to use. Each element of the array in sequence means: - Include absent items in result; - Include registered items in result; - Include items with registration requests that are not disputed in result; - Include items with clearing requests that are not disputed in result; - Include disputed items with registration requests in result; - Include disputed items with clearing requests in result; - Include items with a request by _party; - Include items challenged by _party. - Whether to sort from oldest to the newest item.",
          "_party": "The address to use if checking for items with a request or challenged by a specific party.",
          "_targets": "The targets to use for the query. Each element of the array in sequence means: - The page to search; - The number of items per page; - The number of items to iterate when searching; - The position from where to start iterating."
        },
        "return": "The query result: - Index of the page, if it was found; - Whether there are more items to iterate; - If the index of the page we are searching was found."
      },
      "findItem(address,bytes,uint256,uint256,bool[4],bool[])": {
        "details": "Find an item by matching column values exactly. Unless specified in the _ignoreColumns parameter, finding an item requires matching all columns. - Example: Item [18, 'PNK', 'Pinakion', '0xca35b7d915458ef540ade6068dfe2f44e8fa733c'] RLP encoded: 0xe383504e4b128850696e616b696f6e94ca35b7d915458ef540ade6068dfe2f44e8fa733c Input for remix: [\"0xe3\",\"0x83\",\"0x50\",\"0x4e\",\"0x4b\",\"0x12\",\"0x88\",\"0x50\",\"0x69\",\"0x6e\",\"0x61\",\"0x6b\",\"0x69\",\"0x6f\",\"0x6e\",\"0x94\",\"0xca\",\"0x35\",\"0xb7\",\"0xd9\",\"0x15\",\"0x45\",\"0x8e\",\"0xf5\",\"0x40\",\"0xad\",\"0xe6\",\"0x06\",\"0x8d\",\"0xfe\",\"0x2f\",\"0x44\",\"0xe8\",\"0xfa\",\"0x73\",\"0x3c\"]",
        "params": {
          "_address": "The address of the Generalized TCR to query.",
          "_count": "The number of items to iterate and return while searching.",
          "_cursor": "The index from where to start looking for matches.",
          "_ignoreColumns": "Columns to ignore when searching. If this is an array with only false items, then every column must match exactly.",
          "_rlpEncodedMatch": "The RLP encoded item to match against the items on the list.",
          "_skipState": "Boolean tuple defining whether to skip items in a given state. [Absent, Registered, RegistrationRequested, ClearingRequested]."
        },
        "return": "An array with items that match the query."
      },
      "getItem(address,bytes32)": {
        "details": "Fetch the latest data on an item in a single call.",
        "params": {
          "_address": "The address of the Generalized TCR to query.",
          "_itemID": "The ID of the item to query."
        },
        "return": "The item data."
      },
      "getItemData(address,bytes32)": {
        "details": "Fetch data of the an item and return a struct.",
        "params": {
          "_address": "The address of the Generalized TCR to query.",
          "_itemID": "The ID of the item to query."
        },
        "return": "The round data."
      },
      "getItemRequests(address,bytes32)": {
        "details": "Fetch all requests for an item.",
        "params": {
          "_address": "The address of the Generalized TCR to query.",
          "_itemID": "The ID of the item to query."
        },
        "return": "The items requests."
      },
      "getLatestRequestData(address,bytes32)": {
        "details": "Fetch the latest request of item.",
        "params": {
          "_address": "The address of the Generalized TCR to query.",
          "_itemID": "The ID of the item to query."
        },
        "return": "The round data."
      },
      "getLatestRoundRequestData(address,bytes32)": {
        "details": "Fetch the latest round of the latest request of an item.",
        "params": {
          "_address": "The address of the Generalized TCR to query.",
          "_itemID": "The ID of the item to query."
        },
        "return": "The round data."
      },
      "queryItems(address,uint256,uint256,bool[8],bool,address,uint256)": {
        "details": "Return the values of the items the query finds. This function is O(n), where n is the number of items. This could exceed the gas limit, therefore this function should only be used for interface display and not by other contracts.",
        "params": {
          "_address": "The address of the GTCR to query.",
          "_count": "The number of items to iterate.",
          "_cursorIndex": "The index of the items from which to start iterating. To start from either the oldest or newest item.",
          "_filter": "The filter to use. Each element of the array in sequence means: - Include absent items in result; - Include registered items in result; - Include items with registration requests that are not disputed in result; - Include items with clearing requests that are not disputed in result; - Include disputed items with registration requests in result; - Include disputed items with clearing requests in result; - Include items with a request by _party; - Include items challenged by _party.",
          "_limit": "The maximum number of items to return. If set to 0 will return _count items.",
          "_oldestFirst": "Whether to sort from oldest to the newest item.",
          "_party": "The address to use if checking for items with a request or challenged by a specific party."
        },
        "return": "The data of the items found and whether there are more items for the current filter and sort."
      }
    },
    "title": "GeneralizedTCRView A view contract to fetch, batch, parse and return GTCR contract data efficiently. This contract includes functions that can halt execution due to out-of-gas exceptions. Because of this it should never be relied upon by other contracts."
  },
  "userdoc": {
    "methods": {}
  },
  "storageLayout": {
    "storage": [],
    "types": null
  }
}