{
  "address": "0x87f58F0dCF3c99BA2F3eB0604e5c335893e2EAf9",
  "abi": [
    {
      "constant": true,
      "inputs": [
        {
          "internalType": "address",
          "name": "_address",
          "type": "address"
        },
        {
          "internalType": "bytes32",
          "name": "_itemID",
          "type": "bytes32"
        },
        {
          "internalType": "address",
          "name": "_contributor",
          "type": "address"
        }
      ],
      "name": "availableRewards",
      "outputs": [
        {
          "internalType": "uint256",
          "name": "rewards",
          "type": "uint256"
        }
      ],
      "payable": false,
      "stateMutability": "view",
      "type": "function"
    },
    {
      "constant": true,
      "inputs": [
        {
          "internalType": "address",
          "name": "_address",
          "type": "address"
        }
      ],
      "name": "fetchArbitrable",
      "outputs": [
        {
          "components": [
            {
              "internalType": "address",
              "name": "governor",
              "type": "address"
            },
            {
              "internalType": "address",
              "name": "arbitrator",
              "type": "address"
            },
            {
              "internalType": "bytes",
              "name": "arbitratorExtraData",
              "type": "bytes"
            },
            {
              "internalType": "uint256",
              "name": "submissionBaseDeposit",
              "type": "uint256"
            },
            {
              "internalType": "uint256",
              "name": "removalBaseDeposit",
              "type": "uint256"
            },
            {
              "internalType": "uint256",
              "name": "submissionChallengeBaseDeposit",
              "type": "uint256"
            },
            {
              "internalType": "uint256",
              "name": "removalChallengeBaseDeposit",
              "type": "uint256"
            },
            {
              "internalType": "uint256",
              "name": "challengePeriodDuration",
              "type": "uint256"
            },
            {
              "internalType": "uint256",
              "name": "metaEvidenceUpdates",
              "type": "uint256"
            },
            {
              "internalType": "uint256",
              "name": "winnerStakeMultiplier",
              "type": "uint256"
            },
            {
              "internalType": "uint256",
              "name": "loserStakeMultiplier",
              "type": "uint256"
            },
            {
              "internalType": "uint256",
              "name": "sharedStakeMultiplier",
              "type": "uint256"
            },
            {
              "internalType": "uint256",
              "name": "MULTIPLIER_DIVISOR",
              "type": "uint256"
            },
            {
              "internalType": "uint256",
              "name": "arbitrationCost",
              "type": "uint256"
            }
          ],
          "internalType": "struct LightGeneralizedTCRView.ArbitrableData",
          "name": "result",
          "type": "tuple"
        }
      ],
      "payable": false,
      "stateMutability": "view",
      "type": "function"
    },
    {
      "constant": true,
      "inputs": [
        {
          "internalType": "address",
          "name": "_address",
          "type": "address"
        },
        {
          "internalType": "bytes32",
          "name": "_itemID",
          "type": "bytes32"
        }
      ],
      "name": "getItem",
      "outputs": [
        {
          "components": [
            {
              "internalType": "bytes32",
              "name": "ID",
              "type": "bytes32"
            },
            {
              "internalType": "enum LightGeneralizedTCR.Status",
              "name": "status",
              "type": "uint8"
            },
            {
              "internalType": "bool",
              "name": "disputed",
              "type": "bool"
            },
            {
              "internalType": "bool",
              "name": "resolved",
              "type": "bool"
            },
            {
              "internalType": "uint256",
              "name": "disputeID",
              "type": "uint256"
            },
            {
              "internalType": "uint256",
              "name": "appealCost",
              "type": "uint256"
            },
            {
              "internalType": "bool",
              "name": "appealed",
              "type": "bool"
            },
            {
              "internalType": "uint256",
              "name": "appealStart",
              "type": "uint256"
            },
            {
              "internalType": "uint256",
              "name": "appealEnd",
              "type": "uint256"
            },
            {
              "internalType": "enum LightGeneralizedTCR.Party",
              "name": "ruling",
              "type": "uint8"
            },
            {
              "internalType": "address",
              "name": "requester",
              "type": "address"
            },
            {
              "internalType": "address",
              "name": "challenger",
              "type": "address"
            },
            {
              "internalType": "address",
              "name": "arbitrator",
              "type": "address"
            },
            {
              "internalType": "bytes",
              "name": "arbitratorExtraData",
              "type": "bytes"
            },
            {
              "internalType": "enum LightGeneralizedTCR.Party",
              "name": "currentRuling",
              "type": "uint8"
            },
            {
              "internalType": "bool[3]",
              "name": "hasPaid",
              "type": "bool[3]"
            },
            {
              "internalType": "uint256",
              "name": "feeRewards",
              "type": "uint256"
            },
            {
              "internalType": "uint256",
              "name": "submissionTime",
              "type": "uint256"
            },
            {
              "internalType": "uint256[3]",
              "name": "amountPaid",
              "type": "uint256[3]"
            },
            {
              "internalType": "enum IArbitrator.DisputeStatus",
              "name": "disputeStatus",
              "type": "uint8"
            },
            {
              "internalType": "uint256",
              "name": "numberOfRequests",
              "type": "uint256"
            }
          ],
          "internalType": "struct LightGeneralizedTCRView.QueryResult",
          "name": "result",
          "type": "tuple"
        }
      ],
      "payable": false,
      "stateMutability": "view",
      "type": "function"
    },
    {
      "constant": true,
      "inputs": [
        {
          "internalType": "address",
          "name": "_address",
          "type": "address"
        },
        {
          "internalType": "bytes32",
          "name": "_itemID",
          "type": "bytes32"
        }
      ],
      "name": "getItemData",
      "outputs": [
        {
          "components": [
            {
              "internalType": "enum LightGeneralizedTCR.Status",
              "name": "status",
              "type": "uint8"
            },
            {
              "internalType": "uint256",
              "name": "numberOfRequests",
              "type": "uint256"
            }
          ],
          "internalType": "struct LightGeneralizedTCRView.ItemData",
          "name": "item",
          "type": "tuple"
        }
      ],
      "payable": false,
      "stateMutability": "view",
      "type": "function"
    },
    {
      "constant": true,
      "inputs": [
        {
          "internalType": "address",
          "name": "_address",
          "type": "address"
        },
        {
          "internalType": "bytes32",
          "name": "_itemID",
          "type": "bytes32"
        }
      ],
      "name": "getItemRequests",
      "outputs": [
        {
          "components": [
            {
              "internalType": "bool",
              "name": "disputed",
              "type": "bool"
            },
            {
              "internalType": "uint256",
              "name": "disputeID",
              "type": "uint256"
            },
            {
              "internalType": "uint256",
              "name": "submissionTime",
              "type": "uint256"
            },
            {
              "internalType": "bool",
              "name": "resolved",
              "type": "bool"
            },
            {
              "internalType": "address",
              "name": "requester",
              "type": "address"
            },
            {
              "internalType": "address",
              "name": "challenger",
              "type": "address"
            },
            {
              "internalType": "address",
              "name": "arbitrator",
              "type": "address"
            },
            {
              "internalType": "bytes",
              "name": "arbitratorExtraData",
              "type": "bytes"
            },
            {
              "internalType": "uint256",
              "name": "metaEvidenceID",
              "type": "uint256"
            }
          ],
          "internalType": "struct LightGeneralizedTCRView.ItemRequest[]",
          "name": "requests",
          "type": "tuple[]"
        }
      ],
      "payable": false,
      "stateMutability": "view",
      "type": "function"
    },
    {
      "constant": true,
      "inputs": [
        {
          "internalType": "address",
          "name": "_address",
          "type": "address"
        },
        {
          "internalType": "bytes32",
          "name": "_itemID",
          "type": "bytes32"
        }
      ],
      "name": "getLatestRequestData",
      "outputs": [
        {
          "components": [
            {
              "components": [
                {
                  "internalType": "enum LightGeneralizedTCR.Status",
                  "name": "status",
                  "type": "uint8"
                },
                {
                  "internalType": "uint256",
                  "name": "numberOfRequests",
                  "type": "uint256"
                }
              ],
              "internalType": "struct LightGeneralizedTCRView.ItemData",
              "name": "item",
              "type": "tuple"
            },
            {
              "internalType": "bool",
              "name": "disputed",
              "type": "bool"
            },
            {
              "internalType": "uint256",
              "name": "disputeID",
              "type": "uint256"
            },
            {
              "internalType": "uint256",
              "name": "submissionTime",
              "type": "uint256"
            },
            {
              "internalType": "bool",
              "name": "resolved",
              "type": "bool"
            },
            {
              "internalType": "address payable[3]",
              "name": "parties",
              "type": "address[3]"
            },
            {
              "internalType": "uint256",
              "name": "numberOfRounds",
              "type": "uint256"
            },
            {
              "internalType": "enum LightGeneralizedTCR.Party",
              "name": "ruling",
              "type": "uint8"
            },
            {
              "internalType": "contract IArbitrator",
              "name": "arbitrator",
              "type": "address"
            },
            {
              "internalType": "bytes",
              "name": "arbitratorExtraData",
              "type": "bytes"
            }
          ],
          "internalType": "struct LightGeneralizedTCRView.RequestData",
          "name": "request",
          "type": "tuple"
        }
      ],
      "payable": false,
      "stateMutability": "view",
      "type": "function"
    },
    {
      "constant": true,
      "inputs": [
        {
          "internalType": "address",
          "name": "_address",
          "type": "address"
        },
        {
          "internalType": "bytes32",
          "name": "_itemID",
          "type": "bytes32"
        }
      ],
      "name": "getLatestRoundRequestData",
      "outputs": [
        {
          "components": [
            {
              "components": [
                {
                  "components": [
                    {
                      "internalType": "enum LightGeneralizedTCR.Status",
                      "name": "status",
                      "type": "uint8"
                    },
                    {
                      "internalType": "uint256",
                      "name": "numberOfRequests",
                      "type": "uint256"
                    }
                  ],
                  "internalType": "struct LightGeneralizedTCRView.ItemData",
                  "name": "item",
                  "type": "tuple"
                },
                {
                  "internalType": "bool",
                  "name": "disputed",
                  "type": "bool"
                },
                {
                  "internalType": "uint256",
                  "name": "disputeID",
                  "type": "uint256"
                },
                {
                  "internalType": "uint256",
                  "name": "submissionTime",
                  "type": "uint256"
                },
                {
                  "internalType": "bool",
                  "name": "resolved",
                  "type": "bool"
                },
                {
                  "internalType": "address payable[3]",
                  "name": "parties",
                  "type": "address[3]"
                },
                {
                  "internalType": "uint256",
                  "name": "numberOfRounds",
                  "type": "uint256"
                },
                {
                  "internalType": "enum LightGeneralizedTCR.Party",
                  "name": "ruling",
                  "type": "uint8"
                },
                {
                  "internalType": "contract IArbitrator",
                  "name": "arbitrator",
                  "type": "address"
                },
                {
                  "internalType": "bytes",
                  "name": "arbitratorExtraData",
                  "type": "bytes"
                }
              ],
              "internalType": "struct LightGeneralizedTCRView.RequestData",
              "name": "request",
              "type": "tuple"
            },
            {
              "internalType": "bool",
              "name": "appealed",
              "type": "bool"
            },
            {
              "internalType": "uint256[3]",
              "name": "amountPaid",
              "type": "uint256[3]"
            },
            {
              "internalType": "bool[3]",
              "name": "hasPaid",
              "type": "bool[3]"
            },
            {
              "internalType": "uint256",
              "name": "feeRewards",
              "type": "uint256"
            }
          ],
          "internalType": "struct LightGeneralizedTCRView.RoundData",
          "name": "round",
          "type": "tuple"
        }
      ],
      "payable": false,
      "stateMutability": "view",
      "type": "function"
    }
  ],
  "transactionHash": "0xe5ee32c4b0da0a3e17c32163469ed820e0343bcf9bfde68e6db816f9ef0daca9",
  "args": [],
  "numDeployments": 1,
  "solcInputHash": "8e68fa05bce2d1098c0738035c7962ed",
  "bytecode": "0x608060405234801561001057600080fd5b5061281a806100206000396000f3fe608060405234801561001057600080fd5b506004361061007d5760003560e01c80637d1d8cc21161005b5780637d1d8cc2146100eb57806387ef093a1461010b578063cefded2e1461012b578063f2af29891461014b5761007d565b80630f4d1e731461008257806311b750c3146100ab5780633f869479146100cb575b600080fd5b610095610090366004611b06565b61016b565b6040516100a291906125f0565b60405180910390f35b6100be6100b9366004611b4a565b610857565b6040516100a29190612631565b6100de6100d9366004611b4a565b610a44565b6040516100a2919061260f565b6100fe6100f9366004611b4a565b610ecf565b6040516100a29190612620565b61011e610119366004611b4a565b61100b565b6040516100a29190612548565b61013e610139366004611b4a565b6111e5565b6040516100a29190612601565b61015e610159366004611b84565b61129e565b6040516100a29190612559565b6101736116c6565b6000829050806001600160a01b0316630c340a246040518163ffffffff1660e01b815260040160206040518083038186803b1580156101b157600080fd5b505afa1580156101c5573d6000803e3d6000fd5b505050506040513d601f19601f820116820180604052506101e99190810190611b2c565b6001600160a01b03908116835260408051636cc6cde160e01b8152905191831691636cc6cde191600480820192602092909190829003018186803b15801561023057600080fd5b505afa158015610244573d6000803e3d6000fd5b505050506040513d601f19601f820116820180604052506102689190810190611d79565b82602001906001600160a01b031690816001600160a01b031681525050806001600160a01b0316630c7ac7b66040518163ffffffff1660e01b815260040160006040518083038186803b1580156102be57600080fd5b505afa1580156102d2573d6000803e3d6000fd5b505050506040513d6000823e601f3d908101601f191682016040526102fa9190810190611d44565b8260400181905250806001600160a01b031663bb0b86ff6040518163ffffffff1660e01b815260040160206040518083038186803b15801561033b57600080fd5b505afa15801561034f573d6000803e3d6000fd5b505050506040513d601f19601f820116820180604052506103739190810190611df8565b826060018181525050806001600160a01b031663c2f2beea6040518163ffffffff1660e01b815260040160206040518083038186803b1580156103b557600080fd5b505afa1580156103c9573d6000803e3d6000fd5b505050506040513d601f19601f820116820180604052506103ed9190810190611df8565b826080018181525050806001600160a01b031663a37b6ad46040518163ffffffff1660e01b815260040160206040518083038186803b15801561042f57600080fd5b505afa158015610443573d6000803e3d6000fd5b505050506040513d601f19601f820116820180604052506104679190810190611df8565b8260a0018181525050806001600160a01b031663787471a96040518163ffffffff1660e01b815260040160206040518083038186803b1580156104a957600080fd5b505afa1580156104bd573d6000803e3d6000fd5b505050506040513d601f19601f820116820180604052506104e19190810190611df8565b8260c0018181525050806001600160a01b03166282a36d6040518163ffffffff1660e01b815260040160206040518083038186803b15801561052257600080fd5b505afa158015610536573d6000803e3d6000fd5b505050506040513d601f19601f8201168201806040525061055a9190810190611df8565b8260e0018181525050806001600160a01b0316636cdc090f6040518163ffffffff1660e01b815260040160206040518083038186803b15801561059c57600080fd5b505afa1580156105b0573d6000803e3d6000fd5b505050506040513d601f19601f820116820180604052506105d49190810190611df8565b82610100018181525050806001600160a01b0316637b9433836040518163ffffffff1660e01b815260040160206040518083038186803b15801561061757600080fd5b505afa15801561062b573d6000803e3d6000fd5b505050506040513d601f19601f8201168201806040525061064f9190810190611df8565b82610120018181525050806001600160a01b0316631d5120856040518163ffffffff1660e01b815260040160206040518083038186803b15801561069257600080fd5b505afa1580156106a6573d6000803e3d6000fd5b505050506040513d601f19601f820116820180604052506106ca9190810190611df8565b82610140018181525050806001600160a01b031663416583416040518163ffffffff1660e01b815260040160206040518083038186803b15801561070d57600080fd5b505afa158015610721573d6000803e3d6000fd5b505050506040513d601f19601f820116820180604052506107459190810190611df8565b82610160018181525050806001600160a01b031663d661dd316040518163ffffffff1660e01b815260040160206040518083038186803b15801561078857600080fd5b505afa15801561079c573d6000803e3d6000fd5b505050506040513d601f19601f820116820180604052506107c09190810190611df8565b6101808301526020820151604080840151905163f7434ea960e01b81526001600160a01b039092169163f7434ea9916107fb916004016125df565b60206040518083038186803b15801561081357600080fd5b505afa158015610827573d6000803e3d6000fd5b505050506040513d601f19601f8201168201806040525061084b9190810190611df8565b6101a083015250919050565b61085f611747565b604051634aac84e560e01b815283906000906001600160a01b03831690634aac84e590610890908790600401612559565b60606040518083038186803b1580156108a857600080fd5b505afa1580156108bc573d6000803e3d6000fd5b505050506040513d601f19601f820116820180604052506108e09190810190611db5565b925050506108ec611788565b6108f68686610ecf565b90508060200151156109da57600061090c6117f2565b6109146117f2565b83516020015160c0850151604051634ba090d960e11b81526000926001600160a01b038a169263974121b292610958928e9260001991820192910190600401612582565b6101006040518083038186803b15801561097157600080fd5b505afa158015610985573d6000803e3d6000fd5b505050506040513d601f19601f820116820180604052506109a99190810190611bef565b6040805160a0810182528a81529415156020860152840192909252606083015260808201529750610a3b9350505050565b6040805160a08101825282815260006020808301829052835160608082018652838252818301889052818601849052848601919091528451808201865283815260019281019290925293810191909152918101919091526080810183905293505b50505092915050565b610a4c611810565b610a54611747565b610a5e8484610857565b604080516102a08101909152848152815151519192509060208201906003811115610a8557fe5b815260200182600001516020015115158152602001826000015160800151151581526020018260000151604001518152602001600081526020018260200151151581526020016000815260200160008152602001826000015160e001516002811115610aed57fe5b8152825160a0908101516020908101516001600160a01b031690830152835101516040909101906002602090810291909101516001600160a01b03908116835284516101000151169082015282516101200151604082015260600160008152602001826060015181526020018260800151815260200182600001516060015181526020018260400151815260200160006002811115610b8857fe5b815282515160209081015191810191909152825101519092508015610c3e5750600181516101000151608084015160405163021e2d3d60e31b81526001600160a01b03909216916310f169e891610be191600401612559565b60206040518083038186803b158015610bf957600080fd5b505afa158015610c0d573d6000803e3d6000fd5b505050506040513d601f19601f82011682018060405250610c319190810190611d97565b6002811115610c3c57fe5b145b15610ec857805161010001516080830151604051631c3db16d60e01b81526001600160a01b0390921691631c3db16d91610c7a91600401612559565b60206040518083038186803b158015610c9257600080fd5b505afa158015610ca6573d6000803e3d6000fd5b505050506040513d601f19601f82011682018060405250610cca9190810190611df8565b6002811115610cd557fe5b826101c001906002811115610ce657fe5b90816002811115610cf357fe5b90525080516101000151608083015160405163021e2d3d60e31b81526001600160a01b03909216916310f169e891610d2d91600401612559565b60206040518083038186803b158015610d4557600080fd5b505afa158015610d59573d6000803e3d6000fd5b505050506040513d601f19601f82011682018060405250610d7d9190810190611d97565b8261026001906002811115610d8e57fe5b90816002811115610d9b57fe5b90525080516101000151608083015160405163afe15cfb60e01b81526001600160a01b039092169163afe15cfb91610dd591600401612559565b604080518083038186803b158015610dec57600080fd5b505afa158015610e00573d6000803e3d6000fd5b505050506040513d601f19601f82011682018060405250610e249190810190611e16565b6101008085019190915260e08401919091528151015160808301516101a084015160405163791f8b7360e11b81526001600160a01b039093169263f23f16e692610e72929091600401612642565b60206040518083038186803b158015610e8a57600080fd5b505afa158015610e9e573d6000803e3d6000fd5b505050506040513d601f19601f82011682018060405250610ec29190810190611df8565b60a08301525b5092915050565b610ed7611788565b82610ee06118b5565b610eea85856111e5565b9050600080600080610efa6117f2565b600080600060608a6001600160a01b031663bfbcff1a8e60018d60200151036040518363ffffffff1660e01b8152600401610f36929190612567565b60006040518083038186803b158015610f4e57600080fd5b505afa158015610f62573d6000803e3d6000fd5b505050506040513d6000823e601f3d908101601f19168201604052610f8a9190810190611c51565b509850985098509850985098509850985098506040518061014001604052808b81526020018a151581526020018981526020018881526020018715158152602001868152602001858152602001846002811115610fe357fe5b81526001600160a01b0390931660208401526040909201529c9b505050505050505050505050565b6060826110166118b5565b61102085856111e5565b9050806020015160405190808252806020026020018201604052801561106057816020015b61104d6118c7565b8152602001906001900390816110455790505b50925060005b8160200151811015610a3b576000806000806110806117f2565b6000606060008a6001600160a01b031663bfbcff1a8e8b6040518363ffffffff1660e01b81526004016110b4929190612567565b60006040518083038186803b1580156110cc57600080fd5b505afa1580156110e0573d6000803e3d6000fd5b505050506040513d6000823e601f3d908101601f191682016040526111089190810190611c51565b99509950995050509750975097509750975060405180610120016040528089151581526020018881526020018781526020018615158152602001856001600281111561115057fe5b6003811061115a57fe5b60200201516001600160a01b031681526020018560028081111561117a57fe5b6003811061118457fe5b60200201516001600160a01b03168152602001846001600160a01b03168152602001838152602001828152508c60018b8d602001510303815181106111c557fe5b602002602001018190525050505050505050508080600101915050611066565b6111ed6118b5565b604051634aac84e560e01b8152839060009081906001600160a01b03841690634aac84e590611220908890600401612559565b60606040518083038186803b15801561123857600080fd5b505afa15801561124c573d6000803e3d6000fd5b505050506040513d601f19601f820116820180604052506112709190810190611db5565b5091509150604051806040016040528083600381111561128c57fe5b81526020019190915295945050505050565b6000836112a9611912565b5060408051808201909152600080825260208201526112c6611912565b50604080518082018252600080825260208201529051634aac84e560e01b81526001600160a01b03841690634aac84e590611305908990600401612559565b60606040518083038186803b15801561131d57600080fd5b505afa158015611331573d6000803e3d6000fd5b505050506040513d601f19601f820116820180604052506113559190810190611db5565b508352505b8151815110156116bc578051604051635fde7f8d60e11b815260009182916001600160a01b0387169163bfbcff1a91611397918c91600401612567565b60006040518083038186803b1580156113af57600080fd5b505afa1580156113c3573d6000803e3d6000fd5b505050506040513d6000823e601f3d908101601f191682016040526113eb9190810190611c51565b509497509195509350899250600191506114029050565b6020020191909152925090508061141a5750506116b0565b6020808501519084015110156116a6576114326117f2565b61143a6117f2565b60006001600160a01b03881663974121b28c8884602002015189600160200201516040518463ffffffff1660e01b815260040161147993929190612582565b6101006040518083038186803b15801561149257600080fd5b505afa1580156114a6573d6000803e3d6000fd5b505050506040513d601f19601f820116820180604052506114ca9190810190611bef565b935093509350506114d96117f2565b6001600160a01b0389166352bc0e608d89600060200201518a600160200201518f6040518563ffffffff1660e01b815260040161151994939291906125aa565b60606040518083038186803b15801561153157600080fd5b505afa158015611545573d6000803e3d6000fd5b505050506040513d601f19601f820116820180604052506115699190810190611bd1565b6020840151909150158061157f57506040830151155b156115995760408101516020820151019990990198611685565b60008660028111156115a757fe5b14156116135760208401516115bd5760006115da565b6020808501516040860151918301519101908302816115d857fe5b045b60408501519a01996115ed57600061160a565b60208401516040808601519083015191019083028161160857fe5b045b8a019950611685565b60008487600281111561162257fe5b6003811061162c57fe5b60200201511161163d576000611680565b8386600281111561164a57fe5b6003811061165457fe5b6020020151828288600281111561166757fe5b6003811061167157fe5b6020020151028161167e57fe5b045b8a0199505b505050508260016002811061169657fe5b602002018051600101905261141a565b5050600060208201525b8051600101815261135a565b5050509392505050565b604051806101c0016040528060006001600160a01b0316815260200160006001600160a01b031681526020016060815260200160008152602001600081526020016000815260200160008152602001600081526020016000815260200160008152602001600081526020016000815260200160008152602001600081525090565b6040518060a0016040528061175a611788565b81526000602082015260400161176e6117f2565b815260200161177b6117f2565b8152602001600081525090565b60405180610140016040528061179c6118b5565b81526000602082018190526040820181905260608201819052608082015260a0016117c56117f2565b815260200160008152602001600060028111156117de57fe5b815260006020820152606060409091015290565b60405180606001604052806003906020820280388339509192915050565b604080516102a081018252600080825260208201819052918101829052606081018290526080810182905260a0810182905260c0810182905260e081018290526101008101829052906101208201908152600060208201819052604082018190526060808301829052608083015260a082015260c00161188e6117f2565b815260200160008152602001600081526020016118a96117f2565b8152602001600061177b565b6040805180820190915280600061177b565b604080516101208101825260008082526020820181905291810182905260608082018390526080820183905260a0820183905260c0820183905260e082015261010081019190915290565b60405180604001604052806002906020820280388339509192915050565b803561193b8161278e565b92915050565b805161193b8161278e565b600082601f83011261195d57600080fd5b600361197061196b82612689565b612662565b9150818385602084028201111561198657600080fd5b60005b838110156119b2578161199c8882611941565b8452506020928301929190910190600101611989565b5050505092915050565b600082601f8301126119cd57600080fd5b60036119db61196b82612689565b915081838560208402820111156119f157600080fd5b60005b838110156119b25781611a078882611a7e565b84525060209283019291909101906001016119f4565b600082601f830112611a2e57600080fd5b6003611a3c61196b82612689565b91508183856020840282011115611a5257600080fd5b60005b838110156119b25781611a688882611afb565b8452506020928301929190910190600101611a55565b805161193b816127a2565b803561193b816127ab565b600082601f830112611aa557600080fd5b8151611ab361196b826126a7565b91508082526020830160208301858383011115611acf57600080fd5b610a3b838284612741565b805161193b816127b4565b805161193b816127bd565b805161193b816127ca565b805161193b816127ab565b600060208284031215611b1857600080fd5b6000611b248484611930565b949350505050565b600060208284031215611b3e57600080fd5b6000611b248484611941565b60008060408385031215611b5d57600080fd5b6000611b698585611930565b9250506020611b7a85828601611a89565b9150509250929050565b600080600060608486031215611b9957600080fd5b6000611ba58686611930565b9350506020611bb686828701611a89565b9250506040611bc786828701611930565b9150509250925092565b600060608284031215611be357600080fd5b6000611b248484611a1d565b6000806000806101008587031215611c0657600080fd5b6000611c128787611a7e565b9450506020611c2387828801611a1d565b9350506080611c34878288016119bc565b92505060e0611c4587828801611afb565b91505092959194509250565b6000806000806000806000806000806101808b8d031215611c7157600080fd5b6000611c7d8d8d611a7e565b9a50506020611c8e8d828e01611afb565b9950506040611c9f8d828e01611afb565b9850506060611cb08d828e01611a7e565b9750506080611cc18d828e0161194c565b96505060e0611cd28d828e01611afb565b955050610100611ce48d828e01611ae5565b945050610120611cf68d828e01611ada565b9350506101408b015167ffffffffffffffff811115611d1457600080fd5b611d208d828e01611a94565b925050610160611d328d828e01611afb565b9150509295989b9194979a5092959850565b600060208284031215611d5657600080fd5b815167ffffffffffffffff811115611d6d57600080fd5b611b2484828501611a94565b600060208284031215611d8b57600080fd5b6000611b248484611ada565b600060208284031215611da957600080fd5b6000611b248484611ae5565b600080600060608486031215611dca57600080fd5b6000611dd68686611af0565b9350506020611de786828701611afb565b9250506040611bc786828701611afb565b600060208284031215611e0a57600080fd5b6000611b248484611afb565b60008060408385031215611e2957600080fd5b6000611e358585611afb565b9250506020611b7a85828601611afb565b6000611e528383611e85565b505060200190565b6000611e528383611fee565b6000611e7283836121a4565b9392505050565b6000611e528383611ff7565b611e8e816126f0565b82525050565b611e9d816126d8565b611ea781846126e2565b9250611eb2826126cf565b8060005b83811015611ee0578151611eca8782611e46565b9650611ed5836126d2565b925050600101611eb6565b505050505050565b611ef1816126d8565b611efb81846126e2565b9250611f06826126cf565b8060005b83811015611ee0578151611f1e8782611e5a565b9650611f29836126d2565b925050600101611f0a565b6000611f3f826126de565b611f4981856126e7565b935083602082028501611f5b856126d2565b8060005b85811015611f955784840389528151611f788582611e66565b9450611f83836126d2565b60209a909a0199925050600101611f5f565b5091979650505050505050565b611fab816126d8565b611fb581846126e2565b9250611fc0826126cf565b8060005b83811015611ee0578151611fd88782611e79565b9650611fe3836126d2565b925050600101611fc4565b611e8e816126fb565b611e8e816126cf565b600061200b826126de565b61201581856126e7565b9350612025818560208601612741565b61202e8161276d565b9093019392505050565b611e8e81612700565b611e8e8161272b565b611e8e81612736565b80516000906101c08401906120688582611e85565b50602083015161207b6020860182611e85565b50604083015184820360408601526120938282612000565b91505060608301516120a86060860182611ff7565b5060808301516120bb6080860182611ff7565b5060a08301516120ce60a0860182611ff7565b5060c08301516120e160c0860182611ff7565b5060e08301516120f460e0860182611ff7565b50610100830151612109610100860182611ff7565b5061012083015161211e610120860182611ff7565b50610140830151612133610140860182611ff7565b50610160830151612148610160860182611ff7565b5061018083015161215d610180860182611ff7565b506101a08301516121726101a0860182611ff7565b509392505050565b8051604083019061218b848261204a565b50602082015161219e6020850182611ff7565b50505050565b80516000906101208401906121b98582611fee565b5060208301516121cc6020860182611ff7565b5060408301516121df6040860182611ff7565b5060608301516121f26060860182611fee565b5060808301516122056080860182611e85565b5060a083015161221860a0860182611e85565b5060c083015161222b60c0860182611e85565b5060e083015184820360e08601526122438282612000565b915050610100830151612172610100860182611ff7565b805160009061032084019061226f8582611ff7565b506020830151612282602086018261204a565b5060408301516122956040860182611fee565b5060608301516122a86060860182611fee565b5060808301516122bb6080860182611ff7565b5060a08301516122ce60a0860182611ff7565b5060c08301516122e160c0860182611fee565b5060e08301516122f460e0860182611ff7565b50610100830151612309610100860182611ff7565b5061012083015161231e610120860182612041565b50610140830151612333610140860182611e85565b50610160830151612348610160860182611e85565b5061018083015161235d610180860182611e85565b506101a08301518482036101a08601526123778282612000565b9150506101c083015161238e6101c0860182612041565b506101e08301516123a36101e0860182611ee8565b506102008301516123b8610240860182611ff7565b506102208301516123cd610260860182611ff7565b506102408301516123e2610280860182611fa2565b506102608301516123f76102e0860182612041565b50610280830151612172610300860182611ff7565b80516000906101a0840190612421858261217a565b5060208301516124346040860182611fee565b5060408301516124476060860182611ff7565b50606083015161245a6080860182611ff7565b50608083015161246d60a0860182611fee565b5060a083015161248060c0860182611e94565b5060c0830151612494610120860182611ff7565b5060e08301516124a8610140860182612041565b506101008301516124bd610160860182612038565b506101208301518482036101808601526124d78282612000565b95945050505050565b8051610120808452600091908401906124f9828261240c565b915050602083015161250e6020860182611fee565b5060408301516125216040860182611fa2565b50606083015161253460a0860182611ee8565b506080830151612172610100860182611ff7565b60208082528101611e728184611f34565b6020810161193b8284611ff7565b604081016125758285611ff7565b611e726020830184611ff7565b606081016125908286611ff7565b61259d6020830185611ff7565b611b246040830184611ff7565b608081016125b88287611ff7565b6125c56020830186611ff7565b6125d26040830185611ff7565b6124d76060830184611e85565b60208082528101611e728184612000565b60208082528101611e728184612053565b6040810161193b828461217a565b60208082528101611e72818461225a565b60208082528101611e72818461240c565b60208082528101611e7281846124e0565b604081016126508285611ff7565b8181036020830152611b248184612000565b60405181810167ffffffffffffffff8111828210171561268157600080fd5b604052919050565b600067ffffffffffffffff8211156126a057600080fd5b5060200290565b600067ffffffffffffffff8211156126be57600080fd5b506020601f91909101601f19160190565b90565b60200190565b50600390565b5190565b919050565b90815260200190565b600061193b8261271f565b151590565b600061193b826126f0565b806126e281612777565b806126e281612784565b6001600160a01b031690565b600061193b8261270b565b600061193b82612715565b60005b8381101561275c578181015183820152602001612744565b8381111561219e5750506000910152565b601f01601f191690565b6003811061278157fe5b50565b6004811061278157fe5b612797816126f0565b811461278157600080fd5b612797816126fb565b612797816126cf565b61279781612700565b6003811061278157600080fd5b6004811061278157600080fdfea365627a7a723158203d29bb5cb92cddf540f38531efdefadb5899e513a4026f6a49cd2e87935a146f6c6578706572696d656e74616cf564736f6c63430005110040",
  "devdoc": {
    "methods": {
      "availableRewards(address,bytes32,address)": {
        "details": "Return the withdrawable rewards for a contributor.",
        "params": {
          "_address": "The address of the LightGeneralized TCR to query.",
          "_contributor": "The address of the contributor.",
          "_itemID": "The ID of the item to query."
        },
        "return": "The amount withdrawable per round per request."
      },
      "fetchArbitrable(address)": {
        "details": "Fetch arbitrable TCR data in a single call.",
        "params": {
          "_address": "The address of the LightGeneralized TCR to query."
        },
        "return": "The latest data on an arbitrable TCR contract."
      },
      "getItem(address,bytes32)": {
        "details": "Fetch the latest data on an item in a single call.",
        "params": {
          "_address": "The address of the LightGeneralized TCR to query.",
          "_itemID": "The ID of the item to query."
        },
        "return": "The item data."
      },
      "getItemData(address,bytes32)": {
        "details": "Fetch data of the an item and return a struct.",
        "params": {
          "_address": "The address of the LightGeneralized TCR to query.",
          "_itemID": "The ID of the item to query."
        },
        "return": "The round data."
      },
      "getItemRequests(address,bytes32)": {
        "details": "Fetch all requests for an item.",
        "params": {
          "_address": "The address of the LightGeneralized TCR to query.",
          "_itemID": "The ID of the item to query."
        },
        "return": "The items requests."
      },
      "getLatestRequestData(address,bytes32)": {
        "details": "Fetch the latest request of item.",
        "params": {
          "_address": "The address of the LightGeneralized TCR to query.",
          "_itemID": "The ID of the item to query."
        },
        "return": "The round data."
      },
      "getLatestRoundRequestData(address,bytes32)": {
        "details": "Fetch the latest round of the latest request of an item.",
        "params": {
          "_address": "The address of the LightGeneralized TCR to query.",
          "_itemID": "The ID of the item to query."
        },
        "return": "The round data."
      }
    },
    "title": "LightGeneralizedTCRView A view contract to fetch, batch, parse and return GTCR contract data efficiently. This contract includes functions that can halt execution due to out-of-gas exceptions. Because of this it should never be relied upon by other contracts."
  },
  "userdoc": {
    "methods": {}
  },
  "storageLayout": {
    "storage": [],
    "types": null
  }
}