{
  "address": "0x3FB8314C628E9afE7677946D3E23443Ce748Ac17",
  "abi": [
    {
      "inputs": [
        {
          "internalType": "address",
          "name": "_GTCR",
          "type": "address"
        }
      ],
      "payable": false,
      "stateMutability": "nonpayable",
      "type": "constructor"
    },
    {
      "anonymous": false,
      "inputs": [
        {
          "indexed": true,
          "internalType": "contract LightGeneralizedTCR",
          "name": "_address",
          "type": "address"
        }
      ],
      "name": "NewGTCR",
      "type": "event"
    },
    {
      "constant": true,
      "inputs": [],
      "name": "GTCR",
      "outputs": [
        {
          "internalType": "address",
          "name": "",
          "type": "address"
        }
      ],
      "payable": false,
      "stateMutability": "view",
      "type": "function"
    },
    {
      "constant": true,
      "inputs": [],
      "name": "count",
      "outputs": [
        {
          "internalType": "uint256",
          "name": "",
          "type": "uint256"
        }
      ],
      "payable": false,
      "stateMutability": "view",
      "type": "function"
    },
    {
      "constant": false,
      "inputs": [
        {
          "internalType": "contract IArbitrator",
          "name": "_arbitrator",
          "type": "address"
        },
        {
          "internalType": "bytes",
          "name": "_arbitratorExtraData",
          "type": "bytes"
        },
        {
          "internalType": "address",
          "name": "_connectedTCR",
          "type": "address"
        },
        {
          "internalType": "string",
          "name": "_registrationMetaEvidence",
          "type": "string"
        },
        {
          "internalType": "string",
          "name": "_clearingMetaEvidence",
          "type": "string"
        },
        {
          "internalType": "address",
          "name": "_governor",
          "type": "address"
        },
        {
          "internalType": "uint256[4]",
          "name": "_baseDeposits",
          "type": "uint256[4]"
        },
        {
          "internalType": "uint256",
          "name": "_challengePeriodDuration",
          "type": "uint256"
        },
        {
          "internalType": "uint256[3]",
          "name": "_stakeMultipliers",
          "type": "uint256[3]"
        },
        {
          "internalType": "address",
          "name": "_relayContract",
          "type": "address"
        }
      ],
      "name": "deploy",
      "outputs": [],
      "payable": false,
      "stateMutability": "nonpayable",
      "type": "function"
    },
    {
      "constant": true,
      "inputs": [
        {
          "internalType": "uint256",
          "name": "",
          "type": "uint256"
        }
      ],
      "name": "instances",
      "outputs": [
        {
          "internalType": "contract LightGeneralizedTCR",
          "name": "",
          "type": "address"
        }
      ],
      "payable": false,
      "stateMutability": "view",
      "type": "function"
    }
  ],
  "transactionHash": "0xaa9df8a9f63b53e3b707960984fbfbdd17919f471eacf8aa3a866ee02e66acf1",
  "args": [
    "0xBeeB211CfE6632E75992488A66F65b0477FBe96B"
  ],
  "numDeployments": 1,
  "solcInputHash": "8e68fa05bce2d1098c0738035c7962ed",
  "bytecode": "0x608060405234801561001057600080fd5b5060405161076a38038061076a8339818101604052602081101561003357600080fd5b5051600180546001600160a01b0319166001600160a01b03909216919091179055610707806100636000396000f3fe608060405234801561001057600080fd5b506004361061004c5760003560e01c806306661abd14610051578063a2f7b3a51461006b578063c6622970146100a4578063d8dcbd27146100ac575b600080fd5b610059610302565b60408051918252519081900360200190f35b6100886004803603602081101561008157600080fd5b5035610308565b604080516001600160a01b039092168252519081900360200190f35b61008861032f565b61030060048036036101e08110156100c357600080fd5b6001600160a01b0382351691908101906040810160208201356401000000008111156100ee57600080fd5b82018360208201111561010057600080fd5b8035906020019184600183028401116401000000008311171561012257600080fd5b91908080601f01602080910402602001604051908101604052809392919081815260200183838082843760009201919091525092956001600160a01b0385351695909490935060408101925060200135905064010000000081111561018657600080fd5b82018360208201111561019857600080fd5b803590602001918460018302840111640100000000831117156101ba57600080fd5b91908080601f016020809104026020016040519081016040528093929190818152602001838380828437600092019190915250929594936020810193503591505064010000000081111561020d57600080fd5b82018360208201111561021f57600080fd5b8035906020019184600183028401116401000000008311171561024157600080fd5b91908080601f0160208091040260200160405190810160405280939291908181526020018383808284376000920191909152505060408051608081810190925293966001600160a01b03863516969095909460a0820194509250602001906004908390839080828437600092019190915250506040805160608181019092529295843595909490936080820193509160209091019060039083908390808284376000920191909152509194505050356001600160a01b0316905061033e565b005b60005490565b6000818154811061031557fe5b6000918252602090912001546001600160a01b0316905081565b6001546001600160a01b031681565b600154600090610356906001600160a01b0316610630565b9050806001600160a01b031663baef48e28c8c8c8c8c8c8c8c8c8c6040518b63ffffffff1660e01b8152600401808b6001600160a01b03166001600160a01b03168152602001806020018a6001600160a01b03166001600160a01b031681526020018060200180602001896001600160a01b03166001600160a01b0316815260200188600460200280838360005b838110156103fc5781810151838201526020016103e4565b5050505090500187815260200186600360200280838360005b8381101561042d578181015183820152602001610415565b50505050905001856001600160a01b03166001600160a01b0316815260200184810384528d818151815260200191508051906020019080838360005b83811015610481578181015183820152602001610469565b50505050905090810190601f1680156104ae5780820380516001836020036101000a031916815260200191505b5084810383528b5181528b516020918201918d019080838360005b838110156104e15781810151838201526020016104c9565b50505050905090810190601f16801561050e5780820380516001836020036101000a031916815260200191505b5084810382528a5181528a516020918201918c019080838360005b83811015610541578181015183820152602001610529565b50505050905090810190601f16801561056e5780820380516001836020036101000a031916815260200191505b509d5050505050505050505050505050600060405180830381600087803b15801561059857600080fd5b505af11580156105ac573d6000803e3d6000fd5b5050600080546001810182558180527f290decd9548b62a8d60345a988386fc84ba6bc95484008f6362f93160ef3e5630180546001600160a01b0319166001600160a01b0386169081179091556040519093507f704e94f24d7a41dd1af49e0bbd12aa4fb9ade0accd11001b9d1de7d756a5464f9250a25050505050505050505050565b6000604051733d602d80600a3d3981f3363d3d373d3d3d363d7360601b81528260601b60148201526e5af43d82803e903d91602b57fd5bf360881b60288201526037816000f09150506001600160a01b0381166106cd576040805162461bcd60e51b8152602060048201526016602482015275115490cc4c4d8dce8818dc99585d194819985a5b195960521b604482015290519081900360640190fd5b91905056fea265627a7a723158203088403b4c1e7e28cfcc311bbdb87b2fb3ef20e73edacd42fc24b669f7e1ed9a64736f6c63430005110032",
  "devdoc": {
    "methods": {
      "constructor": {
        "details": "Constructor.",
        "params": {
          "_GTCR": "Address of the generalized TCR contract that is going to be used for each new deployment."
        }
      },
      "count()": {
        "return": "The number of deployed tcrs using this factory."
      },
      "deploy(address,bytes,address,string,string,address,uint256[4],uint256,uint256[3],address)": {
        "details": "Deploy the arbitrable curated registry.",
        "params": {
          "_arbitrator": "Arbitrator to resolve potential disputes. The arbitrator is trusted to support appeal periods and not reenter.",
          "_arbitratorExtraData": "Extra data for the trusted arbitrator contract.",
          "_baseDeposits": "The base deposits for requests/challenges as follows: - The base deposit to submit an item. - The base deposit to remove an item. - The base deposit to challenge a submission. - The base deposit to challenge a removal request.",
          "_challengePeriodDuration": "The time in seconds parties have to challenge a request.",
          "_clearingMetaEvidence": "The URI of the meta evidence object for clearing requests.",
          "_connectedTCR": "The address of the TCR that stores related TCR addresses. This parameter can be left empty.",
          "_governor": "The trusted governor of this contract.",
          "_registrationMetaEvidence": "The URI of the meta evidence object for registration requests.",
          "_relayContract": "The address of the relay contract to add/remove items directly.",
          "_stakeMultipliers": "Multipliers of the arbitration cost in basis points (see LightGeneralizedTCR MULTIPLIER_DIVISOR) as follows: - The multiplier applied to each party's fee stake for a round when there is no winner/loser in the previous round. - The multiplier applied to the winner's fee stake for an appeal round. - The multiplier applied to the loser's fee stake for an appeal round."
        }
      }
    },
    "title": "LightGTCRFactory This contract acts as a registry for LightGeneralizedTCR instances."
  },
  "userdoc": {
    "methods": {}
  },
  "storageLayout": {
    "storage": [
      {
        "astId": 2853,
        "contract": "contracts/LightGTCRFactory.sol:LightGTCRFactory",
        "label": "instances",
        "offset": 0,
        "slot": "0",
        "type": "t_array(t_contract(LightGeneralizedTCR)5670)dyn_storage"
      },
      {
        "astId": 2855,
        "contract": "contracts/LightGTCRFactory.sol:LightGTCRFactory",
        "label": "GTCR",
        "offset": 0,
        "slot": "1",
        "type": "t_address"
      }
    ],
    "types": {
      "t_address": {
        "encoding": "inplace",
        "label": "address",
        "numberOfBytes": "20"
      },
      "t_array(t_contract(LightGeneralizedTCR)5670)dyn_storage": {
        "base": "t_contract(LightGeneralizedTCR)5670",
        "encoding": "dynamic_array",
        "label": "contract LightGeneralizedTCR[]",
        "numberOfBytes": "32"
      },
      "t_contract(LightGeneralizedTCR)5670": {
        "encoding": "inplace",
        "label": "contract LightGeneralizedTCR",
        "numberOfBytes": "20"
      }
    }
  }
}