{
  "address": "0xBeeB211CfE6632E75992488A66F65b0477FBe96B",
  "abi": [
    {
      "anonymous": false,
      "inputs": [
        {
          "indexed": true,
          "internalType": "address",
          "name": "_connectedTCR",
          "type": "address"
        }
      ],
      "name": "ConnectedTCRSet",
      "type": "event"
    },
    {
      "anonymous": false,
      "inputs": [
        {
          "indexed": true,
          "internalType": "bytes32",
          "name": "_itemID",
          "type": "bytes32"
        },
        {
          "indexed": false,
          "internalType": "uint256",
          "name": "_requestID",
          "type": "uint256"
        },
        {
          "indexed": false,
          "internalType": "uint256",
          "name": "_roundID",
          "type": "uint256"
        },
        {
          "indexed": true,
          "internalType": "address",
          "name": "_contributor",
          "type": "address"
        },
        {
          "indexed": false,
          "internalType": "uint256",
          "name": "_contribution",
          "type": "uint256"
        },
        {
          "indexed": false,
          "internalType": "enum LightGeneralizedTCR.Party",
          "name": "_side",
          "type": "uint8"
        }
      ],
      "name": "Contribution",
      "type": "event"
    },
    {
      "anonymous": false,
      "inputs": [
        {
          "indexed": true,
          "internalType": "contract IArbitrator",
          "name": "_arbitrator",
          "type": "address"
        },
        {
          "indexed": true,
          "internalType": "uint256",
          "name": "_disputeID",
          "type": "uint256"
        },
        {
          "indexed": false,
          "internalType": "uint256",
          "name": "_metaEvidenceID",
          "type": "uint256"
        },
        {
          "indexed": false,
          "internalType": "uint256",
          "name": "_evidenceGroupID",
          "type": "uint256"
        }
      ],
      "name": "Dispute",
      "type": "event"
    },
    {
      "anonymous": false,
      "inputs": [
        {
          "indexed": true,
          "internalType": "contract IArbitrator",
          "name": "_arbitrator",
          "type": "address"
        },
        {
          "indexed": true,
          "internalType": "uint256",
          "name": "_evidenceGroupID",
          "type": "uint256"
        },
        {
          "indexed": true,
          "internalType": "address",
          "name": "_party",
          "type": "address"
        },
        {
          "indexed": false,
          "internalType": "string",
          "name": "_evidence",
          "type": "string"
        }
      ],
      "name": "Evidence",
      "type": "event"
    },
    {
      "anonymous": false,
      "inputs": [
        {
          "indexed": true,
          "internalType": "bytes32",
          "name": "_itemID",
          "type": "bytes32"
        },
        {
          "indexed": false,
          "internalType": "bool",
          "name": "_updatedDirectly",
          "type": "bool"
        }
      ],
      "name": "ItemStatusChange",
      "type": "event"
    },
    {
      "anonymous": false,
      "inputs": [
        {
          "indexed": true,
          "internalType": "uint256",
          "name": "_metaEvidenceID",
          "type": "uint256"
        },
        {
          "indexed": false,
          "internalType": "string",
          "name": "_evidence",
          "type": "string"
        }
      ],
      "name": "MetaEvidence",
      "type": "event"
    },
    {
      "anonymous": false,
      "inputs": [
        {
          "indexed": true,
          "internalType": "bytes32",
          "name": "_itemID",
          "type": "bytes32"
        },
        {
          "indexed": false,
          "internalType": "string",
          "name": "_data",
          "type": "string"
        },
        {
          "indexed": false,
          "internalType": "bool",
          "name": "_addedDirectly",
          "type": "bool"
        }
      ],
      "name": "NewItem",
      "type": "event"
    },
    {
      "anonymous": false,
      "inputs": [
        {
          "indexed": true,
          "internalType": "bytes32",
          "name": "_itemID",
          "type": "bytes32"
        },
        {
          "indexed": false,
          "internalType": "uint256",
          "name": "_evidenceGroupID",
          "type": "uint256"
        }
      ],
      "name": "RequestSubmitted",
      "type": "event"
    },
    {
      "anonymous": false,
      "inputs": [
        {
          "indexed": true,
          "internalType": "address",
          "name": "_beneficiary",
          "type": "address"
        },
        {
          "indexed": true,
          "internalType": "bytes32",
          "name": "_itemID",
          "type": "bytes32"
        },
        {
          "indexed": false,
          "internalType": "uint256",
          "name": "_request",
          "type": "uint256"
        },
        {
          "indexed": false,
          "internalType": "uint256",
          "name": "_round",
          "type": "uint256"
        },
        {
          "indexed": false,
          "internalType": "uint256",
          "name": "_reward",
          "type": "uint256"
        }
      ],
      "name": "RewardWithdrawn",
      "type": "event"
    },
    {
      "anonymous": false,
      "inputs": [
        {
          "indexed": true,
          "internalType": "contract IArbitrator",
          "name": "_arbitrator",
          "type": "address"
        },
        {
          "indexed": true,
          "internalType": "uint256",
          "name": "_disputeID",
          "type": "uint256"
        },
        {
          "indexed": false,
          "internalType": "uint256",
          "name": "_ruling",
          "type": "uint256"
        }
      ],
      "name": "Ruling",
      "type": "event"
    },
    {
      "constant": true,
      "inputs": [],
      "name": "MULTIPLIER_DIVISOR",
      "outputs": [
        {
          "internalType": "uint256",
          "name": "",
          "type": "uint256"
        }
      ],
      "payable": false,
      "stateMutability": "view",
      "type": "function"
    },
    {
      "constant": true,
      "inputs": [],
      "name": "RULING_OPTIONS",
      "outputs": [
        {
          "internalType": "uint256",
          "name": "",
          "type": "uint256"
        }
      ],
      "payable": false,
      "stateMutability": "view",
      "type": "function"
    },
    {
      "constant": false,
      "inputs": [
        {
          "internalType": "string",
          "name": "_item",
          "type": "string"
        }
      ],
      "name": "addItem",
      "outputs": [],
      "payable": true,
      "stateMutability": "payable",
      "type": "function"
    },
    {
      "constant": false,
      "inputs": [
        {
          "internalType": "string",
          "name": "_item",
          "type": "string"
        }
      ],
      "name": "addItemDirectly",
      "outputs": [],
      "payable": false,
      "stateMutability": "nonpayable",
      "type": "function"
    },
    {
      "constant": true,
      "inputs": [
        {
          "internalType": "uint256",
          "name": "",
          "type": "uint256"
        }
      ],
      "name": "arbitrationParamsChanges",
      "outputs": [
        {
          "internalType": "contract IArbitrator",
          "name": "arbitrator",
          "type": "address"
        },
        {
          "internalType": "bytes",
          "name": "arbitratorExtraData",
          "type": "bytes"
        }
      ],
      "payable": false,
      "stateMutability": "view",
      "type": "function"
    },
    {
      "constant": true,
      "inputs": [],
      "name": "arbitrator",
      "outputs": [
        {
          "internalType": "contract IArbitrator",
          "name": "",
          "type": "address"
        }
      ],
      "payable": false,
      "stateMutability": "view",
      "type": "function"
    },
    {
      "constant": true,
      "inputs": [
        {
          "internalType": "address",
          "name": "",
          "type": "address"
        },
        {
          "internalType": "uint256",
          "name": "",
          "type": "uint256"
        }
      ],
      "name": "arbitratorDisputeIDToItemID",
      "outputs": [
        {
          "internalType": "bytes32",
          "name": "",
          "type": "bytes32"
        }
      ],
      "payable": false,
      "stateMutability": "view",
      "type": "function"
    },
    {
      "constant": true,
      "inputs": [],
      "name": "arbitratorExtraData",
      "outputs": [
        {
          "internalType": "bytes",
          "name": "",
          "type": "bytes"
        }
      ],
      "payable": false,
      "stateMutability": "view",
      "type": "function"
    },
    {
      "constant": true,
      "inputs": [],
      "name": "challengePeriodDuration",
      "outputs": [
        {
          "internalType": "uint256",
          "name": "",
          "type": "uint256"
        }
      ],
      "payable": false,
      "stateMutability": "view",
      "type": "function"
    },
    {
      "constant": false,
      "inputs": [
        {
          "internalType": "bytes32",
          "name": "_itemID",
          "type": "bytes32"
        },
        {
          "internalType": "string",
          "name": "_evidence",
          "type": "string"
        }
      ],
      "name": "challengeRequest",
      "outputs": [],
      "payable": true,
      "stateMutability": "payable",
      "type": "function"
    },
    {
      "constant": false,
      "inputs": [
        {
          "internalType": "contract IArbitrator",
          "name": "_arbitrator",
          "type": "address"
        },
        {
          "internalType": "bytes",
          "name": "_arbitratorExtraData",
          "type": "bytes"
        },
        {
          "internalType": "string",
          "name": "_registrationMetaEvidence",
          "type": "string"
        },
        {
          "internalType": "string",
          "name": "_clearingMetaEvidence",
          "type": "string"
        }
      ],
      "name": "changeArbitrationParams",
      "outputs": [],
      "payable": false,
      "stateMutability": "nonpayable",
      "type": "function"
    },
    {
      "constant": false,
      "inputs": [
        {
          "internalType": "uint256",
          "name": "_challengePeriodDuration",
          "type": "uint256"
        }
      ],
      "name": "changeChallengePeriodDuration",
      "outputs": [],
      "payable": false,
      "stateMutability": "nonpayable",
      "type": "function"
    },
    {
      "constant": false,
      "inputs": [
        {
          "internalType": "address",
          "name": "_connectedTCR",
          "type": "address"
        }
      ],
      "name": "changeConnectedTCR",
      "outputs": [],
      "payable": false,
      "stateMutability": "nonpayable",
      "type": "function"
    },
    {
      "constant": false,
      "inputs": [
        {
          "internalType": "address",
          "name": "_governor",
          "type": "address"
        }
      ],
      "name": "changeGovernor",
      "outputs": [],
      "payable": false,
      "stateMutability": "nonpayable",
      "type": "function"
    },
    {
      "constant": false,
      "inputs": [
        {
          "internalType": "uint256",
          "name": "_loserStakeMultiplier",
          "type": "uint256"
        }
      ],
      "name": "changeLoserStakeMultiplier",
      "outputs": [],
      "payable": false,
      "stateMutability": "nonpayable",
      "type": "function"
    },
    {
      "constant": false,
      "inputs": [
        {
          "internalType": "address",
          "name": "_relayerContract",
          "type": "address"
        }
      ],
      "name": "changeRelayerContract",
      "outputs": [],
      "payable": false,
      "stateMutability": "nonpayable",
      "type": "function"
    },
    {
      "constant": false,
      "inputs": [
        {
          "internalType": "uint256",
          "name": "_removalBaseDeposit",
          "type": "uint256"
        }
      ],
      "name": "changeRemovalBaseDeposit",
      "outputs": [],
      "payable": false,
      "stateMutability": "nonpayable",
      "type": "function"
    },
    {
      "constant": false,
      "inputs": [
        {
          "internalType": "uint256",
          "name": "_removalChallengeBaseDeposit",
          "type": "uint256"
        }
      ],
      "name": "changeRemovalChallengeBaseDeposit",
      "outputs": [],
      "payable": false,
      "stateMutability": "nonpayable",
      "type": "function"
    },
    {
      "constant": false,
      "inputs": [
        {
          "internalType": "uint256",
          "name": "_sharedStakeMultiplier",
          "type": "uint256"
        }
      ],
      "name": "changeSharedStakeMultiplier",
      "outputs": [],
      "payable": false,
      "stateMutability": "nonpayable",
      "type": "function"
    },
    {
      "constant": false,
      "inputs": [
        {
          "internalType": "uint256",
          "name": "_submissionBaseDeposit",
          "type": "uint256"
        }
      ],
      "name": "changeSubmissionBaseDeposit",
      "outputs": [],
      "payable": false,
      "stateMutability": "nonpayable",
      "type": "function"
    },
    {
      "constant": false,
      "inputs": [
        {
          "internalType": "uint256",
          "name": "_submissionChallengeBaseDeposit",
          "type": "uint256"
        }
      ],
      "name": "changeSubmissionChallengeBaseDeposit",
      "outputs": [],
      "payable": false,
      "stateMutability": "nonpayable",
      "type": "function"
    },
    {
      "constant": false,
      "inputs": [
        {
          "internalType": "uint256",
          "name": "_winnerStakeMultiplier",
          "type": "uint256"
        }
      ],
      "name": "changeWinnerStakeMultiplier",
      "outputs": [],
      "payable": false,
      "stateMutability": "nonpayable",
      "type": "function"
    },
    {
      "constant": false,
      "inputs": [
        {
          "internalType": "bytes32",
          "name": "_itemID",
          "type": "bytes32"
        }
      ],
      "name": "executeRequest",
      "outputs": [],
      "payable": false,
      "stateMutability": "nonpayable",
      "type": "function"
    },
    {
      "constant": false,
      "inputs": [
        {
          "internalType": "bytes32",
          "name": "_itemID",
          "type": "bytes32"
        },
        {
          "internalType": "enum LightGeneralizedTCR.Party",
          "name": "_side",
          "type": "uint8"
        }
      ],
      "name": "fundAppeal",
      "outputs": [],
      "payable": true,
      "stateMutability": "payable",
      "type": "function"
    },
    {
      "constant": true,
      "inputs": [
        {
          "internalType": "bytes32",
          "name": "_itemID",
          "type": "bytes32"
        },
        {
          "internalType": "uint256",
          "name": "_requestID",
          "type": "uint256"
        },
        {
          "internalType": "uint256",
          "name": "_roundID",
          "type": "uint256"
        },
        {
          "internalType": "address",
          "name": "_contributor",
          "type": "address"
        }
      ],
      "name": "getContributions",
      "outputs": [
        {
          "internalType": "uint256[3]",
          "name": "contributions",
          "type": "uint256[3]"
        }
      ],
      "payable": false,
      "stateMutability": "view",
      "type": "function"
    },
    {
      "constant": true,
      "inputs": [
        {
          "internalType": "bytes32",
          "name": "_itemID",
          "type": "bytes32"
        },
        {
          "internalType": "uint256",
          "name": "_requestID",
          "type": "uint256"
        }
      ],
      "name": "getEvidenceGroupID",
      "outputs": [
        {
          "internalType": "uint256",
          "name": "",
          "type": "uint256"
        }
      ],
      "payable": false,
      "stateMutability": "pure",
      "type": "function"
    },
    {
      "constant": true,
      "inputs": [
        {
          "internalType": "bytes32",
          "name": "_itemID",
          "type": "bytes32"
        }
      ],
      "name": "getItemInfo",
      "outputs": [
        {
          "internalType": "enum LightGeneralizedTCR.Status",
          "name": "status",
          "type": "uint8"
        },
        {
          "internalType": "uint256",
          "name": "numberOfRequests",
          "type": "uint256"
        },
        {
          "internalType": "uint256",
          "name": "sumDeposit",
          "type": "uint256"
        }
      ],
      "payable": false,
      "stateMutability": "view",
      "type": "function"
    },
    {
      "constant": true,
      "inputs": [
        {
          "internalType": "bytes32",
          "name": "_itemID",
          "type": "bytes32"
        },
        {
          "internalType": "uint256",
          "name": "_requestID",
          "type": "uint256"
        }
      ],
      "name": "getRequestInfo",
      "outputs": [
        {
          "internalType": "bool",
          "name": "disputed",
          "type": "bool"
        },
        {
          "internalType": "uint256",
          "name": "disputeID",
          "type": "uint256"
        },
        {
          "internalType": "uint256",
          "name": "submissionTime",
          "type": "uint256"
        },
        {
          "internalType": "bool",
          "name": "resolved",
          "type": "bool"
        },
        {
          "internalType": "address payable[3]",
          "name": "parties",
          "type": "address[3]"
        },
        {
          "internalType": "uint256",
          "name": "numberOfRounds",
          "type": "uint256"
        },
        {
          "internalType": "enum LightGeneralizedTCR.Party",
          "name": "ruling",
          "type": "uint8"
        },
        {
          "internalType": "contract IArbitrator",
          "name": "requestArbitrator",
          "type": "address"
        },
        {
          "internalType": "bytes",
          "name": "requestArbitratorExtraData",
          "type": "bytes"
        },
        {
          "internalType": "uint256",
          "name": "metaEvidenceID",
          "type": "uint256"
        }
      ],
      "payable": false,
      "stateMutability": "view",
      "type": "function"
    },
    {
      "constant": true,
      "inputs": [
        {
          "internalType": "bytes32",
          "name": "_itemID",
          "type": "bytes32"
        },
        {
          "internalType": "uint256",
          "name": "_requestID",
          "type": "uint256"
        },
        {
          "internalType": "uint256",
          "name": "_roundID",
          "type": "uint256"
        }
      ],
      "name": "getRoundInfo",
      "outputs": [
        {
          "internalType": "bool",
          "name": "appealed",
          "type": "bool"
        },
        {
          "internalType": "uint256[3]",
          "name": "amountPaid",
          "type": "uint256[3]"
        },
        {
          "internalType": "bool[3]",
          "name": "hasPaid",
          "type": "bool[3]"
        },
        {
          "internalType": "uint256",
          "name": "feeRewards",
          "type": "uint256"
        }
      ],
      "payable": false,
      "stateMutability": "view",
      "type": "function"
    },
    {
      "constant": true,
      "inputs": [],
      "name": "governor",
      "outputs": [
        {
          "internalType": "address",
          "name": "",
          "type": "address"
        }
      ],
      "payable": false,
      "stateMutability": "view",
      "type": "function"
    },
    {
      "constant": false,
      "inputs": [
        {
          "internalType": "contract IArbitrator",
          "name": "_arbitrator",
          "type": "address"
        },
        {
          "internalType": "bytes",
          "name": "_arbitratorExtraData",
          "type": "bytes"
        },
        {
          "internalType": "address",
          "name": "_connectedTCR",
          "type": "address"
        },
        {
          "internalType": "string",
          "name": "_registrationMetaEvidence",
          "type": "string"
        },
        {
          "internalType": "string",
          "name": "_clearingMetaEvidence",
          "type": "string"
        },
        {
          "internalType": "address",
          "name": "_governor",
          "type": "address"
        },
        {
          "internalType": "uint256[4]",
          "name": "_baseDeposits",
          "type": "uint256[4]"
        },
        {
          "internalType": "uint256",
          "name": "_challengePeriodDuration",
          "type": "uint256"
        },
        {
          "internalType": "uint256[3]",
          "name": "_stakeMultipliers",
          "type": "uint256[3]"
        },
        {
          "internalType": "address",
          "name": "_relayerContract",
          "type": "address"
        }
      ],
      "name": "initialize",
      "outputs": [],
      "payable": false,
      "stateMutability": "nonpayable",
      "type": "function"
    },
    {
      "constant": true,
      "inputs": [
        {
          "internalType": "bytes32",
          "name": "",
          "type": "bytes32"
        }
      ],
      "name": "items",
      "outputs": [
        {
          "internalType": "enum LightGeneralizedTCR.Status",
          "name": "status",
          "type": "uint8"
        },
        {
          "internalType": "uint128",
          "name": "sumDeposit",
          "type": "uint128"
        },
        {
          "internalType": "uint120",
          "name": "requestCount",
          "type": "uint120"
        }
      ],
      "payable": false,
      "stateMutability": "view",
      "type": "function"
    },
    {
      "constant": true,
      "inputs": [],
      "name": "loserStakeMultiplier",
      "outputs": [
        {
          "internalType": "uint256",
          "name": "",
          "type": "uint256"
        }
      ],
      "payable": false,
      "stateMutability": "view",
      "type": "function"
    },
    {
      "constant": true,
      "inputs": [],
      "name": "metaEvidenceUpdates",
      "outputs": [
        {
          "internalType": "uint256",
          "name": "",
          "type": "uint256"
        }
      ],
      "payable": false,
      "stateMutability": "view",
      "type": "function"
    },
    {
      "constant": true,
      "inputs": [],
      "name": "relayerContract",
      "outputs": [
        {
          "internalType": "address",
          "name": "",
          "type": "address"
        }
      ],
      "payable": false,
      "stateMutability": "view",
      "type": "function"
    },
    {
      "constant": true,
      "inputs": [],
      "name": "removalBaseDeposit",
      "outputs": [
        {
          "internalType": "uint256",
          "name": "",
          "type": "uint256"
        }
      ],
      "payable": false,
      "stateMutability": "view",
      "type": "function"
    },
    {
      "constant": true,
      "inputs": [],
      "name": "removalChallengeBaseDeposit",
      "outputs": [
        {
          "internalType": "uint256",
          "name": "",
          "type": "uint256"
        }
      ],
      "payable": false,
      "stateMutability": "view",
      "type": "function"
    },
    {
      "constant": false,
      "inputs": [
        {
          "internalType": "bytes32",
          "name": "_itemID",
          "type": "bytes32"
        },
        {
          "internalType": "string",
          "name": "_evidence",
          "type": "string"
        }
      ],
      "name": "removeItem",
      "outputs": [],
      "payable": true,
      "stateMutability": "payable",
      "type": "function"
    },
    {
      "constant": false,
      "inputs": [
        {
          "internalType": "bytes32",
          "name": "_itemID",
          "type": "bytes32"
        }
      ],
      "name": "removeItemDirectly",
      "outputs": [],
      "payable": false,
      "stateMutability": "nonpayable",
      "type": "function"
    },
    {
      "constant": true,
      "inputs": [
        {
          "internalType": "bytes32",
          "name": "",
          "type": "bytes32"
        },
        {
          "internalType": "uint256",
          "name": "",
          "type": "uint256"
        }
      ],
      "name": "requestsDisputeData",
      "outputs": [
        {
          "internalType": "uint256",
          "name": "disputeID",
          "type": "uint256"
        },
        {
          "internalType": "enum LightGeneralizedTCR.DisputeStatus",
          "name": "status",
          "type": "uint8"
        },
        {
          "internalType": "enum LightGeneralizedTCR.Party",
          "name": "ruling",
          "type": "uint8"
        },
        {
          "internalType": "uint240",
          "name": "roundCount",
          "type": "uint240"
        }
      ],
      "payable": false,
      "stateMutability": "view",
      "type": "function"
    },
    {
      "constant": false,
      "inputs": [
        {
          "internalType": "uint256",
          "name": "_disputeID",
          "type": "uint256"
        },
        {
          "internalType": "uint256",
          "name": "_ruling",
          "type": "uint256"
        }
      ],
      "name": "rule",
      "outputs": [],
      "payable": false,
      "stateMutability": "nonpayable",
      "type": "function"
    },
    {
      "constant": true,
      "inputs": [],
      "name": "sharedStakeMultiplier",
      "outputs": [
        {
          "internalType": "uint256",
          "name": "",
          "type": "uint256"
        }
      ],
      "payable": false,
      "stateMutability": "view",
      "type": "function"
    },
    {
      "constant": true,
      "inputs": [],
      "name": "submissionBaseDeposit",
      "outputs": [
        {
          "internalType": "uint256",
          "name": "",
          "type": "uint256"
        }
      ],
      "payable": false,
      "stateMutability": "view",
      "type": "function"
    },
    {
      "constant": true,
      "inputs": [],
      "name": "submissionChallengeBaseDeposit",
      "outputs": [
        {
          "internalType": "uint256",
          "name": "",
          "type": "uint256"
        }
      ],
      "payable": false,
      "stateMutability": "view",
      "type": "function"
    },
    {
      "constant": false,
      "inputs": [
        {
          "internalType": "bytes32",
          "name": "_itemID",
          "type": "bytes32"
        },
        {
          "internalType": "string",
          "name": "_evidence",
          "type": "string"
        }
      ],
      "name": "submitEvidence",
      "outputs": [],
      "payable": false,
      "stateMutability": "nonpayable",
      "type": "function"
    },
    {
      "constant": true,
      "inputs": [],
      "name": "winnerStakeMultiplier",
      "outputs": [
        {
          "internalType": "uint256",
          "name": "",
          "type": "uint256"
        }
      ],
      "payable": false,
      "stateMutability": "view",
      "type": "function"
    },
    {
      "constant": false,
      "inputs": [
        {
          "internalType": "address payable",
          "name": "_beneficiary",
          "type": "address"
        },
        {
          "internalType": "bytes32",
          "name": "_itemID",
          "type": "bytes32"
        },
        {
          "internalType": "uint256",
          "name": "_requestID",
          "type": "uint256"
        },
        {
          "internalType": "uint256",
          "name": "_roundID",
          "type": "uint256"
        }
      ],
      "name": "withdrawFeesAndRewards",
      "outputs": [],
      "payable": false,
      "stateMutability": "nonpayable",
      "type": "function"
    }
  ],
  "transactionHash": "0xcc1e30cb7c3a23b79ed89293b00109136e2c8203bd9d34393fffbd21eab07509",
  "args": [],
  "numDeployments": 1,
  "solcInputHash": "8e68fa05bce2d1098c0738035c7962ed",
  "bytecode": "0x608060405234801561001057600080fd5b50614ab9806100206000396000f3fe6080604052600436106102875760003560e01c80638545c6a51161015a578063b4d79539116100c1578063c669439e1161007a578063c669439e14610fb7578063d661dd3114610fcc578063dd78cb5914610fe1578063e4c0aaf41461100b578063e9c241661461103e578063f48a0b311461106857610287565b8063b4d7953914610c9f578063baef48e214610cd2578063bb0b86ff14610e2f578063bfbcff1a14610e44578063c104817d14610f78578063c2f2beea14610fa257610287565b80639c81a827116101135780639c81a827146109fc578063a1c2bf4d14610a35578063a214e71214610a7a578063a37b6ad414610b35578063a43a21a114610b4a578063adc7faba14610c7557610287565b80638545c6a514610799578063873db1a7146108145780638c88c1491461088957806392239dff146108b3578063974121b2146108dd57806397e90e501461098757610287565b806341658341116101fe578063560f7eaf116101b7578063560f7eaf14610706578063626c47e8146107305780636cc6cde1146107455780636cdc090f1461075a578063787471a91461076f5780637b9433831461078457610287565b8063416583411461055057806341e57c061461056557806342d1da941461058f57806348f343f3146105bf5780634aac84e51461062d57806352bc0e601461068957610287565b80631d512085116102505780631d5120851461041a57806327e9f2941461042f5780632baf80ee1461049d578063311a6c56146104c357806333e5d047146104f357806340f1fa651461051d57610287565b806282a36d1461028c57806303f3e206146102b35780630c340a24146103335780630c7ac7b61461036457806312ce3525146103ee575b600080fd5b34801561029857600080fd5b506102a16110ea565b60408051918252519081900360200190f35b3480156102bf57600080fd5b506102e3600480360360408110156102d657600080fd5b50803590602001356110f0565b604051808581526020018460028111156102f957fe5b60ff16815260200183600281111561030d57fe5b60ff1681526001600160f01b039092166020830152506040805191829003019350915050f35b34801561033f57600080fd5b50610348611132565b604080516001600160a01b039092168252519081900360200190f35b34801561037057600080fd5b50610379611141565b6040805160208082528351818301528351919283929083019185019080838360005b838110156103b357818101518382015260200161039b565b50505050905090810190601f1680156103e05780820380516001836020036101000a031916815260200191505b509250505060405180910390f35b3480156103fa57600080fd5b506104186004803603602081101561041157600080fd5b5035611207565b005b34801561042657600080fd5b506102a1611259565b6104186004803603602081101561044557600080fd5b810190602081018135600160201b81111561045f57600080fd5b82018360208201111561047157600080fd5b803590602001918460018302840111600160201b8311171561049257600080fd5b50909250905061125f565b610418600480360360408110156104b357600080fd5b508035906020013560ff1661173f565b3480156104cf57600080fd5b50610418600480360360408110156104e657600080fd5b5080359060200135611e1b565b3480156104ff57600080fd5b506104186004803603602081101561051657600080fd5b5035612271565b34801561052957600080fd5b506104186004803603602081101561054057600080fd5b50356001600160a01b03166122c3565b34801561055c57600080fd5b506102a1612338565b34801561057157600080fd5b506104186004803603602081101561058857600080fd5b503561233e565b34801561059b57600080fd5b506102a1600480360360408110156105b257600080fd5b508035906020013561242f565b3480156105cb57600080fd5b506105e9600480360360208110156105e257600080fd5b503561245e565b604051808460038111156105f957fe5b60ff1681526001600160801b039093166020840152506001600160781b031660408083019190915251908190036060019150f35b34801561063957600080fd5b506106576004803603602081101561065057600080fd5b5035612494565b6040518084600381111561066757fe5b60ff168152602001838152602001828152602001935050505060405180910390f35b34801561069557600080fd5b506106ce600480360360808110156106ac57600080fd5b50803590602081013590604081013590606001356001600160a01b03166124ca565b6040518082606080838360005b838110156106f35781810151838201526020016106db565b5050505090500191505060405180910390f35b34801561071257600080fd5b506104186004803603602081101561072957600080fd5b5035612543565b34801561073c57600080fd5b506102a1612595565b34801561075157600080fd5b5061034861259a565b34801561076657600080fd5b506102a16125cf565b34801561077b57600080fd5b506102a16125d5565b34801561079057600080fd5b506102a16125db565b3480156107a557600080fd5b50610418600480360360208110156107bc57600080fd5b810190602081018135600160201b8111156107d657600080fd5b8201836020820111156107e857600080fd5b803590602001918460018302840111600160201b8311171561080957600080fd5b5090925090506125e1565b6104186004803603604081101561082a57600080fd5b81359190810190604081016020820135600160201b81111561084b57600080fd5b82018360208201111561085d57600080fd5b803590602001918460018302840111600160201b8311171561087e57600080fd5b5090925090506127aa565b34801561089557600080fd5b50610418600480360360208110156108ac57600080fd5b5035612db5565b3480156108bf57600080fd5b50610418600480360360208110156108d657600080fd5b5035612e07565b3480156108e957600080fd5b506109136004803603606081101561090057600080fd5b5080359060208101359060400135612e59565b60405184151581526020810184606080838360005b83811015610940578181015183820152602001610928565b5050505090500183600360200280838360005b8381101561096b578181015183820152602001610953565b5050505090500182815260200194505050505060405180910390f35b6104186004803603604081101561099d57600080fd5b81359190810190604081016020820135600160201b8111156109be57600080fd5b8201836020820111156109d057600080fd5b803590602001918460018302840111600160201b831117156109f157600080fd5b509092509050613016565b348015610a0857600080fd5b506102a160048036036040811015610a1f57600080fd5b506001600160a01b0381351690602001356134c0565b348015610a4157600080fd5b5061041860048036036080811015610a5857600080fd5b506001600160a01b0381351690602081013590604081013590606001356134dd565b348015610a8657600080fd5b50610aa460048036036020811015610a9d57600080fd5b5035613798565b60405180836001600160a01b03166001600160a01b0316815260200180602001828103825283818151815260200191508051906020019080838360005b83811015610af9578181015183820152602001610ae1565b50505050905090810190601f168015610b265780820380516001836020036101000a031916815260200191505b50935050505060405180910390f35b348015610b4157600080fd5b506102a161385a565b348015610b5657600080fd5b5061041860048036036080811015610b6d57600080fd5b6001600160a01b038235169190810190604081016020820135600160201b811115610b9757600080fd5b820183602082011115610ba957600080fd5b803590602001918460018302840111600160201b83111715610bca57600080fd5b919390929091602081019035600160201b811115610be757600080fd5b820183602082011115610bf957600080fd5b803590602001918460018302840111600160201b83111715610c1a57600080fd5b919390929091602081019035600160201b811115610c3757600080fd5b820183602082011115610c4957600080fd5b803590602001918460018302840111600160201b83111715610c6a57600080fd5b509092509050613860565b348015610c8157600080fd5b5061041860048036036020811015610c9857600080fd5b5035613955565b348015610cab57600080fd5b5061041860048036036020811015610cc257600080fd5b50356001600160a01b03166139a7565b348015610cde57600080fd5b5061041860048036036101e0811015610cf657600080fd5b6001600160a01b038235169190810190604081016020820135600160201b811115610d2057600080fd5b820183602082011115610d3257600080fd5b803590602001918460018302840111600160201b83111715610d5357600080fd5b919390926001600160a01b0383351692604081019060200135600160201b811115610d7d57600080fd5b820183602082011115610d8f57600080fd5b803590602001918460018302840111600160201b83111715610db057600080fd5b919390929091602081019035600160201b811115610dcd57600080fd5b820183602082011115610ddf57600080fd5b803590602001918460018302840111600160201b83111715610e0057600080fd5b91935091506001600160a01b038135811691602081019160a08201359160c08101916101209091013516613a2b565b348015610e3b57600080fd5b506102a1613bf5565b348015610e5057600080fd5b50610e7460048036036040811015610e6757600080fd5b5080359060200135613bfb565b604051808b1515151581526020018a81526020018981526020018815151515815260200187600360200280838360005b83811015610ebc578181015183820152602001610ea4565b50505050905001868152602001856002811115610ed557fe5b60ff168152602001846001600160a01b03166001600160a01b0316815260200180602001838152602001828103825284818151815260200191508051906020019080838360005b83811015610f34578181015183820152602001610f1c565b50505050905090810190601f168015610f615780820380516001836020036101000a031916815260200191505b509b50505050505050505050505060405180910390f35b348015610f8457600080fd5b5061041860048036036020811015610f9b57600080fd5b5035613d34565b348015610fae57600080fd5b506102a1613d86565b348015610fc357600080fd5b50610348613d8c565b348015610fd857600080fd5b506102a1613da0565b348015610fed57600080fd5b506104186004803603602081101561100457600080fd5b5035613da6565b34801561101757600080fd5b506104186004803603602081101561102e57600080fd5b50356001600160a01b0316613df8565b34801561104a57600080fd5b506104186004803603602081101561106157600080fd5b5035613e67565b34801561107457600080fd5b506104186004803603604081101561108b57600080fd5b81359190810190604081016020820135600160201b8111156110ac57600080fd5b8201836020820111156110be57600080fd5b803590602001918460018302840111600160201b831117156110df57600080fd5b509092509050614080565b60065481565b600c6020908152600092835260408084209091529082529020805460019091015460ff808216916101008104909116906201000090046001600160f01b031684565b6001546001600160a01b031681565b600d805460609190600019810190811061115757fe5b90600052602060002090600202016001018054600181600116156101000203166002900480601f0160208091040260200160405190810160405280929190818152602001828054600181600116156101000203166002900480156111fc5780601f106111d1576101008083540402835291602001916111fc565b820191906000526020600020905b8154815290600101906020018083116111df57829003601f168201915b505050505090505b90565b6001546001600160a01b03163314611254576040805162461bcd60e51b815260206004820181905260248201526000805160206148e9833981519152604482015290519081900360640190fd5b600955565b60085481565b60008282604051602001808383808284376040805191909301818103601f19018252835280516020918201206000818152600a90925292902080549296509450506001600160781b03600160881b90910481161091506113089050576040805162461bcd60e51b815260206004820152601b60248201527f546f6f206d616e7920726571756573747320666f72206974656d2e0000000000604482015290519081900360640190fd5b6000815460ff16600381111561131a57fe5b1461136c576040805162461bcd60e51b815260206004820181905260248201527f4974656d206d75737420626520616273656e7420746f2062652061646465642e604482015290519081900360640190fd5b8054600160881b90046001600160781b03166113ee576040805160006020820181905282825291810185905283917f93e4d3e9542ddd9eea8962241d920b12b96bce26749667189fd06ed3549019e191879187918060608101858580828437600083820152604051601f909101601f1916909201829003965090945050505050a25b80546001600160781b03600160881b808304821660018181019093169091026001600160881b039093169290921783556000918252820160205260408120600d805491926000198301929091908390811061144557fe5b60009182526020822060029091020154600d80546001600160a01b039092169350908490811061147157fe5b906000526020600020906002020160010190506000826001600160a01b031663f7434ea9836040518263ffffffff1660e01b8152600401808060200182810382528381815460018160011615610100020316600290048152602001915080546001816001161561010002031660029004801561152e5780601f106115035761010080835404028352916020019161152e565b820191906000526020600020905b81548152906001019060200180831161151157829003601f168201915b50509250505060206040518083038186803b15801561154c57600080fd5b505afa158015611560573d6000803e3d6000fd5b505050506040513d602081101561157657600080fd5b505160025490915060009061159290839063ffffffff61417216565b9050803410156115e9576040805162461bcd60e51b815260206004820181905260248201527f596f75206d7573742066756c6c792066756e642074686520726571756573742e604482015290519081900360640190fd5b86546002610100600160881b03199091166101006001600160801b03841681029190911760ff1916919091178855865468ffffffffffffffffff19164267ffffffffffffffff169091021762ffffff60481b1916600160481b62ffffff871602176bffffffffffffffffffffffff1633600160601b02178655865488907f73057048557c37c893f346985dc1d461cf12b00f09397bb275613203124c2be1906116aa908390600160881b90046001600160781b03908116600019011661242f565b60408051918252519081900360200190a2865460408051600160881b9092046001600160781b039081166000190116825260006020830152818101839052600160608301525133918a9160008051602061496f8339815191529181900360800190a3803411156117335760405133903483900380156108fc02916000818181858888f150505050505b50505050505050505050565b600081600281111561174d57fe5b1161178f576040805162461bcd60e51b815260206004820152600d60248201526c24b73b30b634b21039b4b2329760991b604482015290519081900360640190fd5b6000828152600a602052604090206001815460ff1660038111156117af57fe5b116117eb5760405162461bcd60e51b8152600401808060200182810382526025815260200180614a606025913960400191505060405180910390fd5b80546000196001600160781b03600160881b909204821601166000818152600183810160209081526040808420888552600c835281852086865290925290922090600182015460ff16600281111561183f57fe5b1461187b5760405162461bcd60e51b8152600401808060200182810382526032815260200180614a0c6032913960400191505060405180910390fd5b8154600d8054600092600160481b900462ffffff1690811061189957fe5b60009182526020808320600292830201805460018701546000196001600160f01b03620100009092048216011680865287850190935260409094209094506001600160a01b0390931692909189908111156118f057fe5b815460ff16600281111561190057fe5b1415611953576040805162461bcd60e51b815260206004820152601a60248201527f5369646520616c72656164792066756c6c792066756e6465642e000000000000604482015290519081900360640190fd5b6000806000856001600160a01b031663afe15cfb89600001546040518263ffffffff1660e01b815260040180828152602001915050604080518083038186803b15801561199f57600080fd5b505afa1580156119b3573d6000803e3d6000fd5b505050506040513d60408110156119c957600080fd5b50805160209091015190925090504282118015906119e657508042105b611a215760405162461bcd60e51b81526004018080602001828103825260348152602001806148836034913960400191505060405180910390fd5b6000866001600160a01b0316631c3db16d8a600001546040518263ffffffff1660e01b81526004018082815260200191505060206040518083038186803b158015611a6b57600080fd5b505afa158015611a7f573d6000803e3d6000fd5b505050506040513d6020811015611a9557600080fd5b50516002811115611aa257fe5b90506000816002811115611ab257fe5b1415611ac2576009549350611b32565b806002811115611ace57fe5b8d6002811115611ada57fe5b1415611aea576007549350611b32565b60085493506002838301044210611b325760405162461bcd60e51b81526004018080602001828103825260458152602001806149096045913960600191505060405180910390fd5b5050506000846001600160a01b031663f23f16e68860000154886001016040518363ffffffff1660e01b81526004018083815260200180602001828103825283818154600181600116156101000203166002900481526020019150805460018160011615610100020316600290048015611bed5780601f10611bc257610100808354040283529160200191611bed565b820191906000526020600020905b815481529060010190602001808311611bd057829003601f168201915b5050935050505060206040518083038186803b158015611c0c57600080fd5b505afa158015611c20573d6000803e3d6000fd5b505050506040513d6020811015611c3657600080fd5b505190506000611c68612710611c52848663ffffffff61419116565b81611c5957fe5b8491900463ffffffff61417216565b9050611c848d8b878f6002811115611c7c57fe5b3334876141bb565b80846002018d6002811115611c9557fe5b60038110611c9f57fe5b015410611e0c576000845460ff166002811115611cb857fe5b1415611ce05783548c90859060ff19166001836002811115611cd657fe5b0217905550611e0c565b835460ff1916845587546040805163093225f160e31b8152600481018381526024820192835260018b8101805460029281161561010002600019011691909104604484018190526001600160a01b038c16956349912f8895899591949290916064019084908015611d925780601f10611d6757610100808354040283529160200191611d92565b820191906000526020600020905b815481529060010190602001808311611d7557829003601f168201915b505093505050506000604051808303818588803b158015611db257600080fd5b505af1158015611dc6573d6000803e3d6000fd5b5050506001808b0180546001600160f01b0362010000808304821685019091160261ffff909116179055860154611e06925090508363ffffffff61430816565b60018501555b50505050505050505050505050565b6002811115611e69576040805162461bcd60e51b815260206004820152601560248201527424b73b30b634b210393ab634b7339037b83a34b7b760591b604482015290519081900360640190fd5b336000908152600b60209081526040808320858452825280832054808452600a835281842080546000196001600160781b03600160881b9092048216011680865260018083018652848720848852600c875285882083895290965293909520919490939092909190600182015460ff166002811115611ee457fe5b14611f205760405162461bcd60e51b815260040180806020018281038252602181526020018061494e6021913960400191505060405180910390fd5b8154600d8054600092600160481b900462ffffff16908110611f3e57fe5b6000918252602090912060029091020180549091506001600160a01b03163314611f995760405162461bcd60e51b815260040180806020018281038252602581526020018061498f6025913960400191505060405180910390fd5b6001808301546000196001600160f01b036201000090920482160116600090815260028401602052604081209091815460ff166002811115611fd757fe5b1415611fe75760015b915061200a565b6002815460ff166002811115611ff957fe5b1415612006576002611fe0565b8891505b6040805183815290518b9133917f394027a5fa6e098a1191094d1719d6929b9abc535fcc0c8f448d6a4e756222769181900360200190a3600082600281111561204f57fe5b60018601805460ff19166002908117808355929350839261ff0019169061010090849081111561207b57fe5b02179055508754610100600160881b03198116895561010090046001600160801b031660008260028111156120ac57fe5b1415612152576002895460ff1660038111156120c457fe5b146120d05760016120d3565b60005b89548a9060ff191660018360038111156120e957fe5b021790555086546040516002830491600160601b90046001600160a01b0316906108fc8315029083906000818181858888f150505060018a01546040516001600160a01b03909116925083156108fc02915083906000818181858888f19350505050505061223e565b600182600281111561216057fe5b14156121d6576002895460ff16600381111561217857fe5b14612184576000612187565b60015b89548a9060ff1916600183600381111561219d57fe5b02179055508654604051600160601b9091046001600160a01b0316906108fc8315029083906000818181858888f193505050505061223e565b6002895460ff1660038111156121e857fe5b146121f45760016121f7565b60005b89548a9060ff1916600183600381111561220d57fe5b021790555060018701546040516001600160a01b039091169082156108fc029083906000818181858888f150505050505b604080516000815290518b9160008051602061483b833981519152919081900360200190a2505050505050505050505050565b6001546001600160a01b031633146122be576040805162461bcd60e51b815260206004820181905260248201526000805160206148e9833981519152604482015290519081900360640190fd5b600255565b6001546001600160a01b03163314612310576040805162461bcd60e51b815260206004820181905260248201526000805160206148e9833981519152604482015290519081900360640190fd5b600080546001600160a01b0390921661010002610100600160a81b0319909216919091179055565b60095481565b60005461010090046001600160a01b031633146123a2576040805162461bcd60e51b815260206004820152601d60248201527f5468652063616c6c6572206d757374206265207468652072656c61792e000000604482015290519081900360640190fd5b6000818152600a602052604090206001815460ff1660038111156123c257fe5b146123fe5760405162461bcd60e51b81526004018080602001828103825260268152602001806149e66026913960400191505060405180910390fd5b805460ff1916815560408051600181529051839160008051602061483b833981519152919081900360200190a25050565b604080516020808201859052818301849052825180830384018152606090920190925280519101205b92915050565b600a6020526000908152604090205460ff81169061010081046001600160801b031690600160881b90046001600160781b031683565b6000908152600a602052604090205460ff811691600160881b82046001600160781b03169161010090046001600160801b031690565b6124d2614761565b6000858152600c6020908152604080832087845282528083208684526002810183528184206001600160a01b03871685526005810190935292819020815160608101928390529160039082845b81548152602001906001019080831161251f57505050505092505050949350505050565b6001546001600160a01b03163314612590576040805162461bcd60e51b815260206004820181905260248201526000805160206148e9833981519152604482015290519081900360640190fd5b600655565b600281565b600d80546000919060001981019081106125b057fe5b60009182526020909120600290910201546001600160a01b0316905090565b600d5490565b60055481565b60075481565b60005461010090046001600160a01b03163314612645576040805162461bcd60e51b815260206004820152601d60248201527f5468652063616c6c6572206d757374206265207468652072656c61792e000000604482015290519081900360640190fd5b60008282604051602001808383808284376040805191909301818103601f19018252835280516020918201206000818152600a90925292812092965091945090925061268f915050565b815460ff16600381111561269f57fe5b146126f1576040805162461bcd60e51b815260206004820181905260248201527f4974656d206d75737420626520616273656e7420746f2062652061646465642e604482015290519081900360640190fd5b8054600160881b90046001600160781b0316612773576040805160016020820181905282825291810185905283917f93e4d3e9542ddd9eea8962241d920b12b96bce26749667189fd06ed3549019e191879187918060608101858580828437600083820152604051601f909101601f1916909201829003965090945050505050a25b8054600160ff19909116811782556040805191825251839160008051602061483b833981519152919081900360200190a250505050565b6000838152600a602052604090206001815460ff1660038111156127ca57fe5b116128065760405162461bcd60e51b8152600401808060200182810382526025815260200180614a606025913960400191505060405180910390fd5b8054600160881b90046001600160781b039081166000190116600081815260018301602052604090206006548154610100900467ffffffffffffffff16420311156128825760405162461bcd60e51b81526004018080602001828103825260328152602001806149b46032913960400191505060405180910390fd5b6000868152600c60209081526040808320858452909152812090600182015460ff1660028111156128af57fe5b146128eb5760405162461bcd60e51b81526004018080602001828103825260328152602001806148b76032913960400191505060405180910390fd5b8154600d8054600092600160481b900462ffffff1690811061290957fe5b60009182526020808320600292830201805460405163f7434ea960e01b8152600481019384526001808401805460001992811615610100029290920190911695909504602482018190529296506001600160a01b039091169493859363f7434ea99391929091829160440190849080156129c45780601f10612999576101008083540402835291602001916129c4565b820191906000526020600020905b8154815290600101906020018083116129a757829003601f168201915b50509250505060206040518083038186803b1580156129e257600080fd5b505afa1580156129f6573d6000803e3d6000fd5b505050506040513d6020811015612a0c57600080fd5b505190506000806002895460ff166003811115612a2557fe5b14612a3257600554612a36565b6004545b9050612a48838263ffffffff61417216565b91505080341015612a8a5760405162461bcd60e51b8152600401808060200182810382526022815260200180614a3e6022913960400191505060405180910390fd5b336001600160a01b03168b60008051602061496f83398151915289600085600260405180858152602001848152602001838152602001826002811115612acc57fe5b60ff16815260200194505050505060405180910390a38754612b17908390612b029061010090046001600160801b031684614323565b6001600160801b03169063ffffffff61434916565b8854610100600160881b0319166101006001600160801b0392909216820217895560018781018054336001600160a01b03199091161790556040805163c13517e160e01b81526002600482018181526024830193845289850180549586161590960260001901909416819004604483018190526001600160a01b0389169563c13517e195899593949193909290916064019084908015612bf85780601f10612bcd57610100808354040283529160200191612bf8565b820191906000526020600020905b815481529060010190602001808311612bdb57829003601f168201915b505093505050506020604051808303818588803b158015612c1857600080fd5b505af1158015612c2c573d6000803e3d6000fd5b50505050506040513d6020811015612c4357600080fd5b50518086556001808701805460ff1916821761ffff16620200001790556001600160a01b0385166000908152600b602090815260408083209483529390529182208d9055875460ff1690811115612c9657fe5b8754600262ffffff600160481b909204821602160190506000612cb98d8a61242f565b87546040805185815260208101849052815193945091926001600160a01b038916927f74baab670a4015ab2f1b467c5252a96141a2573f2908e58a92081e80d3cfde3d92908290030190a38a15612d8057336001600160a01b031681866001600160a01b03167fdccf2f8b2cc26eafcd61905cba744cff4b81d14740725f6376390dc6298a6a3c8f8f60405180806020018281038252848482818152602001925080828437600083820152604051601f909101601f19169092018290039550909350505050a45b82341115611e0c5760405133903485900380156108fc02916000818181858888f1505050505050505050505050505050505050565b6001546001600160a01b03163314612e02576040805162461bcd60e51b815260206004820181905260248201526000805160206148e9833981519152604482015290519081900360640190fd5b600355565b6001546001600160a01b03163314612e54576040805162461bcd60e51b815260206004820181905260248201526000805160206148e9833981519152604482015290519081900360640190fd5b600855565b6000612e63614761565b612e6b614761565b6000868152600a602052604081208054600160881b90046001600160781b03168710612ed8576040805162461bcd60e51b81526020600482015260176024820152762932b8bab2b9ba103237b2b9903737ba1032bc34b9ba1760491b604482015290519081900360640190fd5b6000888152600c602090815260408083208a8452909152902060018101546201000090046001600160f01b03168710612f4f576040805162461bcd60e51b8152602060048201526014602482015273149bdd5b9908191bd95cc81b9bdd08195e1a5cdd60621b604482015290519081900360640190fd5b6000878152600282016020526040902060018201546000196001600160f01b036201000090920482160116881096508680612f9957506001815460ff166002811115612f9757fe5b145b151560208601528680612fbb57506002815460ff166002811115612fb957fe5b145b15156040808701919091526001820154815160608101928390528992600285019289929091849060039082845b815481526020019060010190808311612fe85750505050509250965096509650965050505093509350935093565b6000838152600a6020526040902080546001600160781b03600160881b90910481161061308a576040805162461bcd60e51b815260206004820152601b60248201527f546f6f206d616e7920726571756573747320666f72206974656d2e0000000000604482015290519081900360640190fd5b6001815460ff16600381111561309c57fe5b146130d85760405162461bcd60e51b81526004018080602001828103825260268152602001806149e66026913960400191505060405180910390fd5b80546001600160781b03600160881b808304821660018181019093169091026001600160881b039093169290921783556000918252820160205260408120600d805491926000198301929091908390811061312f57fe5b60009182526020822060029091020154600d80546001600160a01b039092169350908490811061315b57fe5b906000526020600020906002020160010190506000826001600160a01b031663f7434ea9836040518263ffffffff1660e01b815260040180806020018281038252838181546001816001161561010002031660029004815260200191508054600181600116156101000203166002900480156132185780601f106131ed57610100808354040283529160200191613218565b820191906000526020600020905b8154815290600101906020018083116131fb57829003601f168201915b50509250505060206040518083038186803b15801561323657600080fd5b505afa15801561324a573d6000803e3d6000fd5b505050506040513d602081101561326057600080fd5b505160035490915060009061327c90839063ffffffff61417216565b9050803410156132d3576040805162461bcd60e51b815260206004820181905260248201527f596f75206d7573742066756c6c792066756e642074686520726571756573742e604482015290519081900360640190fd5b8654610100600160881b0319166101006001600160801b0383160217808855600390889060ff19166001830217905550855468ffffffffffffffff0019166101004267ffffffffffffffff16021762ffffff60481b1916600160481b62ffffff871602176bffffffffffffffffffffffff1633600160601b0217808755600190879060ff1916828002179055508654600090613387908c906000196001600160781b03600160881b9092048216011661242f565b6040805182815290519192508c917f73057048557c37c893f346985dc1d461cf12b00f09397bb275613203124c2be19181900360200190a2875460408051600160881b9092046001600160781b039081166000190116825260006020830152818101849052600160608301525133918d9160008051602061496f8339815191529181900360800190a3881561348c57336001600160a01b031681866001600160a01b03167fdccf2f8b2cc26eafcd61905cba744cff4b81d14740725f6376390dc6298a6a3c8d8d60405180806020018281038252848482818152602001925080828437600083820152604051601f909101601f19169092018290039550909350505050a45b813411156134b35760405133903484900380156108fc02916000818181858888f150505050505b5050505050505050505050565b600b60209081526000928352604080842090915290825290205481565b6000838152600c6020908152604080832085845290915290206002600182015460ff16600281111561350b57fe5b1461355d576040805162461bcd60e51b815260206004820152601960248201527f52657175657374206d757374206265207265736f6c7665642e00000000000000604482015290519081900360640190fd5b6000828152600282016020526040812060018301549091906000196001600160f01b0362010000909204821601168414156135be57506001600160a01b038616600090815260058201602052604090206002810154600190910154016136f0565b60006001840154610100900460ff1660028111156135d857fe5b141561363957600382015460048301546001600160a01b0389166000908152600585016020526040902060018101546002909101549190920191018161361f576000613630565b81846001015482028161362e57fe5b045b925050506136f0565b6000826002018460010160019054906101000a900460ff16600281111561365c57fe5b6003811061366657fe5b0154116136745760006136ed565b6001830154600283810191610100900460ff169081111561369157fe5b6003811061369b57fe5b01546001838101546001600160a01b038a166000908152600586016020526040902091860154909190610100900460ff1660028111156136d757fe5b600381106136e157fe5b015402816136eb57fe5b045b90505b6001600160a01b038716600090815260058301602052604081206001810182905560020155801561378f576040516001600160a01b0388169082156108fc029083906000818181858888f15050604080518981526020810189905280820186905290518a94506001600160a01b038c1693507f10969cab4d5cb7c0bcdbae29ab82703528538913301c7ecabb369caf6930cb9c92509081900360600190a35b50505050505050565b600d81815481106137a557fe5b600091825260209182902060029182020180546001808301805460408051601f600019958416156101000295909501909216969096049283018790048702810187019095528185526001600160a01b03909216955091939091908301828280156138505780601f1061382557610100808354040283529160200191613850565b820191906000526020600020905b81548152906001019060200180831161383357829003601f168201915b5050505050905082565b60045481565b6001546001600160a01b031633146138ad576040805162461bcd60e51b815260206004820181905260248201526000805160206148e9833981519152604482015290519081900360640190fd5b61378f8787878080601f01602080910402602001604051908101604052809392919081815260200183838082843760009201919091525050604080516020601f8b01819004810282018101909252898152925089915088908190840183828082843760009201919091525050604080516020601f8a01819004810282018101909252888152925088915087908190840183828082843760009201919091525061436d92505050565b6001546001600160a01b031633146139a2576040805162461bcd60e51b815260206004820181905260248201526000805160206148e9833981519152604482015290519081900360640190fd5b600755565b6001546001600160a01b031633146139f4576040805162461bcd60e51b815260206004820181905260248201526000805160206148e9833981519152604482015290519081900360640190fd5b6040516001600160a01b038216907fc86a04b722cdfef2134355447e1ebddd83d57a81cddda524d682811e222bc25090600090a250565b60005460ff1615613a7a576040805162461bcd60e51b815260206004820152601460248201527320b63932b0b23c9034b734ba34b0b634bd32b21760611b604482015290519081900360640190fd5b6040516001600160a01b038b16907fc86a04b722cdfef2134355447e1ebddd83d57a81cddda524d682811e222bc25090600090a2600180546001600160a01b0319166001600160a01b03878116919091179091558435600255602080860135600355604080870135600455606087013560055560068690558435600955848201356007558481013560085560008054610100600160a81b03191661010094861694909402939093179092558151601f8e018290048202810182019092528c8252613bd9918f918f908f9081908401838280828437600081840152601f19601f820116905080830192505050505050508b8b8080601f01602080910402602001604051908101604052809392919081815260200183838082843760009201919091525050604080516020601f8f018190048102820181019092528d815292508d91508c908190840183828082843760009201919091525061436d92505050565b50506000805460ff191660011790555050505050505050505050565b60025481565b600080600080613c09614761565b6000878152600a602052604081208054829182916060918391600160881b90046001600160781b03168c10613c7f576040805162461bcd60e51b81526020600482015260176024820152762932b8bab2b9ba103237b2b9903737ba1032bc34b9ba1760491b604482015290519081900360640190fd5b60008d8152600a602090815260408083208f845260019081019092529091208054610100810467ffffffffffffffff169b509091600160601b9091046001600160a01b031690899060038110613cd157fe5b6001600160a01b0392831660209190910291909101526001820154166040890152613cfc8e8e614563565b929e50909c5097509550613d108e8e6145c6565b91965094509250613d218e8e6146f2565b985050509295989b9194979a5092959850565b6001546001600160a01b03163314613d81576040805162461bcd60e51b815260206004820181905260248201526000805160206148e9833981519152604482015290519081900360640190fd5b600455565b60035481565b60005461010090046001600160a01b031681565b61271081565b6001546001600160a01b03163314613df3576040805162461bcd60e51b815260206004820181905260248201526000805160206148e9833981519152604482015290519081900360640190fd5b600555565b6001546001600160a01b03163314613e45576040805162461bcd60e51b815260206004820181905260248201526000805160206148e9833981519152604482015290519081900360640190fd5b600180546001600160a01b0319166001600160a01b0392909216919091179055565b6000818152600a602090815260408083208054600160881b90046001600160781b0390811660001901168085526001820190935292206006548154610100900467ffffffffffffffff16420311613eef5760405162461bcd60e51b815260040180806020018281038252602881526020018061485b6028913960400191505060405180910390fd5b6000848152600c60209081526040808320858452909152812090600182015460ff166002811115613f1c57fe5b14613f585760405162461bcd60e51b81526004018080602001828103825260238152602001806148186023913960400191505060405180910390fd5b6002845460ff166003811115613f6a57fe5b1415613f88578354600190859060ff191682805b0217905550614000565b6003845460ff166003811115613f9a57fe5b1415613fb3578354600090859060ff1916600183613f7e565b6040805162461bcd60e51b815260206004820152601860248201527f5468657265206d757374206265206120726571756573742e0000000000000000604482015290519081900360640190fd5b60408051600081529051869160008051602061483b833981519152919081900360200190a28354610100600160881b03198116855561010090046001600160801b03168015614078578254604051600160601b9091046001600160a01b0316906108fc8315029083906000818181858888f150505050505b505050505050565b6000838152600a602090815260408083208054600160881b90046001600160781b039081166000190116808552600182019093529083208054600d8054939592939091600160481b900462ffffff169081106140d857fe5b90600052602060002090600202019050336001600160a01b03166140fc888561242f565b825460408051602080825281018a90526001600160a01b03909216917fdccf2f8b2cc26eafcd61905cba744cff4b81d14740725f6376390dc6298a6a3c918b918b9181908101848480828437600083820152604051601f909101601f19169092018290039550909350505050a450505050505050565b60008282018381101561418757600019614189565b805b949350505050565b6000826141a057506000612458565b828202828482816141ad57fe5b041461418757600019614189565b6000878152600c60209081526040808320898452825280832088845260029081019092528220919061420390830187600381106141f457fe5b0154849063ffffffff61430816565b90506000808583111561421857859150614220565b508190508085035b6001600160a01b038716600090815260058501602052604090208290896003811061424757fe5b01805490910190558160028501896003811061425f57fe5b018054909101905560018401805483019055801561429d576040516001600160a01b0388169082156108fc029083906000818181858888f150505050505b81156134b357338b60008051602061496f8339815191528c8c868d60028111156142c357fe5b604051808581526020018481526020018381526020018260028111156142e557fe5b60ff16815260200194505050505060405180910390a35050505050505050505050565b60008282111561431a57506000612458565b50808203612458565b60008282016001600160801b038085169082161015614187576001600160801b03614189565b6000826001600160801b0316826001600160801b0316111561431a57506000612458565b600d805490506002027f61606860eb6c87306811e2695215385101daab53bd6ab4e9f9049aead9363c7d836040518080602001828103825283818151815260200191508051906020019080838360005b838110156143d55781810151838201526020016143bd565b50505050905090810190601f1680156144025780820380516001836020036101000a031916815260200191505b509250505060405180910390a2600d805490506002026001017f61606860eb6c87306811e2695215385101daab53bd6ab4e9f9049aead9363c7d826040518080602001828103825283818151815260200191508051906020019080838360005b8381101561447a578181015183820152602001614462565b50505050905090810190601f1680156144a75780820380516001836020036101000a031916815260200191505b509250505060405180910390a2604080518082019091526001600160a01b0385811682526020808301868152600d80546001810180835560009290925285517fd7b6990105719101dabeb77144f2a3385c8033acd3af97e9423a695e81ad1eb5600290920291820180546001600160a01b031916919096161785559151805191959493614559937fd7b6990105719101dabeb77144f2a3385c8033acd3af97e9423a695e81ad1eb6019291019061477f565b5050505050505050565b6000828152600c60209081526040808320848452909152812081908190819060018082015460ff16600281111561459657fe5b8254600190930154911115989197506201000081046001600160f01b03169650610100900460ff16945092505050565b6000828152600a6020908152604080832084845260010190915281208054600d80546060938593909284929091600160481b900462ffffff1690811061460857fe5b60009182526020909120600290910201805483549192506001600160a01b03169060018084019160ff169081111561463c57fe5b84548254604080516020601f60026000196001871615610100020190951685900490810182900482028301820190935282825262ffffff600160481b909504851693909302909316939093019284918301828280156146dc5780601f106146b1576101008083540402835291602001916146dc565b820191906000526020600020905b8154815290600101906020018083116146bf57829003601f168201915b5050505050915094509450945050509250925092565b6000828152600a602052604081208054600160881b90046001600160781b0316614720576000915050612458565b80546000196001600160781b03600160881b9092048216011683101561474a576001915050612458565b5461010090046001600160801b0316159392505050565b60405180606001604052806003906020820280388339509192915050565b828054600181600116156101000203166002900490600052602060002090601f016020900481019282601f106147c057805160ff19168380011785556147ed565b828001600101855582156147ed579182015b828111156147ed5782518255916020019190600101906147d2565b506147f99291506147fd565b5090565b61120491905b808211156147f9576000815560010161480356fe54686520726571756573742073686f756c64206e6f742062652064697370757465642ed768d67a683a3f5110d48ee5af827e22f4f36d017d764d3bfb11982492b1953654696d6520746f206368616c6c656e6765207468652072657175657374206d75737420706173732e436f6e747269627574696f6e73206d757374206265206d6164652077697468696e207468652061707065616c20706572696f642e54686520726571756573742073686f756c64206e6f74206861766520616c7265616479206265656e2064697370757465642e5468652063616c6c6572206d7573742062652074686520676f7665726e6f722e546865206c6f736572206d75737420636f6e7472696275746520647572696e67207468652066697273742068616c66206f66207468652061707065616c20706572696f642e5468652072657175657374206d757374206e6f74206265207265736f6c7665642e0388febb25c47b8b6fc7ecbe1dd210dfab59161d1d25992a642333d0792ab7764f6e6c79207468652061726269747261746f722063616e206769766520612072756c696e674368616c6c656e676573206d757374206f6363757220647572696e6720746865206368616c6c656e676520706572696f642e4974656d206d757374206265207265676973746572656420746f2062652072656d6f7665642e412064697370757465206d7573742068617665206265656e2072616973656420746f2066756e6420616e2061707065616c2e596f75206d7573742066756c6c792066756e6420746865206368616c6c656e67652e546865206974656d206d757374206861766520612070656e64696e6720726571756573742ea265627a7a72315820d119198f8023bf33b49565a63fe55a7cb47024ad8c23b0963ab52651e4a9fc5664736f6c63430005110032",
  "devdoc": {
    "methods": {
      "addItem(string)": {
        "details": "Submit a request to register an item. Accepts enough ETH to cover the deposit, reimburses the rest.",
        "params": {
          "_item": "The URI to the item data."
        }
      },
      "addItemDirectly(string)": {
        "details": "Directly add an item to the list bypassing request-challenge. Can only be used by the relay contract.",
        "params": {
          "_item": "The URI to the item data."
        }
      },
      "arbitrator()": {
        "details": "Gets the latest value in arbitrationParamsChanges.",
        "return": "The arbitrator address."
      },
      "arbitratorExtraData()": {
        "details": "Gets the latest value in arbitrationParamsChanges.",
        "return": "The arbitrator extra data."
      },
      "challengeRequest(bytes32,string)": {
        "details": "Challenges the request of the item. Accepts enough ETH to cover the deposit, reimburses the rest.",
        "params": {
          "_evidence": "A link to an evidence using its URI. Ignored if not provided.",
          "_itemID": "The ID of the item which request to challenge."
        }
      },
      "changeArbitrationParams(address,bytes,string,string)": {
        "details": "Effectively makes all new items use the new set of params.",
        "params": {
          "_arbitrator": "Arbitrator to resolve potential disputes. The arbitrator is trusted to support appeal periods and not reenter.",
          "_arbitratorExtraData": "Extra data for the trusted arbitrator contract.",
          "_clearingMetaEvidence": "The URI of the meta evidence object for clearing requests.",
          "_registrationMetaEvidence": "The URI of the meta evidence object for registration requests."
        }
      },
      "changeChallengePeriodDuration(uint256)": {
        "details": "Change the duration of the challenge period.",
        "params": {
          "_challengePeriodDuration": "The new duration of the challenge period."
        }
      },
      "changeConnectedTCR(address)": {
        "details": "Change the address of connectedTCR, the Generalized TCR instance that stores addresses of TCRs related to this one.",
        "params": {
          "_connectedTCR": "The address of the connectedTCR contract to use."
        }
      },
      "changeGovernor(address)": {
        "details": "Change the governor of the curated registry.",
        "params": {
          "_governor": "The address of the new governor."
        }
      },
      "changeLoserStakeMultiplier(uint256)": {
        "details": "Change the proportion of arbitration fees that must be paid as fee stake by the party that lost the previous round.",
        "params": {
          "_loserStakeMultiplier": "Multiplier of arbitration fees that must be paid as fee stake. In basis points."
        }
      },
      "changeRelayerContract(address)": {
        "details": "Change the address of the relay contract.",
        "params": {
          "_relayerContract": "The new address of the relay contract."
        }
      },
      "changeRemovalBaseDeposit(uint256)": {
        "details": "Change the base amount required as a deposit to remove an item.",
        "params": {
          "_removalBaseDeposit": "The new base amount of wei required to remove an item."
        }
      },
      "changeRemovalChallengeBaseDeposit(uint256)": {
        "details": "Change the base amount required as a deposit to challenge a removal request.",
        "params": {
          "_removalChallengeBaseDeposit": "The new base amount of wei required to challenge a removal request."
        }
      },
      "changeSharedStakeMultiplier(uint256)": {
        "details": "Change the proportion of arbitration fees that must be paid as fee stake by parties when there is no winner or loser.",
        "params": {
          "_sharedStakeMultiplier": "Multiplier of arbitration fees that must be paid as fee stake. In basis points."
        }
      },
      "changeSubmissionBaseDeposit(uint256)": {
        "details": "Change the base amount required as a deposit to submit an item.",
        "params": {
          "_submissionBaseDeposit": "The new base amount of wei required to submit an item."
        }
      },
      "changeSubmissionChallengeBaseDeposit(uint256)": {
        "details": "Change the base amount required as a deposit to challenge a submission.",
        "params": {
          "_submissionChallengeBaseDeposit": "The new base amount of wei required to challenge a submission."
        }
      },
      "changeWinnerStakeMultiplier(uint256)": {
        "details": "Change the proportion of arbitration fees that must be paid as fee stake by the winner of the previous round.",
        "params": {
          "_winnerStakeMultiplier": "Multiplier of arbitration fees that must be paid as fee stake. In basis points."
        }
      },
      "executeRequest(bytes32)": {
        "details": "Executes an unchallenged request if the challenge period has passed.",
        "params": {
          "_itemID": "The ID of the item to execute."
        }
      },
      "fundAppeal(bytes32,uint8)": {
        "details": "Takes up to the total amount required to fund a side of an appeal. Reimburses the rest. Creates an appeal if both sides are fully funded.",
        "params": {
          "_itemID": "The ID of the item which request to fund.",
          "_side": "The recipient of the contribution."
        }
      },
      "getContributions(bytes32,uint256,uint256,address)": {
        "details": "Gets the contributions made by a party for a given round of a request.",
        "params": {
          "_contributor": "The address of the contributor.",
          "_itemID": "The ID of the item.",
          "_requestID": "The request to query.",
          "_roundID": "The round to query."
        },
        "return": "contributions The contributions."
      },
      "getEvidenceGroupID(bytes32,uint256)": {
        "details": "Gets the evidengeGroupID for a given item and request.",
        "params": {
          "_itemID": "The ID of the item.",
          "_requestID": "The ID of the request."
        },
        "return": "The evidenceGroupID"
      },
      "getItemInfo(bytes32)": {
        "details": "Returns item's information. Includes the total number of requests for the item",
        "params": {
          "_itemID": "The ID of the queried item."
        },
        "return": "status The current status of the item.numberOfRequests Total number of requests for the item.sumDeposit The total deposit made by the requester and the challenger (if any)"
      },
      "getRequestInfo(bytes32,uint256)": {
        "details": "Gets information on a request made for the item.",
        "params": {
          "_itemID": "The ID of the queried item.",
          "_requestID": "The request to be queried."
        },
        "return": "disputed True if a dispute was raised.disputeID ID of the dispute, if any.submissionTime Time when the request was made.resolved True if the request was executed and/or any raised disputes were resolved.parties Address of requester and challenger, if any.numberOfRounds Number of rounds of dispute.ruling The final ruling given, if any.arbitrator The arbitrator trusted to solve disputes for this request.arbitratorExtraData The extra data for the trusted arbitrator of this request.metaEvidenceID The meta evidence to be used in a dispute for this case."
      },
      "getRoundInfo(bytes32,uint256,uint256)": {
        "details": "Gets the information of a round of a request.",
        "params": {
          "_itemID": "The ID of the queried item.",
          "_requestID": "The request to be queried.",
          "_roundID": "The round to be queried."
        },
        "return": "appealed Whether appealed or not.amountPaid Tracks the sum paid for each Party in this round.hasPaid True if the Party has fully paid its fee in this round.feeRewards Sum of reimbursable fees and stake rewards available to the parties that made contributions to the side that ultimately wins a dispute."
      },
      "initialize(address,bytes,address,string,string,address,uint256[4],uint256,uint256[3],address)": {
        "details": "Initialize the arbitrable curated registry.",
        "params": {
          "_arbitrator": "Arbitrator to resolve potential disputes. The arbitrator is trusted to support appeal periods and not reenter.",
          "_arbitratorExtraData": "Extra data for the trusted arbitrator contract.",
          "_baseDeposits": "The base deposits for requests/challenges as follows: - The base deposit to submit an item. - The base deposit to remove an item. - The base deposit to challenge a submission. - The base deposit to challenge a removal request.",
          "_challengePeriodDuration": "The time in seconds parties have to challenge a request.",
          "_clearingMetaEvidence": "The URI of the meta evidence object for clearing requests.",
          "_connectedTCR": "The address of the TCR that stores related TCR addresses. This parameter can be left empty.",
          "_governor": "The trusted governor of this contract.",
          "_registrationMetaEvidence": "The URI of the meta evidence object for registration requests.",
          "_relayerContract": "The address of the relay contract to add/remove items directly.",
          "_stakeMultipliers": "Multipliers of the arbitration cost in basis points (see MULTIPLIER_DIVISOR) as follows: - The multiplier applied to each party's fee stake for a round when there is no winner/loser in the previous round (e.g. when the arbitrator refused to arbitrate). - The multiplier applied to the winner's fee stake for the subsequent round. - The multiplier applied to the loser's fee stake for the subsequent round."
        }
      },
      "metaEvidenceUpdates()": {
        "details": "Gets the number of times MetaEvidence was updated.",
        "return": "The number of times MetaEvidence was updated."
      },
      "removeItem(bytes32,string)": {
        "details": "Submit a request to remove an item from the list. Accepts enough ETH to cover the deposit, reimburses the rest.",
        "params": {
          "_evidence": "A link to an evidence using its URI. Ignored if not provided.",
          "_itemID": "The ID of the item to remove."
        }
      },
      "removeItemDirectly(bytes32)": {
        "details": "Directly remove an item from the list bypassing request-challenge. Can only be used by the relay contract.",
        "params": {
          "_itemID": "The ID of the item to remove."
        }
      },
      "rule(uint256,uint256)": {
        "details": "Give a ruling for a dispute. Can only be called by the arbitrator. TRUSTED. Accounts for the situation where the winner loses a case due to paying less appeal fees than expected.",
        "params": {
          "_disputeID": "ID of the dispute in the arbitrator contract.",
          "_ruling": "Ruling given by the arbitrator. Note that 0 is reserved for \"Refused to arbitrate\"."
        }
      },
      "submitEvidence(bytes32,string)": {
        "details": "Submit a reference to evidence. EVENT.",
        "params": {
          "_evidence": "A link to an evidence using its URI.",
          "_itemID": "The ID of the item which the evidence is related to."
        }
      },
      "withdrawFeesAndRewards(address,bytes32,uint256,uint256)": {
        "details": "If a dispute was raised, sends the fee stake rewards and reimbursements proportionally to the contributions made to the winner of a dispute.",
        "params": {
          "_beneficiary": "The address that made contributions to a request.",
          "_itemID": "The ID of the item submission to withdraw from.",
          "_requestID": "The request from which to withdraw from.",
          "_roundID": "The round from which to withdraw from."
        }
      }
    },
    "title": "LightGeneralizedTCR This contract is a curated registry for any types of items. Just like a TCR contract it features the request-challenge protocol and appeal fees crowdfunding. The difference between LightGeneralizedTCR and GeneralizedTCR is that instead of storing item data in storage and event logs, LightCurate only stores the URI of item in the logs. This makes it considerably cheaper to use and allows more flexibility with the item columns."
  },
  "userdoc": {
    "methods": {
      "arbitrator()": {
        "notice": "Gets the arbitrator for new requests."
      },
      "arbitratorExtraData()": {
        "notice": "Gets the arbitratorExtraData for new requests."
      },
      "changeArbitrationParams(address,bytes,string,string)": {
        "notice": "Changes the params related to arbitration."
      }
    }
  },
  "storageLayout": {
    "storage": [
      {
        "astId": 3052,
        "contract": "contracts/LightGeneralizedTCR.sol:LightGeneralizedTCR",
        "label": "initialized",
        "offset": 0,
        "slot": "0",
        "type": "t_bool"
      },
      {
        "astId": 3054,
        "contract": "contracts/LightGeneralizedTCR.sol:LightGeneralizedTCR",
        "label": "relayerContract",
        "offset": 1,
        "slot": "0",
        "type": "t_address"
      },
      {
        "astId": 3056,
        "contract": "contracts/LightGeneralizedTCR.sol:LightGeneralizedTCR",
        "label": "governor",
        "offset": 0,
        "slot": "1",
        "type": "t_address"
      },
      {
        "astId": 3058,
        "contract": "contracts/LightGeneralizedTCR.sol:LightGeneralizedTCR",
        "label": "submissionBaseDeposit",
        "offset": 0,
        "slot": "2",
        "type": "t_uint256"
      },
      {
        "astId": 3060,
        "contract": "contracts/LightGeneralizedTCR.sol:LightGeneralizedTCR",
        "label": "removalBaseDeposit",
        "offset": 0,
        "slot": "3",
        "type": "t_uint256"
      },
      {
        "astId": 3062,
        "contract": "contracts/LightGeneralizedTCR.sol:LightGeneralizedTCR",
        "label": "submissionChallengeBaseDeposit",
        "offset": 0,
        "slot": "4",
        "type": "t_uint256"
      },
      {
        "astId": 3064,
        "contract": "contracts/LightGeneralizedTCR.sol:LightGeneralizedTCR",
        "label": "removalChallengeBaseDeposit",
        "offset": 0,
        "slot": "5",
        "type": "t_uint256"
      },
      {
        "astId": 3066,
        "contract": "contracts/LightGeneralizedTCR.sol:LightGeneralizedTCR",
        "label": "challengePeriodDuration",
        "offset": 0,
        "slot": "6",
        "type": "t_uint256"
      },
      {
        "astId": 3068,
        "contract": "contracts/LightGeneralizedTCR.sol:LightGeneralizedTCR",
        "label": "winnerStakeMultiplier",
        "offset": 0,
        "slot": "7",
        "type": "t_uint256"
      },
      {
        "astId": 3070,
        "contract": "contracts/LightGeneralizedTCR.sol:LightGeneralizedTCR",
        "label": "loserStakeMultiplier",
        "offset": 0,
        "slot": "8",
        "type": "t_uint256"
      },
      {
        "astId": 3072,
        "contract": "contracts/LightGeneralizedTCR.sol:LightGeneralizedTCR",
        "label": "sharedStakeMultiplier",
        "offset": 0,
        "slot": "9",
        "type": "t_uint256"
      },
      {
        "astId": 3079,
        "contract": "contracts/LightGeneralizedTCR.sol:LightGeneralizedTCR",
        "label": "items",
        "offset": 0,
        "slot": "10",
        "type": "t_mapping(t_bytes32,t_struct(Item)3000_storage)"
      },
      {
        "astId": 3085,
        "contract": "contracts/LightGeneralizedTCR.sol:LightGeneralizedTCR",
        "label": "arbitratorDisputeIDToItemID",
        "offset": 0,
        "slot": "11",
        "type": "t_mapping(t_address,t_mapping(t_uint256,t_bytes32))"
      },
      {
        "astId": 3091,
        "contract": "contracts/LightGeneralizedTCR.sol:LightGeneralizedTCR",
        "label": "requestsDisputeData",
        "offset": 0,
        "slot": "12",
        "type": "t_mapping(t_bytes32,t_mapping(t_uint256,t_struct(DisputeData)3024_storage))"
      },
      {
        "astId": 3094,
        "contract": "contracts/LightGeneralizedTCR.sol:LightGeneralizedTCR",
        "label": "arbitrationParamsChanges",
        "offset": 0,
        "slot": "13",
        "type": "t_array(t_struct(ArbitrationParams)3044_storage)dyn_storage"
      }
    ],
    "types": {
      "t_address": {
        "encoding": "inplace",
        "label": "address",
        "numberOfBytes": "20"
      },
      "t_address_payable": {
        "encoding": "inplace",
        "label": "address payable",
        "numberOfBytes": "20"
      },
      "t_array(t_struct(ArbitrationParams)3044_storage)dyn_storage": {
        "base": "t_struct(ArbitrationParams)3044_storage",
        "encoding": "dynamic_array",
        "label": "struct LightGeneralizedTCR.ArbitrationParams[]",
        "numberOfBytes": "32"
      },
      "t_array(t_uint256)3_storage": {
        "base": "t_uint256",
        "encoding": "inplace",
        "label": "uint256[3]",
        "numberOfBytes": "96"
      },
      "t_bool": {
        "encoding": "inplace",
        "label": "bool",
        "numberOfBytes": "1"
      },
      "t_bytes32": {
        "encoding": "inplace",
        "label": "bytes32",
        "numberOfBytes": "32"
      },
      "t_bytes_storage": {
        "encoding": "bytes",
        "label": "bytes",
        "numberOfBytes": "32"
      },
      "t_contract(IArbitrator)99": {
        "encoding": "inplace",
        "label": "contract IArbitrator",
        "numberOfBytes": "20"
      },
      "t_enum(DisputeStatus)2989": {
        "encoding": "inplace",
        "label": "enum LightGeneralizedTCR.DisputeStatus",
        "numberOfBytes": "1"
      },
      "t_enum(Party)2982": {
        "encoding": "inplace",
        "label": "enum LightGeneralizedTCR.Party",
        "numberOfBytes": "1"
      },
      "t_enum(RequestType)2985": {
        "encoding": "inplace",
        "label": "enum LightGeneralizedTCR.RequestType",
        "numberOfBytes": "1"
      },
      "t_enum(Status)2978": {
        "encoding": "inplace",
        "label": "enum LightGeneralizedTCR.Status",
        "numberOfBytes": "1"
      },
      "t_mapping(t_address,t_array(t_uint256)3_storage)": {
        "encoding": "mapping",
        "key": "t_address",
        "label": "mapping(address => uint256[3])",
        "numberOfBytes": "32",
        "value": "t_array(t_uint256)3_storage"
      },
      "t_mapping(t_address,t_mapping(t_uint256,t_bytes32))": {
        "encoding": "mapping",
        "key": "t_address",
        "label": "mapping(address => mapping(uint256 => bytes32))",
        "numberOfBytes": "32",
        "value": "t_mapping(t_uint256,t_bytes32)"
      },
      "t_mapping(t_bytes32,t_mapping(t_uint256,t_struct(DisputeData)3024_storage))": {
        "encoding": "mapping",
        "key": "t_bytes32",
        "label": "mapping(bytes32 => mapping(uint256 => struct LightGeneralizedTCR.DisputeData))",
        "numberOfBytes": "32",
        "value": "t_mapping(t_uint256,t_struct(DisputeData)3024_storage)"
      },
      "t_mapping(t_bytes32,t_struct(Item)3000_storage)": {
        "encoding": "mapping",
        "key": "t_bytes32",
        "label": "mapping(bytes32 => struct LightGeneralizedTCR.Item)",
        "numberOfBytes": "32",
        "value": "t_struct(Item)3000_storage"
      },
      "t_mapping(t_uint256,t_bytes32)": {
        "encoding": "mapping",
        "key": "t_uint256",
        "label": "mapping(uint256 => bytes32)",
        "numberOfBytes": "32",
        "value": "t_bytes32"
      },
      "t_mapping(t_uint256,t_struct(DisputeData)3024_storage)": {
        "encoding": "mapping",
        "key": "t_uint256",
        "label": "mapping(uint256 => struct LightGeneralizedTCR.DisputeData)",
        "numberOfBytes": "32",
        "value": "t_struct(DisputeData)3024_storage"
      },
      "t_mapping(t_uint256,t_struct(Request)3011_storage)": {
        "encoding": "mapping",
        "key": "t_uint256",
        "label": "mapping(uint256 => struct LightGeneralizedTCR.Request)",
        "numberOfBytes": "32",
        "value": "t_struct(Request)3011_storage"
      },
      "t_mapping(t_uint256,t_struct(Round)3039_storage)": {
        "encoding": "mapping",
        "key": "t_uint256",
        "label": "mapping(uint256 => struct LightGeneralizedTCR.Round)",
        "numberOfBytes": "32",
        "value": "t_struct(Round)3039_storage"
      },
      "t_struct(ArbitrationParams)3044_storage": {
        "encoding": "inplace",
        "label": "struct LightGeneralizedTCR.ArbitrationParams",
        "members": [
          {
            "astId": 3041,
            "contract": "contracts/LightGeneralizedTCR.sol:LightGeneralizedTCR",
            "label": "arbitrator",
            "offset": 0,
            "slot": "0",
            "type": "t_contract(IArbitrator)99"
          },
          {
            "astId": 3043,
            "contract": "contracts/LightGeneralizedTCR.sol:LightGeneralizedTCR",
            "label": "arbitratorExtraData",
            "offset": 0,
            "slot": "1",
            "type": "t_bytes_storage"
          }
        ],
        "numberOfBytes": "64"
      },
      "t_struct(DisputeData)3024_storage": {
        "encoding": "inplace",
        "label": "struct LightGeneralizedTCR.DisputeData",
        "members": [
          {
            "astId": 3013,
            "contract": "contracts/LightGeneralizedTCR.sol:LightGeneralizedTCR",
            "label": "disputeID",
            "offset": 0,
            "slot": "0",
            "type": "t_uint256"
          },
          {
            "astId": 3015,
            "contract": "contracts/LightGeneralizedTCR.sol:LightGeneralizedTCR",
            "label": "status",
            "offset": 0,
            "slot": "1",
            "type": "t_enum(DisputeStatus)2989"
          },
          {
            "astId": 3017,
            "contract": "contracts/LightGeneralizedTCR.sol:LightGeneralizedTCR",
            "label": "ruling",
            "offset": 1,
            "slot": "1",
            "type": "t_enum(Party)2982"
          },
          {
            "astId": 3019,
            "contract": "contracts/LightGeneralizedTCR.sol:LightGeneralizedTCR",
            "label": "roundCount",
            "offset": 2,
            "slot": "1",
            "type": "t_uint240"
          },
          {
            "astId": 3023,
            "contract": "contracts/LightGeneralizedTCR.sol:LightGeneralizedTCR",
            "label": "rounds",
            "offset": 0,
            "slot": "2",
            "type": "t_mapping(t_uint256,t_struct(Round)3039_storage)"
          }
        ],
        "numberOfBytes": "96"
      },
      "t_struct(Item)3000_storage": {
        "encoding": "inplace",
        "label": "struct LightGeneralizedTCR.Item",
        "members": [
          {
            "astId": 2991,
            "contract": "contracts/LightGeneralizedTCR.sol:LightGeneralizedTCR",
            "label": "status",
            "offset": 0,
            "slot": "0",
            "type": "t_enum(Status)2978"
          },
          {
            "astId": 2993,
            "contract": "contracts/LightGeneralizedTCR.sol:LightGeneralizedTCR",
            "label": "sumDeposit",
            "offset": 1,
            "slot": "0",
            "type": "t_uint128"
          },
          {
            "astId": 2995,
            "contract": "contracts/LightGeneralizedTCR.sol:LightGeneralizedTCR",
            "label": "requestCount",
            "offset": 17,
            "slot": "0",
            "type": "t_uint120"
          },
          {
            "astId": 2999,
            "contract": "contracts/LightGeneralizedTCR.sol:LightGeneralizedTCR",
            "label": "requests",
            "offset": 0,
            "slot": "1",
            "type": "t_mapping(t_uint256,t_struct(Request)3011_storage)"
          }
        ],
        "numberOfBytes": "64"
      },
      "t_struct(Request)3011_storage": {
        "encoding": "inplace",
        "label": "struct LightGeneralizedTCR.Request",
        "members": [
          {
            "astId": 3002,
            "contract": "contracts/LightGeneralizedTCR.sol:LightGeneralizedTCR",
            "label": "requestType",
            "offset": 0,
            "slot": "0",
            "type": "t_enum(RequestType)2985"
          },
          {
            "astId": 3004,
            "contract": "contracts/LightGeneralizedTCR.sol:LightGeneralizedTCR",
            "label": "submissionTime",
            "offset": 1,
            "slot": "0",
            "type": "t_uint64"
          },
          {
            "astId": 3006,
            "contract": "contracts/LightGeneralizedTCR.sol:LightGeneralizedTCR",
            "label": "arbitrationParamsIndex",
            "offset": 9,
            "slot": "0",
            "type": "t_uint24"
          },
          {
            "astId": 3008,
            "contract": "contracts/LightGeneralizedTCR.sol:LightGeneralizedTCR",
            "label": "requester",
            "offset": 12,
            "slot": "0",
            "type": "t_address_payable"
          },
          {
            "astId": 3010,
            "contract": "contracts/LightGeneralizedTCR.sol:LightGeneralizedTCR",
            "label": "challenger",
            "offset": 0,
            "slot": "1",
            "type": "t_address_payable"
          }
        ],
        "numberOfBytes": "64"
      },
      "t_struct(Round)3039_storage": {
        "encoding": "inplace",
        "label": "struct LightGeneralizedTCR.Round",
        "members": [
          {
            "astId": 3026,
            "contract": "contracts/LightGeneralizedTCR.sol:LightGeneralizedTCR",
            "label": "sideFunded",
            "offset": 0,
            "slot": "0",
            "type": "t_enum(Party)2982"
          },
          {
            "astId": 3028,
            "contract": "contracts/LightGeneralizedTCR.sol:LightGeneralizedTCR",
            "label": "feeRewards",
            "offset": 0,
            "slot": "1",
            "type": "t_uint256"
          },
          {
            "astId": 3032,
            "contract": "contracts/LightGeneralizedTCR.sol:LightGeneralizedTCR",
            "label": "amountPaid",
            "offset": 0,
            "slot": "2",
            "type": "t_array(t_uint256)3_storage"
          },
          {
            "astId": 3038,
            "contract": "contracts/LightGeneralizedTCR.sol:LightGeneralizedTCR",
            "label": "contributions",
            "offset": 0,
            "slot": "5",
            "type": "t_mapping(t_address,t_array(t_uint256)3_storage)"
          }
        ],
        "numberOfBytes": "192"
      },
      "t_uint120": {
        "encoding": "inplace",
        "label": "uint120",
        "numberOfBytes": "15"
      },
      "t_uint128": {
        "encoding": "inplace",
        "label": "uint128",
        "numberOfBytes": "16"
      },
      "t_uint24": {
        "encoding": "inplace",
        "label": "uint24",
        "numberOfBytes": "3"
      },
      "t_uint240": {
        "encoding": "inplace",
        "label": "uint240",
        "numberOfBytes": "30"
      },
      "t_uint256": {
        "encoding": "inplace",
        "label": "uint256",
        "numberOfBytes": "32"
      },
      "t_uint64": {
        "encoding": "inplace",
        "label": "uint64",
        "numberOfBytes": "8"
      }
    }
  }
}